:100000000C9429040C945A040C945A040C945A0429
:100010000C945A040C945A040C945A040C945A04E8
:100020000C945A040C945A040C945A040C945A04D8
:100030000C945A040C945A040C945A040C945A04C8
:100040000C945A040C945A040C945A040C945A04B8
:100050000C945A040C945A040C945A040C94990A63
:100060000C945A040C94410F0C940D100C945A04E7
:100070000C945A040C945A040C945A040C945A0488
:100080000C945A040C945A040C945A040C945A0478
:100090000C94740F0C944C100C945A040C945A0445
:1000A0000C945A040C945A040C945A040C945A0458
:1000B0000C945A040C945A040C945A040C945A0448
:1000C0000C945A040C945A040C945A040C94A70FE0
:1000D0000C948B100C945A040C94DA0F0C94CA10E4
:1000E0000C945A04D80BDB0BCE0BD20B120CDF0B8B
:1000F000E30BE90BED0BF10BF70BFB0BFF0B120CFA
:10010000050C090C0D0C0C94BA0E0C945A1C0C9492
:10011000E6240C94B4260C9460140C949A300C943D
:10012000DA0E0C940C240C94C0250C941B2A0C940D
:10013000E30B0C94FB0B0C94DE250C94932B0C948A
:100140008D0E0C949E0E0C94F70B0C94AC0D0C942D
:10015000120C0C9425140C9454260C94CF040C947B
:10016000FF0B0C940B2C0C948E0E0C94B3260C9459
:10017000B6240C94C9240C941F300C9441140C9494
:10018000CD2B0C94E5240C94FC2A0C94DB2E0C94BF
:10019000102B0C94D80B0C94E90B0C94272F0C9477
:1001A00006150C94D20B0C94F12A0C94B5240C94E3
:1001B0006F250C94050C0C942B250C940D0C0C94B1
:1001C00091110C94090C0C94592B0C94232B0C9426
:1001D0000F140C94D5240C946A140C94CE0B0C942C
:1001E000F10B0C94E50E0C94F8130C94ED0B0C949D
:1001F000DB0B0C94DF0B0C94BD240000090A0208F1
:100200000B0C0D07060304010000000000000000B5
:1002100000000000000000000000000000000000DE
:1002200000000000000011100F000000000000009E
:1002300000000000000000000000000000000000BE
:1002400001021020200808102040102040800201E8
:1002500002010804020101020408102040808040CD
:1002600020100804020180040201804020100804CC
:10027000020108040201010204081020408001026A
:100280000408102040800505050507050808080832
:10029000020202020A0A080804040404010101011E
:1002A0000101010103030303030303030407070719
:1002B0000C0C0C0C0C0C0C0C0202020206060606BE
:1002C000060606060B0B0B0B0B0B0B0B000022009C
:1002D000250028002B002E00310034000201000010
:1002E000050108010B0100002100240027002A005D
:1002F0002D003000330001010000040107010A0154
:100300007C3C3E5E2B3D3F2F5B5D3B2C2A225C00FC
:1003100000000000003E5B4F5B3E3E6B4F6B3E1C9F
:100320003E7C3E1C183C7E3C181C577D571C1C5EB6
:100330007F5E1C00183C1800FFE7C3E7FF0018248D
:100340001800FFE7DBE7FF30483A060E2629792937
:1003500026407F050507407F05253F5A3CE73C5A6C
:100360007F3E1C1C08081C1C3E7F14227F22145F49
:100370005F005F5F06097F017F006689956A6060A4
:1003800060606094A2FFA29408047E040810207E9E
:10039000201008082A1C08081C2A08081E10101023
:1003A000100C1E0C1E0C30383E3830060E3E0E0669
:1003B000000000000000005F0000000700070014BC
:1003C0007F147F14242A7F2A12231308646236497B
:1003D0005620500008070300001C22410000412263
:1003E0001C002A1C7F1C2A08083E08080080703068
:1003F00000080808080800006060002010080402D7
:100400003E5149453E00427F4000724949494621DC
:1004100041494D331814127F1027454545393C4A50
:100420004949314121110907364949493646494967
:10043000291E0000140000004034000000081422AF
:10044000411414141414004122140802015909061D
:100450003E415D594E7C1211127C7F494949363E1E
:10046000414141227F4141413E7F494949417F0904
:100470000909013E414151737F0808087F00417F0F
:1004800041002040413F017F081422417F4040400D
:10049000407F021C027F7F0408107F3E4141413EA5
:1004A0007F090909063E4151215E7F091929462627
:1004B0004949493203017F01033F4040403F1F202B
:1004C00040201F3F4038403F631408146303047802
:1004D00004036159494D43007F4141410204081022
:1004E00020004141417F040201020440404040405D
:1004F000000307080020545478407F2844443838CB
:1005000044444428384444287F385454541800083C
:100510007E090218A4A49C787F0804047800447D16
:1005200040002040403D007F1028440000417F40B3
:10053000007C047804787C08040478384444443807
:10054000FC1824241818242418FC7C0804040848E7
:100550005454542404043F44243C4040207C1C2038
:1005600040201C3C4030403C44281028444C909093
:10057000907C4464544C44000836410000007700ED
:1005800000004136080002010204023C2623263CFA
:100590001EA1A161123A4040207A38545455592185
:1005A000555579412254547842215554784020546D
:1005B0005579400C1E5272123955555559395454BB
:1005C000545939555454580000457C410002457D2A
:1005D000420001457C407D1211127DF0282528F053
:1005E0007C545545002054547C547C0A097F493280
:1005F000494949323A4444443A324A4848303A41F7
:1006000041217A3A42402078009DA0A07D3D42429F
:10061000423D3D4040403D3C24FF2424487E494328
:10062000662B2FFC2F2BFF0929F620C0887E09039B
:1006300020545479410000447D413048484A3238C2
:100640004040227A007A0A0A727D0D19317D2629EE
:10065000292F28262929292630484D4020380808E6
:10066000080808080808382F10C8ACBA2F1028341A
:10067000FA00007B000008142A142222142A14080D
:100680005500550055AA55AA55AAFF55FF55FF001C
:100690000000FF00101010FF00141414FF001010D1
:1006A000FF00FF1010F010F0141414FC001414F7E5
:1006B00000FF0000FF00FF1414F404FC14141710D2
:1006C0001F10101F101F1414141F00101010F00022
:1006D0000000001F101010101F10101010F010005C
:1006E0000000FF101010101010101010FF1000006C
:1006F00000FF140000FF00FF00001F10170000FCA7
:1007000004F414141710171414F404F40000FF0078
:10071000F714141414141414F700F7141414171401
:1007200010101F101F141414F4141010F010F00007
:10073000001F101F0000001F14000000FC14000028
:10074000F010F01010FF10FF141414FF141010100C
:100750001F00000000F010FFFFFFFFFFF0F0F0F0BF
:10076000F0FFFFFF0000000000FFFF0F0F0F0F0F53
:100770003844443844FC4A4A4A347E02020606029F
:100780007E027E0263554941633844443C04407E06
:10079000201E2006027E020299A5E7A5991C2A497F
:1007A0002A1C4C7201724C304A4D4D30304878480A
:1007B00030BC625A463D3E494949007E0101017EF6
:1007C0002A2A2A2A2A44445F444440514A44404049
:1007D000444A51400000FF0103E080FF0000080888
:1007E0006B6B083612362436060F090F0600001808
:1007F000180000001010003040FF0101001F01012F
:100800001E00191D1712003C3C3C3C00000000007B
:100810004E414E494E495459494E46CDCCCC3D0AE5
:10082000D7233C17B7D13877CC2B329595E6241FC8
:10083000B14F0A000020410000C84200401C462081
:10084000BCBE4CCA1B0E5AAEC59D7400CF0491119C
:10085000F81311241FBECFEFD1E2DEBFCDBF00E001
:100860000CBF13E0A0E0B2E0E0E5FBE600E00BBF68
:1008700002C007900D92A233B107D9F72AE1A2E393
:10088000B3E001C01D92AA37B207E1F714E0C9E254
:10089000D4E000E006C021970109802FFE010E94EC
:1008A0006135C632D10780E00807A9F70E947C0AAB
:1008B0000C9440310C940000CF92DF92EF92FF92A3
:1008C00080910302909104028C3F2FEF920774F005
:1008D000803F91057CF465E070E00E942B35072E87
:1008E000000C880B990B0E941B3208C060E070E07E
:1008F000CB0104C060E070E08CE392E40E945632C9
:100900000E94EA316B017C01809101029091020208
:100910008C3F2FEF920774F0803F91057CF465E0E7
:1009200070E00E942B35072E000C880B990B0E945B
:100930001B3208C060E070E0CB0104C060E070E0F2
:100940008CE392E40E9456320E94EA3120E3269F13
:10095000F001279FF00D1124CE0EDF1EC601880F77
:10096000991FFC01E65CFC4F6081718180E090E0A2
:100970000E94193220E030E04AE754E40E947831C6
:100980002DEC3CEC4CE45EE30E942333181614F487
:1009900080E000C0FF90EF90DF90CF9008952FEFA0
:1009A00049E06AE08EE395E10E94242C80E091E02A
:1009B0000E947F0C90933B1580933A15809103021F
:1009C000909104029093390380933803809101023F
:1009D00090910202909337038093360308950E940A
:1009E0003A0B40E855E260E070E080EE95E10E944D
:1009F000091180EE95E10E94DA0E40E050E0BA0164
:100A00008EE395E10E94E52C63E08EE395E10E9480
:100A1000DB2E6FEF7FEF8EE395E10E94C02560E152
:100A200072E080EE95E10E94E90D66E082E298E1D5
:100A30000E946312811107C068E272E080EE95E1C6
:100A40000E94060EFFCF10923D1510923C15E091CA
:100A50003A15F0913B1510820895EF92FF920F9393
:100A60001F93CF93DF93CDB7DEB7E6970FB6F89419
:100A7000DEBF0FBECDBFCE014C960E94C91421E04F
:100A800049E452E062E278E1CE0101960E947613D9
:100A90008B819C819F8F8E8F8D819E81AF81B88548
:100AA00088A399A3AAA3BBA389859A85AB85BC8596
:100AB0008CA39DA3AEA3BFA38DE0FE013D96DE01F6
:100AC000989601900D928A95E1F78A8D9B8D9EAB49
:100AD0008DABCE0101960E94DC14CE014C960E9493
:100AE0003515811106C065E572E080EE95E10E9442
:100AF000060E40913203509133036091340370919C
:100B00003503CE014C960E94DD1400E010E0CE01CA
:100B10004C960E940615892B21F00115F9E01F075C
:100B20002CF1CE014C960E94E614AB01BC0140931F
:100B300032035093330360933403709335032AE0F8
:100B400030E080EE95E10E947B0ECE014C960E9433
:100B5000DC14E6960FB6F894DEBF0FBECDBFDF9172
:100B6000CF911F910F91FF90EF900895CE014C9679
:100B70000E9460148A3011F08D3019F50F5F1F4FFD
:100B800080913A1590913B150E943C319801220FBB
:100B9000331FA901465C5C4F7A0120E030E04AE750
:100BA00054E40E9428330E94EA31F7017183608384
:100BB00010923D1510923C15E0913A15F0913B15BD
:100BC00020C020913C1530913D152F3F310508F094
:100BD0009ECF40913A1550913B15FA01E20FF31F59
:100BE000808380913C1590913D15019690933D1521
:100BF00080933C1520913A1530913B15F901E80F8F
:100C0000F91F108284CF4F925F926F927F92AF92C2
:100C1000BF92CF92DF92EF92FF920F931F93CF93E9
:100C2000DF932B013C016A015901E8012DEC3CECFA
:100C30004CEC5DE30E94733187FF05C068E0E62E4F
:100C400064EDF62E58C02DEC3CEC4CE45EE3C301A1
:100C5000B2010E94733187FF05C054EEE52E5AEAB7
:100C6000F52E49C02AE939E949E95EE3C301B20139
:100C70000E94733187FF05C04CE6E42E46E0F42E57
:100C80003AC02AE939E949E15FE3C301B2010E94B0
:100C9000733187FF05C03FECE32E3BE7F32E2BC0FB
:100CA0002DEC3CEC4CE45FE3C301B2010E947331D4
:100CB00087FF05C02DE2E22E2DE4F22E1CC026E6B1
:100CC00036E646E65FE3C301B2010E94733187FF57
:100CD00005C09FE9E92E91E3F92E0DC020E030E038
:100CE00040E85FE3C301B2010E94733118165CF063
:100CF0008FE1E82EF12C8E019E01A501B6018EE355
:100D000095E10E94CD2BDF91CF911F910F91FF9024
:100D1000EF90DF90CF90BF90AF907F906F905F90FB
:100D20004F900895CF92DF92EF92FF920F931F930F
:100D3000CF93DF938AE3C82E83E0D82EC0E0D0E0C3
:100D4000E12CF12CF601619171916F0180E090E04E
:100D50000E94193220E030E04AE754E40E947831E2
:100D600005E010E09701AE010E9403062596C03F02
:100D7000D10529F4F5E0EF0EF11CC0E0D0E080EFE2
:100D8000E816F10429F0EAE3CE16E5E1DE06D1F635
:100D9000DF91CF911F910F91FF90EF90DF90CF9057
:100DA00008952F923F924F925F926F927F928F920F
:100DB0009F92AF92BF92CF92DF92EF92FF920F93EA
:100DC0001F93CF93DF93CDB7DEB762970FB6F8943A
:100DD000DEBF0FBECDBF60903603709037032EEF9D
:100DE00062162FEF72068CF032EF631671048CF4EA
:100DF000C301029765E070E00E942B35072E000CBE
:100E0000880B990B0E941B3208C060E070E0CB0198
:100E100004C060E070E08CE392E40E9456320E94CD
:100E2000EA3169877A878B879C87A984BA844AEFDD
:100E300064164FEF74068CF08EEE681671048CF415
:100E4000C301029665E070E00E942B35072E000C6E
:100E5000880B990B0E941B3208C060E070E0CB0148
:100E600004C060E070E08CE392E40E9456320E947D
:100E7000EA316D877E878F87988B8D849E84E09082
:100E80003803F09039039EEFE9169FEFF9068CF0D6
:100E9000A2EFEA16F1048CF4C701029765E070E056
:100EA0000E942B35072E000C880B990B0E941B32D9
:100EB00008C060E070E0CB0104C060E070E08CE34B
:100EC00092E40E9456320E94EA3169837A838B83CE
:100ED0009C8329803A80BAEFEB16BFEFFB068CF0BB
:100EE000EEEEEE16F1048CF4C701029665E070E0B8
:100EF0000E942B35072E000C880B990B0E941B3289
:100F000008C060E070E0CB0104C060E070E08CE3FA
:100F100092E40E9456320E94EA316D837E838F8371
:100F200098870D811E81FCEFEF16FFEFFF0684F01E
:100F300020EFE216F10484F4C70165E070E00E943E
:100F40002B35072E000C880B990B0E941B3208C012
:100F500060E070E0CB0104C060E070E08CE392E4FC
:100F60000E9456326B017C013CEF63163FEF730623
:100F700084F040EF6416710484F4C30165E070E00E
:100F80000E942B35072E000C880B990B0E941B32F8
:100F900008C060E070E0CB0104C060E070E08CE36A
:100FA00092E40E9456320E94EA312B013C01021564
:100FB000130509F405C1A814B90409F4A9C064E62D
:100FC00072E080EE95E10E94060EB0E3BB2E8985AB
:100FD0009A85B89E8001B99E100D1124E981FA818D
:100FE000E00FF11FEE0FFF1FE65CFC4F6081718187
:100FF00080E090E00E94193220E030E04AE754E4BB
:101000000E9478316B017C01AD85BE85BA9E40019E
:10101000BB9E900C1124ED81FE81E80DF91DEE0FB1
:10102000FF1FE65CFC4F6081718180E090E00E94D0
:10103000193220E030E04AE754E40E9478312B0175
:101040003C01E981FA818E0E9F1EC401880F991F11
:10105000865C9C4FDC016D917C9180E090E00E9469
:10106000193220E030E04AE754E40E9478314B0125
:101070005C0145E029853A85429FF001439FF00DD0
:101080001124FA8BE98BA5E08D819E81A89F100128
:10109000A99F300C1124FC01E00FF11FEE0FFF1F80
:1010A000E65CFC4F6081718180E090E00E94193223
:1010B00020E030E04AE754E40E94783105E010E097
:1010C00029893A89A1010E94030645E029813A81D4
:1010D000429FF001439FF00D1124FE83ED83298987
:1010E0003A89AF01C701B6010E940306A5E08D85CC
:1010F0009E85A89F7001A99FF00C11249701A10162
:10110000C301B2010E94030697014D815E8155C063
:1011100063E772E080EE95E10E94060E80E3849D15
:101120007001859DF00C1124ED81FE81EE0DFF1DF7
:10113000EE0FFF1FE65CFC4F6081718180E090E064
:101140000E94193220E030E04AE754E40E947831EE
:101150004B015C0175E0372E349CF001359CF00D9D
:101160001124FA87E98729813A81329E6001339EF2
:10117000D00C1124E20EF31EF701EE0FFF1FE65C08
:10118000FC4F6081718180E090E00E94193220E084
:1011900030E04AE754E40E94783105E010E0298508
:1011A0003A85A6010E9403068D819E81389EA0018A
:1011B000399E500D112429853A85C501B40193C08B
:1011C000C701B6010E94EA316B017C01A814B90481
:1011D00009F45AC06DE872E080EE95E10E94060EB7
:1011E00010E3AD85BE851A9FF0011B9FF00D112401
:1011F000EC0DFD1DEE0FFF1FE65CFC4F6081718161
:1012000080E090E00E94193220E030E04AE754E4A8
:101210000E9478312B013C0145E0942E9C9C1001EA
:101220009D9C300C1124E985FA859E9E50019F9E5D
:10123000B00C11241E9FC0011F9F900D1124C80ED9
:10124000D91EC601880F991FFC01E65CFC4F608126
:10125000718180E090E00E94193220E030E04AE79E
:1012600054E40E94783105E010E09501A1010E944C
:1012700003068D859E85989E9001999E300D1124C0
:10128000A101C301B2012FC065EA72E080EE95E1D1
:101290000E94060E85E0849D5001859DB00C1124AE
:1012A0008C9D40018D9D900C112480E3849DF00164
:1012B000859DF00D1124CE0EDF1EC601880F991FEB
:1012C000FC01E65CFC4F6081718180E090E00E944F
:1012D000193220E030E04AE754E40E94783105E01A
:1012E00010E09501A4010E94030640910102509173
:1012F0000202609103027091040200E018EF22E004
:1013000030E08EE395E10E94BE2762960FB6F89416
:10131000DEBF0FBECDBFDF91CF911F910F91FF9028
:10132000EF90DF90CF90BF90AF909F908F907F9085
:101330006F905F904F903F902F900895CF93DF93E1
:1013400087E30E949C0BEC0186E30E949C0BC1305A
:1013500022E0D2072CF0C13462E0D60744F42AC060
:1013600020E032E02C1B3D0B213431051CF1D25022
:10137000D7FDEF9636E0D595C7953A95E1F72091E0
:10138000010230910202C20FD31FC13FD10514F0F8
:10139000C0EFD0E0D7FF02C0C0E0D0E0D09302029F
:1013A000C093010241E02091360330913703C21708
:1013B000D30709F440E0813072E097072CF08134C4
:1013C00022E0920744F431C020E032E0281B390BC0
:1013D0002134310554F120E032E0B901681B790B6A
:1013E000CB0177FDCF9626E0959587952A95E1F775
:1013F0002091030230910402820F931F8E3E9105CB
:1014000014F08DEE90E097FF02C080E090E09093A2
:1014100004028093030221E0609138037091390344
:101420008617970709F420E0422B809103029091E0
:1014300004028D3E910554F020910002822F65E058
:101440000E941F35992381F02F5F0BC0049764F42D
:1014500020910002822F65E00E941F35913021F01B
:1014600021502093000216C0809101029091020247
:101470008D3E910534F080910002853158F48B5FE8
:1014800007C004973CF480910002863018F0855024
:1014900080930002442369F10E945C04811111C011
:1014A0008091380390913903909304028093030252
:1014B000809136039091370390930202809301024A
:1014C00018C00E94D10664E670E080E090E00E94BF
:1014D000140B80910302909104029093390380933E
:1014E0003803809101029091020290933703809318
:1014F0003603DF91CF9108950E94EF0480EE95E1CD
:101500000E94DA0E0E942D050E949206409101026F
:1015100050910202609103027091040200E018EF02
:1015200022E030E08EE395E10E94BE270E949E09F2
:10153000FDCF1F920F920FB60F9211242F933F935E
:101540008F939F93AF93BF93809172159091731572
:10155000A0917415B09175153091711523E0230F8A
:101560002D3720F40196A11DB11D05C026E8230FDB
:101570000296A11DB11D2093711580937215909351
:101580007315A0937415B09375158091761590918D
:101590007715A0917815B09179150196A11DB11D0F
:1015A0008093761590937715A0937815B09379155D
:1015B000BF91AF919F918F913F912F910F900FBE4F
:1015C0000F901F9018952FB7F89460917215709135
:1015D000731580917415909175152FBF08953FB7BD
:1015E000F8948091761590917715A0917815B09127
:1015F000791526B5A89B05C02F3F19F00196A11DAE
:10160000B11D3FBFBA2FA92F982F8827820F911D98
:10161000A11DB11DBC01CD0142E0660F771F881FDF
:10162000991F4A95D1F70895CF92DF92EF92FF92DA
:10163000CF93DF936B017C010E94EF0AEB01C11491
:10164000D104E104F10479F00E94EF0A6C1B7D0BD8
:10165000683E7340A0F381E0C81AD108E108F108A0
:10166000C851DC4FECCFDF91CF91FF90EF90DF902E
:10167000CF900895789484B5826084BD84B58160EC
:1016800084BD85B5826085BD85B5816085BDEEE68A
:10169000F0E0808181608083E1E8F0E01082808169
:1016A00082608083808181608083E0E8F0E08081D7
:1016B00081608083E1EBF0E0808184608083E0EBF7
:1016C000F0E0808181608083E1E9F0E080818260E8
:1016D0008083808181608083E0E9F0E080818160A7
:1016E0008083E1EAF0E08081826080838081816094
:1016F0008083E0EAF0E0808181608083E1E2F1E0D4
:10170000808182608083808181608083E0E2F1E07B
:10171000808181608083EAE7F0E08081846080835B
:101720008081826080838081816080838081806805
:1017300080831092C1000895863308F086539091FB
:101740007B00282F2870977F922B90937B008770C7
:101750002091050290E4299F90011124822B80930F
:101760007C0080917A00806480937A0080917A0076
:1017700086FDFCCF809178002091790090E0922B3B
:10178000089590E0FC013197E131F10508F04AC07D
:101790008827EE58FF4F8F4F0C9461358091800061
:1017A0008F7703C0809180008F7D809380000895A3
:1017B00084B58F7702C084B58F7D84BD08958091F4
:1017C000B0008F7703C08091B0008F7D8093B00010
:1017D0000895809190008F7707C0809190008F7D51
:1017E00003C080919000877F80939000089580913E
:1017F000A0008F7707C08091A0008F7D03C08091EB
:10180000A000877F8093A0000895809120018F77AA
:1018100007C0809120018F7D03C080912001877FC8
:10182000809320010895CF93DF9390E0FC01E05C6A
:10183000FD4F2491FC01EA57FD4F8491882361F10B
:1018400090E0880F991FFC01EA51FD4FC591D4919A
:10185000FC01E453FD4FA591B491611109C09FB7FC
:10186000F8948881209582238883EC912E230BC0E5
:10187000623061F49FB7F8943881822F809583237A
:101880008883EC912E2B2C939FBF06C08FB7F894C2
:10189000E8812E2B28838FBFDF91CF9108951F936E
:1018A000CF93DF93282F30E0F901E650FE4F84916B
:1018B000F901E05CFD4FD491F901EA57FD4FC49165
:1018C000CC23C9F0162F81110E94C10BEC2FF0E040
:1018D000EE0FFF1FE453FD4FA591B4918FB7F8941D
:1018E000111105C09C91ED2FE095E92302C0EC9108
:1018F000ED2BEC938FBFDF91CF911F910895CF9384
:10190000DF938230910510F482E090E0E091761A46
:10191000F091771A20E030E0C0E0D0E0309711F18C
:101920004081518148175907C0F04817590761F4A1
:1019300082819381209719F09B838A832BC0909397
:10194000771A8093761A26C02115310519F04217AF
:10195000530718F49A01BE01DF01EF010280F38101
:10196000E02DDCCF2115310509F1281B390B24307E
:10197000310590F412968D919C9113976115710524
:1019800021F0FB019383828304C09093771A8093A4
:10199000761AFD01329644C0FD01E20FF31F8193D8
:1019A0009193225031092D933C933AC02091741A9F
:1019B0003091751A232B41F42091080230910902CD
:1019C0003093751A2093741A209106023091070201
:1019D0002115310541F42DB73EB740910A025091CF
:1019E0000B02241B350BE091741AF091751AE21763
:1019F000F307A0F42E1B3F0B2817390778F0AC0132
:101A00004E5F5F4F2417350748F04E0F5F1F50930E
:101A1000751A4093741A8193919302C0E0E0F0E04C
:101A2000CF01DF91CF9108950F931F93CF93DF9351
:101A3000009709F48CC0FC01329713821282009146
:101A4000761A1091771A0115110581F420813181E0
:101A5000820F931F2091741A3091751A2817390735
:101A600079F5F093751AE093741A71C0D80140E0CB
:101A700050E0AE17BF0750F412962D913C9113978A
:101A8000AD012115310509F1D901F3CF9D01DA012D
:101A90003383228360817181860F971F821793079A
:101AA00069F4EC0128813981260F371F2E5F3F4FE3
:101AB000318320838A819B8193838283452B29F400
:101AC000F093771AE093761A42C01396FC93EE9344
:101AD0001297ED01499159919E01240F351FE2178C
:101AE000F30771F480819181840F951F02961196FE
:101AF0009C938E938281938113969C938E931297DD
:101B0000E0E0F0E0D80112968D919C911397009738
:101B100019F0F8018C01F6CF8D919C9198012E5F00
:101B20003F4F820F931F2091741A3091751A281716
:101B3000390769F4309729F41092771A1092761ABF
:101B400002C0138212821093751A0093741ADF91E7
:101B5000CF911F910F910895CF92DF92EF92FF9254
:101B60000F931F93CF93DF936C01EB017B01E40E86
:101B7000F51E00E010E0CE15DF0561F06991D60199
:101B8000ED91FC910190F081E02DC6011995080FAF
:101B9000191FF1CFC801DF91CF911F910F91FF90D5
:101BA000EF90DF90CF9008956115710579F0FB01FA
:101BB00001900020E9F73197AF01461B570BDC017C
:101BC000ED91FC910280F381E02D199480E090E08A
:101BD00008950C94D40DDC01ED91FC910190F081FD
:101BE000E02D19940F931F93CF93DF93EC016DE0D9
:101BF0000E94EB0D8C016AE0CE010E94EB0D800F7C
:101C0000911FDF91CF911F910F9108950F931F9313
:101C1000CF93DF93EC010E94D40D8C01CE010E9482
:101C2000F20D800F911FDF91CF911F910F910895B9
:101C30008F929F92AF92BF92CF92DF92EF92FF92DC
:101C40000F931F93CF93DF93CDB7DEB7A1970FB656
:101C5000F894DEBF0FBECDBF6C01142FE52FCB0172
:101C6000022F19A2223008F40AE07E0121E2E20EDE
:101C7000F11C802E912CA12CB12C612F7E2FA5015F
:101C800094010E943F35029F1019112481E0E81A47
:101C9000F1081A3014F4105D01C0195CF7011083CB
:101CA000122FE32FCA01232B242B252B31F7B70149
:101CB000C6010E94D40DA1960FB6F894DEBF0FBEE8
:101CC000CDBFDF91CF911F910F91FF90EF90DF90EB
:101CD000CF90BF90AF909F908F90089521153105C0
:101CE00041F4DC01ED91FC910190F081E02D642F35
:101CF00019940C94180E0F931F93CF93DF93EC015C
:101D00000E946E0E8C01CE010E94F20D800F911F79
:101D1000DF91CF911F910F9108950895FC012485C3
:101D20003585F901E05CFF4F8081918132962081F9
:101D30003181821B930B8F7399270895DC011C96C8
:101D4000ED91FC911D97DF01A05CBF4F2D913C915F
:101D5000119712968D919C9111972817390739F098
:101D60008D919C91E80FF91F808190E008958FEF8D
:101D70009FEF0895FC01A485B585FD01E05CFF4F50
:101D8000208131813296808191812817390779F03D
:101D900080819181A80FB91F8C91208131812F5FA3
:101DA0003F4F2F7333273183208390E008958FEFC7
:101DB0009FEF0895FC0181A1882329F0A489B589AA
:101DC0008C9186FFFBCF11A208950F931F93CF93A1
:101DD000DF93FC01A685B7858D01005C1F4FE801EC
:101DE0008881998101968F739927AD014E5B5F4F72
:101DF000EA012881398182179307D1F3E80128810C
:101E00003981A20FB31F6C93A685B785A05CBF4F25
:101E100011969C938E93A689B7892C9181E090E0CE
:101E2000078C02C0880F991F0A94E2F7822B8C93CB
:101E300081E081A30488F589E02D8081806480831E
:101E400081E090E0DF91CF911F910F910895FB0108
:101E5000E05CFF4F208131812F5F3F4F2F7333278D
:101E6000DB01AE5BBF4F4D915C912417350741F00C
:101E700040815181DB01A40FB51F8C9331832083F6
:101E800008951F920F920FB60F9211240BB60F9266
:101E90002F933F934F935F936F937F938F939F9372
:101EA000AF93BF93EF93FF938091C00082FD07C073
:101EB0008091C6006EED77E10E94270F02C08091ED
:101EC000C600FF91EF91BF91AF919F918F917F914C
:101ED0006F915F914F913F912F910F900BBE0F909B
:101EE0000FBE0F901F9018951F920F920FB60F9272
:101EF00011240BB60F922F933F934F935F936F93E1
:101F00007F938F939F93AF93BF93EF93FF938091B2
:101F1000C80082FD07C08091CE0066E577E10E948F
:101F2000270F02C08091CE00FF91EF91BF91AF913A
:101F30009F918F917F916F915F914F913F912F91E1
:101F40000F900BBE0F900FBE0F901F9018951F9211
:101F50000F920FB60F9211240BB60F922F933F934F
:101F60004F935F936F937F938F939F93AF93BF93A1
:101F7000EF93FF938091D00082FD07C08091D6003F
:101F80006EEC76E10E94270F02C08091D600FF918F
:101F9000EF91BF91AF919F918F917F916F915F91E1
:101FA0004F913F912F910F900BBE0F900FBE0F904E
:101FB0001F9018951F920F920FB60F9211240BB617
:101FC0000F922F933F934F935F936F937F938F93D2
:101FD0009F93AF93BF93EF93FF938091300182FD66
:101FE00007C08091360166E476E10E94270F02C0A7
:101FF00080913601FF91EF91BF91AF919F918F91A9
:102000007F916F915F914F913F912F910F900BBEF8
:102010000F900FBE0F901F9018951F920F920FB642
:102020000F9211240BB60F922F933F938F939F9390
:10203000EF93FF932091DA173091DB178091DC1733
:102040009091DD172817390731F48091C1008F7DF9
:102050008093C10014C0E091DC17F091DD17E656C3
:10206000F84E20818091DC179091DD1701968F73D7
:1020700099279093DD178093DC172093C600FF917A
:10208000EF919F918F913F912F910F900BBE0F90E9
:102090000FBE0F901F9018951F920F920FB60F92C0
:1020A00011240BB60F922F933F938F939F93EF932F
:1020B000FF932091521730915317809154179091AC
:1020C00055172817390731F48091C9008F7D809307
:1020D000C90014C0E0915417F0915517EE5EF84E08
:1020E0002081809154179091551701968F739927ED
:1020F00090935517809354172093CE00FF91EF9142
:102100009F918F913F912F910F900BBE0F900FBE1B
:102110000F901F9018951F920F920FB60F921124D7
:102120000BB60F922F933F938F939F93EF93FF9351
:102130002091CA163091CB168091CC169091CD1675
:102140002817390731F48091D1008F7D8093D10019
:1021500014C0E091CC16F091CD16E657F94E2081CF
:102160008091CC169091CD1601968F7399279093FC
:10217000CD168093CC162093D600FF91EF919F91BE
:102180008F913F912F910F900BBE0F900FBE0F902C
:102190001F9018951F920F920FB60F9211240BB635
:1021A0000F922F933F938F939F93EF93FF932091E1
:1021B0004216309143168091441690914516281787
:1021C000390731F4809131018F7D8093310114C042
:1021D000E0914416F0914516EE5FF94E2081809112
:1021E00044169091451601968F7399279093451642
:1021F0008093441620933601FF91EF919F918F9128
:102200003F912F910F900BBE0F900FBE0F901F901C
:102210001895CF92DF92EF92FF920F931F93CF9377
:10222000DF93EC016A017B014115514E6105710597
:1022300009F1EC89FD8981E090E008A002C0880FD7
:10224000991F0A94E2F7808360E079E08DE390E0E3
:10225000A70196010E943F3589019A010150110999
:10226000210931093695279517950795980101158C
:102270001041A8F0EC89FD89108260E874E88EE1D5
:1022800090E0A70196010E943F35DA01C90101974C
:10229000A109B109B695A795979587959C01E889FD
:1022A000F9893083EA89FB89208319A2EE89FF89A5
:1022B000408181E090E09C010C8C02C0220F331F12
:1022C0000A94E2F7242B2083EE89FF8940819C0148
:1022D0000D8C02C0220F331F0A94E2F7242B2083B7
:1022E000EE89FF8940819C010E8C02C0220F331FB2
:1022F0000A94E2F7242B2083EE89FF8920810F8C3A
:1023000002C0880F991F0A94E2F780958223808388
:10231000DF91CF911F910F91FF90EF90DF90CF90C1
:102320000895CF92DF92EF92FF92E0EEF5E11382F3
:10233000128288EEC82E83E0D82EE12CF12CC482C4
:10234000D582E682F7826CEB72E0718360838EED5A
:1023500097E1958784878AE997E19787868785EC57
:1023600090E0918B808B84EC90E0938B828B80EC5F
:1023700090E0958B848B81EC90E0978B868B82EC40
:1023800090E0918F808F86EC90E0938F828F44E075
:10239000448F33E0358F27E0268F95E0978F81E0DB
:1023A00080A3EEEBF5E113821282C482D582E6822D
:1023B000F78271836083A6E5B7E1B587A487A2E1C0
:1023C000B7E1B787A687ADECB0E0B18BA08BACECE2
:1023D000B0E0B38BA28BA8ECB0E0B58BA48BA9ECDA
:1023E000B0E0B78BA68BAAECB0E0B18FA08FAEECBB
:1023F000B0E0B38FA28F448F358F268F978F80A345
:10240000ECE9F5E113821282C482D582E682F7827A
:1024100071836083AEECB6E1B587A487AAE8B6E124
:10242000B787A687A5EDB0E0B18BA08BA4EDB0E097
:10243000B38BA28BA0EDB0E0B58BA48BA1EDB0E087
:10244000B78BA68BA2EDB0E0B18FA08FA6EDB0E068
:10245000B38FA28F448F358F268F978F80A3EAE7A3
:10246000F5E113821282C482D582E682F7827183FB
:10247000608366E476E17587648762E076E177875A
:10248000668765E371E0718B608B64E371E0738B49
:10249000628B60E371E0758B648B61E371E0778B35
:1024A000668B62E371E0718F608F66E371E0738F1A
:1024B000628F448F358F268F978F80A3FF90EF9088
:1024C000DF90CF9008950F931F93CF93DF93EC018C
:1024D000462F61E00E943F1D882391F08E01045F2A
:1024E0001F4F41E0BE01C8010E94F522882351F030
:1024F000B801CE018A960E941B1691E081110AC094
:1025000090E008C040E0BE01C8010E94F522882387
:10251000B9F3EECF892FDF91CF911F910F910895DD
:10252000FC01DB0112968D919C911397938382831A
:102530008EED92E09183808314968C91149784831E
:1025400015968C911597858316964D915D916D9199
:102550007C91199746835783608771871A964D91AE
:102560005D916D917C911D97428753876487758734
:102570001E964D915D916D917C915197468757873D
:10258000608B718B52968C915297828B53964D91A2
:102590005D916D917C915697438B548B658B768BB7
:1025A00057964D915D916D917C915A97478B508FC5
:1025B000618F728F5B968D919C915C97948F838FC6
:1025C00008954F925F926F927F928F929F92AF92F7
:1025D000BF92CF92DF92EF92FF920F931F93CF9310
:1025E000DF93CDB7DEB7C754D1090FB6F894DEBF7D
:1025F0000FBECDBF6C015A014901665D7F4F7E0160
:102600008EE1E80EF11CC7010E9490121C821B8211
:102610008EED92E09A8389831E828501FE013196B8
:102620003F0127016FE270E0C8010E945931009715
:10263000D9F1F80120812F3219F40F5F1F4FF2CF2B
:10264000801B8D3008F08CE0E82EF12CA701B8013A
:10265000CE01CB960E946431EBE3F0E0EC0FFD1F5E
:10266000EE0DFF1D1082C3010E94971821E0AE01FC
:10267000455C5F4FB201C3010E94CB19811109C0B3
:10268000F601138212828EED92E09183808315828F
:1026900014C00E0D1F1DC2010E949718942D852D88
:1026A0002301692E782EBECF0A191B09F40111836C
:1026B0000083B201C6010E949012C601C95BDF4FC0
:1026C0000FB6F894DEBF0FBECDBFDF91CF911F9143
:1026D0000F91FF90EF90DF90CF90BF90AF909F90C1
:1026E0008F907F906F905F904F900895CF92DF9280
:1026F000FF920F931F93CF93DF93CDB7DEB7C955EA
:10270000D1090FB6F894DEBF0FBECDBF6C018A01B0
:10271000F22E9E01285A3F4FCE01CB960E94E11225
:102720006A968EAD9FAD6A97080F191FF8018081D8
:1027300081110AC0BE01655C7F4FCE0101960E94E7
:10274000901248EC52E03EC019A218A28EED92E021
:102750009F8F8E8F1BA221968FAD2197811104C070
:10276000C6010E94C91434C082502F2DA8018230A6
:1027700048F46CE478E1CE014E960E94CB198111A9
:102780000EC0EECFBE01655C7F4FCE014E960E941B
:10279000CB19882329F3CE01CB960E9497189F2D41
:1027A000967041F049A95AA96BA97CA9CE014E9611
:1027B0000E94BA17BE01625E7F4FCE0101960E9451
:1027C0009012A801BE016F5F7F4FC6010E94941452
:1027D000C601C75ADF4F0FB6F894DEBF0FBECDBF9C
:1027E000DF91CF911F910F91FF90DF90CF900895CF
:1027F000E2E2F8E1158216821186138682E090E00B
:10280000A0E0B0E084879587A687B78713A215A6B6
:1028100014A68EED92E093A782A717A60895CF93F2
:10282000DF931F92CDB7DEB76983DC01ED91FC9198
:102830000280F381E02D41E050E0BE016F5F7F4FE9
:1028400019950F90DF91CF910895CF93DF93EC010D
:10285000898D9A8D009739F481E090E09B838A837B
:1028600080E090E00BC0FC01138212820E94B91A32
:10287000E98DFA8D22813381232B71F7DF91CF917E
:102880000895FC01818D928D009711F00C945018E1
:102890000895CF93DF931F92CDB7DEB741E050E0AC
:1028A000BE016F5F7F4F0E946C16019719F48981FA
:1028B00090E002C08FEF9FEF0F90DF91CF910895CE
:1028C000FC01818D928D009711F00C9449148FEFCB
:1028D0009FEF08950F931F93CF93DF93FC01818D9A
:1028E000928D0097B9F0EF010E9449148C010F3FBF
:1028F0008FEF180791F0898D9A8DFC0142855385E1
:102900006485758541505109610971090E94BA17A2
:10291000C80105C080E090E002C08FEF9FEFDF911B
:10292000CF911F910F910895EF92FF920F931F93F4
:10293000CF93DF93EC017B018A011B821A8288EE20
:1029400093E0A0E0B0E08C839D83AE83BF838EECE8
:1029500092E0998388838DE190E00E947F0C9A8FAA
:10296000898F009779F02DE1F701DC0101900D923C
:102970002A95E1F74CE050E0B801CE010C960E9498
:102980006431188EDF91CF911F910F91FF90EF90DE
:102990000895FC011382128288EE93E0A0E0B0E07B
:1029A00084839583A683B7838EEC92E091838083A2
:1029B000128E118E148608950895FC01818D928DDA
:1029C000009711F00C94BA1780E00895DC01599635
:1029D000ED91FC915A97309729F062857385848533
:1029E000958508956FEF7FEFCB010895DC0159962F
:1029F000ED91FC915A97309729F063897489858904
:102A00009689089560E070E0CB010895CF92DF923F
:102A1000EF92FF92CF93DF93FC01218D328D232B18
:102A2000D9F0EC010E94F6146B017C01CE010E94EA
:102A3000E614A7019601261B370B480B590BDA0148
:102A4000C901811530E89307A105B10538F08FEF72
:102A50009FE7A0E0B0E002C080E090E0DF91CF917E
:102A6000FF90EF90DF90CF900895DC015996ED91A3
:102A7000FC915A97309721F081E09581911101C026
:102A800080E00895CF93DF93EC019C012A5F3F4FD4
:102A900041E050E060E070E08B8D9C8D0E948A21C7
:102AA0008823A1F08F89988DA98DBA8D892B8A2BC7
:102AB0008B2B59F48E819F81A885B9858F8B988F38
:102AC000A98FBA8F8C8180688C8381E0DF91CF9150
:102AD0000895CF92DF92EF92FF921F93CF93DF93EF
:102AE000EC010E944215811102C080E04AC0EB8DCA
:102AF000FC8DCE80DF80E884F98482E0C81AD1089A
:102B0000E108F108058404C0CC0CDD1CEE1CFF1CA0
:102B10000A94D2F786859785A089B189C80ED91EF7
:102B2000EA1EFB1E148181E0C81AD108E108F108F1
:102B3000112361F0C701B601610F711D811D911D47
:102B40000E94D91F882389F21150F2CFEB8DFC8DA2
:102B500080E092E0A0E0B0E0058404C0880F991FF7
:102B6000AA1FBB1F0A94D2F74B895C896D897E89A5
:102B7000840F951FA61FB71F8B8B9C8BAD8BBE8BB5
:102B800081E0DF91CF911F91FF90EF90DF90CF9088
:102B90000895CF93DF93EC01462F6E857F8588895A
:102BA00099890E949E1F882341F08A8920E2829F92
:102BB000C00111248C58974E02C080E090E0DF9154
:102BC000CF910895FB019B01255F3F4F40E2419368
:102BD000E217F307E1F7DC0190E027E08D9188230D
:102BE00019F18E3219F0E0E0F3E008C02A3009F163
:102BF00098E02AE0F3CF31963817D9F034913111AB
:102C0000FACF2917B0F03FED380F3E3590F431E0A0
:102C1000390FFB01E90FF11D9FE9980F9A3108F474
:102C200080528083932FDACF81E0FB019081903234
:102C300009F480E008950F931F93CF93DF93FC0175
:102C40002581222311F080E042C08B01EC01FB01C1
:102C500087898031B1F482E08D831F8A188E198EA6
:102C60001A8E808D918DA0E0B0E025E0880F991F2D
:102C7000AA1FBB1F2A95D1F78B8B9C8BAD8BBE8B6C
:102C800015C0803201F783E08D83FB01428D538DA7
:102C9000648D758D4F8B588F698F7A8F9E012D5E55
:102CA0003F4FC8010E948120882369F21C8F0B8F3F
:102CB00081E08C831E821F82188619861A861B86E5
:102CC0001C861D861E861F86188A198A1A8ADF911D
:102CD000CF911F910F9108952F923F924F925F9243
:102CE0006F927F928F929F92AF92BF92CF92DF921C
:102CF000EF92FF920F931F93CF93DF93EC015B0151
:102D00004A018D81811103C08FEF9FEFD7C08C8165
:102D100080FFFACF4B885C886D887E884A855B850A
:102D20006C857D85C401A0E0B0E093018201041BA5
:102D3000150B260B370B081719072A073B0718F442
:102D40004201841A950A24011E0126E0220E311C3C
:102D50004114510409F47EC04A855B856C857D85EC
:102D60006A0181E0D822ED818A019B0189E03695D4
:102D70002795179507958A95D1F78B8D9C8DE23015
:102D800061F4FC01828D938DA48DB58DBC01CD01C4
:102D9000600F711F821F931F3FC0FC0174807A94E3
:102DA0007022C114D104C9F4711017C0452B462BF1
:102DB000472B49F48F89988DA98DBA8D8E839F8377
:102DC000A887B9870AC04E815F816885798591019E
:102DD0000E94FD1F882309F497CFEB8DFC8D8E8117
:102DE0009F81A885B9850297A109B109058404C00E
:102DF000880F991FAA1FBB1F0A94D2F746855785D3
:102E000060897189840F951FA61FB71FBC01CD0172
:102E1000670D711D811D911D20E032E02C193D09C7
:102E200032012415350508F439012C8126FD04C032
:102E30006114F2E07F0679F500910C0210910D0209
:102E400020910E0230910F026017710782079307DD
:102E500019F421C0C40132C0750183019601AB0190
:102E6000BC0180917218909173180E94C11E882332
:102E700009F44ACFA60CB71C8A859B85AC85BD8515
:102E8000860D971DA11DB11D8A879B87AC87BD87C5
:102E9000461857085DCF40E00E949E1F882309F422
:102EA00033CFF601EC58F74ED501CF01860D971DB3
:102EB000E817F907F9F221912D93FACFDF91CF911D
:102EC0001F910F91FF90EF90DF90CF90BF90AF9048
:102ED0009F908F907F906F905F904F903F902F903A
:102EE0000895FF920F931F93CF93DF931F92CDB757
:102EF000DEB7FC012581223018F480E090E033C079
:102F00008C01FC01428553856485758585E0769545
:102F10006795579547958A95D1F7F42FFF70FF2E47
:102F200041E050E0BE016F5F7F4FC8010E946C1608
:102F3000019719F4898190E002C08FEF9FEF01960D
:102F4000E1F2F80182859385A485B5854F96A11D90
:102F5000B11D82879387A487B587F0E2FF9EC001E9
:102F600011248C58974E0F90DF91CF911F910F91A4
:102F7000FF9008958F929F92AF92BF92CF92DF926F
:102F8000EF92FF920F931F93CF93DF93EC018D810C
:102F9000811102C080E077C00B891C892D893E8990
:102FA0000417150726073707A8F36A017B0182304B
:102FB00029F4CA86DB86EC86FD860DC0C114D104D7
:102FC000E104F10451F41E821F82188619861A86C4
:102FD0001B861C861D8681E056C08A849B84AC8437
:102FE000BD84EB8DFC8D258530E0275F3F4FB5011B
:102FF000A4014150510961097109022E04C076955E
:103000006795579547950A94D2F7D701C60101975E
:10301000A109B10904C0B695A795979587952A95FA
:10302000D2F784179507A607B70720F089288A28C2
:103030008B2849F44F89588D698D7A8D4E835F8333
:103040006887798704C0841B950BA60BB70B4C01CE
:103050005D018E010A5F1F4F81149104A104B10428
:1030600009F4A7CF4E815F816885798598018B8DA2
:103070009C8D0E94FD1F91E0891A9108A108B1085A
:103080008111EACF87CFDF91CF911F910F91FF90F0
:10309000EF90DF90CF90BF90AF909F908F9008956A
:1030A0000F931F93CF93DF93EC018D818823C9F198
:1030B0008C8187FF30C061E0CE010E94C9158C0170
:1030C000892B79F18D81823048F48B899C89AD8977
:1030D000BE89F801848F958FA68FB78F8F89988DC1
:1030E000A98DBA8DF801938F828FB58BA48BE09157
:1030F0006B18F0916C18309759F0B8016A5E7F4FE9
:10310000C80148961995F801808D918D938B828B1B
:103110008C818F778C83DF91CF911F910F910C94CD
:10312000631F80E0DF91CF911F910F910895CF939E
:10313000DF93EC010E945018882311F01D8281E07A
:10314000DF91CF9108954F925F926F927F928F920D
:103150009F92AF92BF92EF92FF920F931F93CF93E4
:10316000DF9300D01F92CDB7DEB7FC01858181309F
:10317000E9F4848181FF1AC083899489A589B6897D
:1031800084179507A607B70788F0892B8A2B8B2B06
:1031900009F479C04A015B017F014284538464844D
:1031A0007584CF010E94BA17811102C080E06CC003
:1031B000F701838D948D81149104A104B10471F4FD
:1031C0004789508D618D728D0E949F22882371F3F3
:1031D000F701178A108E118E128E3AC0F7014681C0
:1031E0005781608571859E012F5F3F4F0E94FD1FB3
:1031F0008823E1F249815A816B817C81F701838DBB
:10320000948DFC012789203129F008EF1FEF2FEF63
:103210003FE004C008EF1FEF20E030E04017510707
:1032200062077307A8F40E949F22882309F4BECF87
:10323000F70146815781608571850FEF1FEF2FEFF2
:103240003FE0838D948D0E94EA20882309F4AECF5D
:10325000F701838A948AA58AB68A848180688483E8
:10326000C7010E945018882309F4A0CFB501A4011A
:10327000481459046A047B0410F4B301A201C70185
:103280000E94BA1701C081E00F900F900F900F902D
:10329000DF91CF911F910F91FF90EF90BF90AF9072
:1032A0009F908F907F906F905F904F9008951F93A5
:1032B000CF93DF93EC0180E2689FF00111249F011E
:1032C0002C58374ED9011B969C91917129F0842F6F
:1032D000827411F080E05BC0142F6A8B80910C0225
:1032E00090910D02A0910E02B0910F028E879F87E0
:1032F000A88BB98BEC58F74E4489558960E070E093
:10330000BA01552744274F8B588F698F7A8F828D4A
:10331000938DA0E0B0E0482B592B6A2B7B2B4F8B71
:10332000588F698F7A8FD9011B968C91887151F4CF
:10333000848D958DA68DB78D8B8B9C8BAD8BBE8B25
:1033400081E00DC0803131F69E012D5E3F4F8B8DA7
:103350009C8D0E948120882309F4BCCF84E08D835A
:10336000812F8F708C831E821F82188619861A8681
:103370001B861C861D8616FF09C040E050E0BA017E
:10338000CE01DF91CF911F910C94A31881E0DF91C2
:10339000CF911F910895CF92DF92EF92FF920F93FA
:1033A0001F93CF93DF93CDB7DEB72C970FB6F8946A
:1033B000DEBF0FBECDBFFC0135813111C2C0D22EA0
:1033C0008B017C01BE016F5F7F4FCA010E94E21535
:1033D000882309F4B6C0F801838D948DF701948F8A
:1033E000838FF80116821782108611861286138643
:1033F0001486158630E0F80182859385A485B5850D
:10340000438954896589768984179507A607B70784
:1034100008F041C025E0B695A795979587952A9520
:10342000D1F7F82FFF70CF2EC8013C870E9471178B
:103430003C85009709F485C0FC012081222309F412
:1034400084C0253E99F04BE050E0BC01CE010196CE
:103450003C870E944C313C85892B69F68D2D807309
:10346000803309F46EC04D2D6C2D67C031116BC0D7
:10347000F701C28A40910C0250910D0260910E0238
:1034800070910F0246875787608B718BFC0180819A
:1034900031E08111B0CF8D2D8271823109F051C0A0
:1034A000332341F061E0C7010E94C9158C01892BCB
:1034B00079F447C0F8018581823009F442C0C8011F
:1034C0000E9469158823E9F1F701128A04E718E1DF
:1034D00080E2F80111928A95E9F78BE0FE013196BE
:1034E000D80101900D928A95E1F7E0916B18F09167
:1034F0006C18309739F0B801625F7F4FC801409671
:10350000199509C081E298E2F801918B808B80E0E7
:1035100098E097878687F80180899189938B828BC1
:10352000918F808F86859785978B868B0E94631FEE
:10353000882339F04D2DF7016289C7010E94571980
:1035400009C080E007C031E056CF332309F490CFA3
:1035500031E0A1CF2C960FB6F894DEBF0FBECDBFE1
:10356000DF91CF911F910F91FF90EF90DF90CF905F
:1035700008952F923F924F925F926F927F928F9217
:103580009F92AF92BF92CF92DF92EF92FF920F93F2
:103590001F93CF93DF9300D01F92CDB7DEB78C017E
:1035A0006B013A01DC0115968C9115978130C9F4B5
:1035B00014968C9181FF15C082FF1DC0F8014389CC
:1035C00054896589768982859385A485B585841714
:1035D0009507A607B70779F0C8010E94BA178111AD
:1035E0000AC081E090E0D80113969C938E931297C5
:1035F00080E090E048C1430184C0D8015B968D9182
:103600009C915C97FC0154802FEF250D1A012B0132
:1036100039E056944794379427943A95D1F7522E2F
:1036200052207A01F1E0FF22552009F476C080E0B3
:1036300092E08E199F0954018815990508F45C01E0
:10364000D8015B962D913C915C9716968D919D913A
:103650000D90BC91A02D0297A109B109F901058433
:1036600004C0880F991FAA1FBB1F0A94D2F7468572
:10367000578560897189840F951FA61FB71F9C010C
:10368000AD01250D311D411D511D19012A01A11446
:1036900032E0B30609F088C080910C0290910D02CF
:1036A000A0910E02B0910F0282159305A405B505F5
:1036B00059F48FEF9FEFDC0180930C0290930D0281
:1036C000A0930E02B0930F029601B201A101809166
:1036D0007218909173180E94151F882309F481CFE6
:1036E0009EEFD91A8A189B08F80182859385A485D4
:1036F000B5858A0D9B1DA11DB11D82879387A48767
:10370000B587D8011A964D915D916D917C911D9769
:103710008114910409F071CF87C0E114F10409F01C
:1037200086CF16964D915D916D917C9119974115BB
:1037300051056105710559F457968D919D910D9034
:10374000BC91A02D0097A105B10541F521C09E01B6
:103750002F5F3F4F0E94FD1F882309F44ACF8981C4
:103760009A81AB81BC81F801238D348DF9012789C1
:10377000203129F048EF5FEF6FEF7FE004C048EFA2
:103780005FEF60E070E084179507A607B70730F099
:10379000C8010E94421581114ACF23CFF8018683C8
:1037A0009783A087B18743CFE114F10429F5D801AD
:1037B0001A964D915D916D917C911D9753968D91C7
:1037C0009D910D90BC91A02D481759076A077B0762
:1037D00098F00E94631F882309F403CF20920C0203
:1037E00030920D0240920E0250920F028091711899
:1037F00081608093711808C041E0C201B1010E944C
:103800009E1F882309F4EDCED601F701EC58F74E40
:10381000CF018A0D9B1DE817F90719F02D9121930F
:10382000FACFCA0CDB1C5ECF5396CD90DD90ED90A5
:10383000FC90569714968C91C416D506E606F706AA
:1038400040F4F801438B548B658B768B80688483BE
:103850000DC020916B1830916C18232B39F0611436
:10386000710421F08068D80114968C93F80184814A
:1038700083FD02C0C30107C0C8010E9450188823FD
:1038800009F4AFCEF7CF0F900F900F900F90DF910C
:10389000CF911F910F91FF90EF90DF90CF90BF904D
:1038A000AF909F908F907F906F905F904F903F90E0
:1038B0002F900895CF93DF931F92CDB7DEB7698322
:1038C00041E050E0BE016F5F7F4F0E94B91A0F9038
:1038D000DF91CF9108958EBD0DB407FEFDCF089501
:1038E0008FEF0E946B1C8EB5089561E0FC0184810E
:1038F0000C944F0C60E0FC0184810C944F0CCF932E
:10390000DF93FC0186818823D1F08FEF8EBD4FEFCE
:10391000878190859C012F5F3F4F308727838130BF
:10392000924028F40DB407FEFDCF4EBDF1CF0DB48B
:1039300007FEFDCFEF01CF010E94751C1E82DF91B3
:10394000CF910895673028F026E1FC01258380E0BF
:1039500008958DB560FD02C0663011F48E7F01C000
:1039600081608DBD8CB58C7F8CBD9CB562FD02C025
:1039700080E001C082E066956170692B862B8CBD6A
:1039800081E008950F931F93CF93DF93EB010E9483
:10399000E30A8B010E94701C8F3F49F00E94E30AEA
:1039A000601B710B6C177D07A8F380E001C081E0FC
:1039B000DF91CF911F910F910895CF92DF92FF92E7
:1039C0000F931F93CF93DF9300D01F92CDB7DEB735
:1039D0006C01F62E29833A834B835C830E947F1C03
:1039E000C6010E947A1C6CE271E0C6010E94C21CF2
:1039F0008F2D80640E946B1C08E110E05C814B817C
:103A00003A812981DA01C901002E04C0B695A79533
:103A1000979587950A94D2F729833A834B835C83E1
:103A20000E946B1C0850110929813A814B815C81ED
:103A3000083F8FEF180731F7FF2029F0E8E0FE126A
:103A400004C087E803C085E901C08FEF0E946B1CAA
:103A500010E00E94701CF601828787FF04C01F3FA0
:103A600011F01F5FF6CF0F900F900F900F90DF9126
:103A7000CF911F910F91FF90DF90CF9008958F927B
:103A80009F92AF92BF92EF92FF920F931F93CF93AB
:103A9000DF93EC01E62E1B8619861E821D824C8365
:103AA0000E94E30A8B0161E08C810E94130CCE011D
:103AB0000E94751C60E082E30E94130C61E083E3C6
:103AC0000E94130C61E084E30E94130C61E085E323
:103AD0000E94130C61E085E30E944F0C83E58CBDCE
:103AE0008DB58E7F8DBD2AE0F22E8FEF0E946B1C6C
:103AF000FA94F110FACFCE010E947A1C20E030E057
:103B0000A90160E0CE010E94DD1CF82E8A8781E0C9
:103B1000F81649F00E94E30A601B710B613D774083
:103B200068F381E04CC02AEA31E040E050E068E010
:103B3000CE010E94DD1C82FF02C0FB860EC094E015
:103B4000F92E0E94701C8A87FA94F110FACF8A3AF3
:103B500011F082E034C082E08B878B85823021F0C7
:103B6000812C912C540105C0812C912CA12C80E436
:103B7000B82E20E030E0A90167E3CE010E94DD1CF1
:103B8000A501940169E2CE010E94DD1C8A87882389
:103B900049F00E94E30A601B710B613D774048F3D6
:103BA00088E00DC08B85823039F520E030E0A90136
:103BB0006AE3CE010E94DD1C882389F086E08D83B4
:103BC000CE010E94751C80E0DF91CF911F910F9173
:103BD000FF90EF90BF90AF909F908F9008950E94BC
:103BE000701C807C803C11F483E08B870E94701CE9
:103BF0000E94701C0E94701CCE010E94751C6E2DCC
:103C0000CE01DF91CF911F910F91FF90EF90BF9068
:103C1000AF909F908F900C94A21C0F931F93CF9303
:103C2000DF93EC010E94E30A8B010E94701C8A87DB
:103C30008F3F49F40E94E30A601B710B6D327140A3
:103C4000A0F38FE003C08E3F39F08DE08D83CE016D
:103C50000E94751C80E001C081E0DF91CF911F912F
:103C60000F910895CF92DF92EF92FF920F931F93DF
:103C7000CF93DF93EC016901C801820F931F81305C
:103C8000924008F06FC08E81882371F088819981FD
:103C9000AA81BB81481759076A077B0729F48F81DE
:103CA0009885C816D90618F5488359836A837B839B
:103CB0008B85833039F089E0440F551F661F771FCD
:103CC0008A95D1F79A01AB0161E1CE010E94DD1C1A
:103CD000882319F083E08D8345C0CE010E940D1E1C
:103CE000882309F43FC018861F8281E08E838FEFFE
:103CF0008EBD2FEF8F8198858C159D0550F40DB4E6
:103D000007FEFDCF2EBD8F819885019698878F8302
:103D1000F1CFC8010197F7014FEF9F012E193F091D
:103D20002817390738F40DB407FEFDCF2EB52193BF
:103D30004EBDF3CF0DB407FEFDCF2EB5F701E80F52
:103D4000F91F20838F819885080F191F18870F830B
:103D50008985882319F00115124048F0CE010E9490
:103D60007F1C05C0CE010E94751C80E001C081E06F
:103D7000DF91CF911F910F91FF90EF90DF90CF9047
:103D80000895EF92FF920F931F930115110519F0FB
:103D90000E94321E01C081E01F910F91FF90EF90B1
:103DA0000895EF92FF920F931F93790100E012E0C4
:103DB00020E030E00E94321E1F910F91FF90EF90A3
:103DC0000895CF93DF93EC016EBD20E030E00DB499
:103DD00007FEFDCFFA01E20FF31F80818EBD0DB407
:103DE00007FEFDCF81818EBD2E5F3F4F211582E002
:103DF000380769F70DB407FEFDCF8FEF0E946B1CEB
:103E00008FEF0E946B1C0E94701C8A87982F9F71F5
:103E1000953039F081E18D83CE010E94751C80E0E0
:103E200001C081E0DF91CF9108950F931F93CF934D
:103E3000DF93EC018901411551056105710511F40C
:103E400082E132C08B85833039F089E0440F551F01
:103E5000661F771F8A95D1F79A01AB0168E1CE0101
:103E60000E94DD1C882311F084E01EC0A8016EEFC3
:103E7000CE010E94E11E8823C1F068E572E0CE0108
:103E80000E94C21C811102C085E10EC020E030E01A
:103E9000A9016DE0CE010E94DD1C811104C00E94C9
:103EA000701C882339F084E18D83CE010E94751C3B
:103EB00080E004C0CE010E94751C81E0DF91CF91AB
:103EC0001F910F910895809171188823A9F1409155
:103ED0000C0250910D0260910E0270910F0224E7C6
:103EE00038E180917218909173180E94151F81110A
:103EF00002C080E0089540916D1850916E18609155
:103F00006F1870917018411551056105710591F098
:103F100024E738E180917218909173180E94151F60
:103F2000882339F310926D1810926E1810926F1842
:103F3000109270181092711881E00895CF92DF925C
:103F4000EF92FF92CF936B017C01C42F80910C0202
:103F500090910D02A0910E02B0910F028C159D055B
:103F6000AE05BF05D1F00E94631F811102C080E041
:103F70001AC024E738E1B701A60180917218909128
:103F800073180E94D11E882391F3C0920C02D09224
:103F90000D02E0920E02F0920F0280917118C82B70
:103FA000C093711881E0CF91FF90EF90DF90CF9098
:103FB0000895CF92DF92EF92FF926B017C010E94F5
:103FC000631F8823A9F0E4E7F8E111928AE1E4375E
:103FD000F807D9F7C0920C02D0920D02E0920E02BF
:103FE000F0920F028091711881608093711881E0C6
:103FF000FF90EF90DF90CF9008958F929F92AF92B5
:10400000BF92CF92DF92EF92FF920F931F93CF93C5
:10401000DF93FC0181859285A385B4850196A11D5E
:10402000B11D84179507A607B70710F480E05CC0A0
:1040300083899489A589B689C789C03129F4852ED9
:10404000962EA72EBB2409C04A015B01C7E0B69497
:10405000A79497948794CA95D1F7E9016A017B01E7
:104060008F01BC01CD01680D791D8A1D9B1D8090BB
:104070000C0290900D02A0900E02B0900F026815F5
:1040800079058A059B0599F4F80187898031A9F49F
:10409000B701A601552766277727440F551FFA0158
:1040A000EC58F74E80819181A0E0B0E018C040E06C
:1040B0000E949E1F8111E8CFB9CFB701A6014F77AB
:1040C000552766277727440F551F440F551FFA01C0
:1040D000EC58F74E80819181A281B381BF708883B3
:1040E0009983AA83BB8381E0DF91CF911F910F91C8
:1040F000FF90EF90DF90CF90BF90AF909F908F9008
:1041000008954F925F926F927F92AF92BF92CF923B
:10411000DF92EF92FF920F931F93CF93DF9300D024
:104120001F92CDB7DEB78C0149835A836B837C83A2
:104130005901C12CD12C7601412C82E0582E612CE2
:10414000712C49815A816B817C819E012F5F3F4F89
:10415000C8010E94FD1F882351F1D301C201F8015B
:10416000058404C0880F991FAA1FBB1F0A94D2F7A9
:10417000C80ED91EEA1EFB1E49815A816B817C81C3
:104180008789803129F088EF9FEFAFEFBFE004C04F
:1041900088EF9FEFA0E0B0E0481759076A077B0758
:1041A00080F2F501C082D182E282F38281E00F9039
:1041B0000F900F900F90DF91CF911F910F91FF9073
:1041C000EF90DF90CF90BF90AF907F906F905F9017
:1041D0004F9008954F925F926F927F928F929F922D
:1041E000AF92BF92CF92DF92EF92FF920F931F9305
:1041F000CF93DF93EC016A017B0128013901423042
:1042000051056105710510F480E073C089859A85B8
:10421000AB85BC850196A11DB11D84179507A60726
:10422000B70790F38B889C88AD88BE888F898031D2
:1042300029F4BB27AF2D9E2D8D2D09C0DB01CA01AE
:1042400047E0B695A795979587954A95D1F7880E3B
:10425000991EAA1EBB1E80910C0290910D02A09186
:104260000E02B0910F0288169906AA06BB0679F4D1
:104270008F898031A1F4DD24EE24FF24C601880F4C
:10428000991FFC01EC58F74E5182408219C040E062
:10429000C501B4010E949E1F8111EACFB5CFE894F9
:1042A000C7F8DD24EE24FF24C601880F991F880F6C
:1042B000991FFC01EC58F74E408251826282738252
:1042C000809171188160809371188A89823080F0A2
:1042D0008D819E81AF81B885880E991EAA1EBB1E56
:1042E00080926D1890926E18A0926F18B09270180C
:1042F00081E0DF91CF911F910F91FF90EF90DF90C0
:10430000CF90BF90AF909F908F907F906F905F9075
:104310004F9008952F923F924F925F926F927F92AB
:104320009F92AF92BF92CF92DF92EF92FF920F9344
:104330001F93CF93DF93CDB7DEB760970FB6F89496
:10434000DEBF0FBECDBF5C0149875A876B877C8774
:104350001901D901CD90DD90ED90FC90C114D104EC
:10436000E104F10431F0BFEFCB1ADB0AEB0AFB0AE0
:1043700010C0FC01C080D180E280F3809924939426
:1043800009851A852B853C850130110521053105EC
:1043900009F0912CF50181859285A385B4858C0166
:1043A0009D010F5F1F4F2F4F3F4F0D871E872F8798
:1043B000388B260137011D821E821F821886F50167
:1043C00081859285A385B4850D811E812F813885D5
:1043D000081719072A073B0708F056C02D853E85A8
:1043E0004F855889241535054605570550F482E058
:1043F000482E512C612C712C92E0C92ED12CE12C2D
:10440000F12C9E012F5F3F4FB301A201C5010E9415
:10441000FD1F8823C9F149815A816B817C81D301B9
:10442000C2010196A11DB11D452B462B472B19F04A
:104430006C017D010FC0AC01BD014C195D096E0915
:104440007F0909851A852B853C854017510762072E
:10445000730779F02D813E814F8158852F5F3F4F43
:104460004F4F5F4F2D833E834F8358872C013D0173
:10447000A6CF0FEF1FEF2FEF3FE0B301A201C50161
:104480000E94EA20811118C080E041C0D301C2011E
:104490000197A109B1098D839E83AF83B8879301EA
:1044A0008201AC01BD01C5010E94EA20882361F3AD
:1044B0004D805E806F807884C414D504E604F704D0
:1044C00028F3D1014D915D916D917C91411551057C
:1044D0006105710599F4F101C082D182E282F38213
:1044E0009920A1F0FFEFCF1ADF0AEF0AFF0AD501EA
:1044F000CD92DD92ED92FC92139708C09701860150
:10450000C5010E94EA208111E6CFBECF81E060960E
:104510000FB6F894DEBF0FBECDBFDF91CF911F91D4
:104520000F91FF90EF90DF90CF90BF90AF909F9052
:104530007F906F905F904F903F902F900895AF9233
:10454000BF92CF92DF92EF92FF920F931F93CF9380
:10455000DF9300D01F92CDB7DEB75C016A017B010B
:1045600082E090E0A0E0B0E0F50180839183A28337
:10457000B3839E012F5F3F4FB701A601C5010E9483
:10458000FD1F882311F100E010E09801B701A6019A
:10459000C5010E94EA208823C1F0C980DA80EB803F
:1045A000FC80F5018789803129F088EF9FEFAFEF1C
:1045B000BFE004C088EF9FEFA0E0B0E0C816D906C6
:1045C000EA06FB06B0F281E001C080E00F900F9098
:1045D0000F900F90DF91CF911F910F91FF90EF906F
:1045E000DF90CF90BF90AF9008958F929F92AF923F
:1045F000BF92CF92DF92EF92FF920F931F93CF93D0
:10460000DF93EC01142F7093731860937218442396
:1046100069F1453010F080E0F2C040E060E070E009
:10462000CB010E949E1F8823B1F320E1129FA001BD
:1046300011244C59574EFA01E254FE4F80818F7776
:1046400051F73C9680819181A281B3818436910596
:10465000A105B10500F33497C080D180E280F380DA
:10466000C114D104E104F10421F4D5CFC12CD12C23
:10467000760140E0C701B6010E949E1F882359F2CF
:1046800080917F18909180188115924021F6909129
:104690008418992309F4BFCF209182183091831890
:1046A000232B09F4B8CF80918118882309F4B3CF64
:1046B0009A8B8C831D8690E061E070E02D85E22F5F
:1046C000AB01022E02C0440F551F0A94E2F7841773
:1046D000950731F031E0320F3D87283078F39BCFDA
:1046E00020918A1830918B182115310519F040E07E
:1046F00050E008C0209198183091991840919A186C
:1047000050919B182D833E834F8358878091821848
:104710009091831846015701880E991EA11CB11C67
:104720008B8A9C8AAD8ABE8A009185181091861862
:10473000198F088FA0918418B0E00E948735860EEB
:10474000971EA81EB91E8A8E9B8EAC8EBD8E85E0EC
:10475000000F111F8A95E1F701501E4F012F1127FD
:104760000695800E911EA11CB11C8E869F86A88A7C
:10477000B98A20918718309188182115310521F0C8
:10478000A90160E070E008C040919418509195181C
:104790006091961870919718D701C60188199909E8
:1047A000AA09BB09840F951FA61FB71F04C0B695A1
:1047B000A79597958795EA95D2F789879A87AB87CA
:1047C000BC87853F2FE09207A105B10510F48CE06E
:1047D00014C0853F9F4FA105B10510F480E10DC0C5
:1047E0008091A0189091A118A091A218B091A3183F
:1047F0008A8F9B8FAC8FBD8F80E28F8B81E0DF91A2
:10480000CF911F910F91FF90EF90DF90CF90BF90CD
:10481000AF909F908F9008952F923F924F925F920A
:104820006F927F928F929F92AF92BF92CF92DF92C0
:10483000EF92FF920F931F93CF93DF9300D0CDB7EA
:10484000DEB74C017B836A836A0159011701980125
:10485000241B350B37FF03C0319521953109C50164
:104860004A815B81841B950B97FF03C091958195CD
:10487000910951E059838217930714F019820BC0F4
:104880009A2D8B2D5801092F182F9A818B81DB824D
:10489000CA82C92ED82E8A819B81A816B9065CF4DB
:1048A0009C2D8D2D6801092F182F9A818B81BB8239
:1048B000AA82A92EB82E2501AA81BB814A1A5B0AB9
:1048C00038016C187D0877FE03C0719461947108FB
:1048D000720157FE03C0BFEFEB1AFB0AF594E79491
:1048E000C016D1061CF00FEF1FEF1FC001E010E053
:1048F0001CC0D401ED91FC91B9810084F185E02DBB
:104900009101BB23C1F04A815B81B601C4011995B5
:10491000E618F708F7FE04C0C00ED11EE40CF51C23
:10492000EA81FB813196FB83EA834A815B81A4168D
:10493000B506FCF604C0A6016A817B81E7CF0F9023
:104940000F900F90DF91CF911F910F91FF90EF90FB
:10495000DF90CF90BF90AF909F908F907F906F909F
:104960005F904F903F902F9008950895DC01ED9156
:10497000FC910480F581E02D19940F931F93DC01C5
:10498000ED91FC91008CF18DE02D19951F910F9107
:1049900008950F931F93DC01ED91FC91028CF38D30
:1049A000E02D19951F910F910895EF92FF920F93AB
:1049B0001F93DC01ED91FC91048CF58DE02D199590
:1049C0001F910F91FF90EF9008950895AF92BF92BD
:1049D000CF92DF92EF92FF920F931F93CF93DF93CB
:1049E00000D01F92CDB7DEB75C016901DC01ED910B
:1049F000FC910680F781E02D4B835C8369837A8389
:104A00001995D501ED91FC914B815C81C40ED51EA9
:104A1000B1E0CB1AD1080088F189E02D7801860138
:104A200069817A819B01C5011995D501ED91FC91B0
:104A30000288F389E02DC5010F900F900F900F9021
:104A4000DF91CF911F910F91FF90EF90DF90CF906A
:104A5000BF90AF901994AF92BF92CF92DF92EF9236
:104A6000FF920F931F93CF93DF9300D01F92CDB788
:104A7000DEB75C016901DC01ED91FC910680F781F4
:104A8000E02D4B835C8369837A831995D501ED9181
:104A9000FC9169817A819B012C0D3D1D21503109CA
:104AA0000088F189E02D78014B815C818A01C50184
:104AB0001995D501ED91FC910288F389E02DC5018E
:104AC0000F900F900F900F90DF91CF911F910F914A
:104AD000FF90EF90DF90CF90BF90AF9019944F92DE
:104AE0005F926F927F928F929F92AF92BF92CF927E
:104AF000DF92EF92FF920F931F93CF93DF931F925A
:104B00001F92CDB7DEB76C015A0139014801DC01B3
:104B1000ED91FC910680F781E02D69837A831995E8
:104B20006981462E7A81572E640C751CD601ED9151
:104B3000FC91461457046CF40484F585E02D87013C
:104B40009401A501B201C6011995BFEF4B1A5B0A8A
:104B5000EDCF0288F389E02DC6010F900F90DF9111
:104B6000CF911F910F91FF90EF90DF90CF90BF906A
:104B7000AF909F908F907F906F905F904F9019941F
:104B8000EF92FF920F931F93DC01ED91FC9111972F
:104B90001A960D911C911B9718962D913C9119977F
:104BA000048CF58DE02D7B0140E050E060E070E08A
:104BB00019951F910F91FF90EF900895CF92DF927A
:104BC000EF92FF920F931F93CF93DF9300D000D00B
:104BD000CDB7DEB76C01DC01ED91FC916217730774
:104BE00089F4041715072CF4942F852FA801092F99
:104BF000182F041B150B98012F5F3F4F008CF18D70
:104C0000E02D12C04017510709F5261737072CF47D
:104C1000962F872FB901292F382F261B370B2F5F8F
:104C20003F4F028CF38DE02D8701C6011995269622
:104C30000FB6F894DEBF0FBECDBFDF91CF911F91AD
:104C40000F91FF90EF90DF90CF9008950680F7814D
:104C5000E02D2D833E834B835C8369837A83199592
:104C6000D601ED91FC910088F189E02D2D813E81E6
:104C70004B815C8169817A81C6011995D601ED91DC
:104C8000FC910288F389E02DC60126960FB6F894B0
:104C9000DEBF0FBECDBFDF91CF911F910F91FF906F
:104CA000EF90DF90CF9019946F927F928F929F92A6
:104CB000AF92BF92CF92DF92EF92FF920F931F932A
:104CC000CF93DF93EC014B015A0169013801E88170
:104CD000F9810680F781E02D1995E881F981068434
:104CE000F785E02D87019601A501B401CE01199544
:104CF000E881F981A501460D571D415051090684EF
:104D0000F785E02D9601B401CE011995E881F9816E
:104D10000484F585E02D9301A501B401CE01199518
:104D2000E881F981C80CD91CB6016150710904846D
:104D3000F585E02D9301A501CE011995E881F98152
:104D40000288F389E02DCE01DF91CF911F910F9161
:104D5000FF90EF90DF90CF90BF90AF909F908F909B
:104D60007F906F9019940895FC016370658B848126
:104D7000958126813781613039F0633029F0918740
:104D8000808733872287089531872087938782879A
:104D90000895FC011382128286EE92E09183808353
:104DA00075836483578346837187608753874287FF
:104DB000158A158614861786168681E0848B2FEF58
:104DC0003FEF338B228B318B208B868B178A118E92
:104DD000108E08952F923F924F925F926F927F9222
:104DE0008F929F92AF92BF92CF92DF92EF92FF92FB
:104DF0000F931F93CF93DF93CDB7DEB728970FB6EE
:104E0000F894DEBF0FBECDBF5C013B014A0138877D
:104E10002F83FC82EB8281E090E02C01421A530A3E
:104E2000C9019195819591099C01220F331F3A8305
:104E30002983170133E0230E311CEE24E394F12C77
:104E4000802F81708D8302700E83C7010197EF81DF
:104E5000F8858E179F070CF078C057FC0CC0AF8107
:104E6000B8851197B887AF83E981FA813296FA83C2
:104E7000E9834E0E5F1EC701880F991F0196480EE9
:104E8000591EFD81FF2359F1D501ED91FC912F8130
:104E90003885220F331F2F5F3F4F8B819C81280F56
:104EA000391F0484F585E02D8601A401AF81B88502
:104EB0004A1B5B0BB701660D771DC5011995D5011E
:104EC000ED91FC910484F585E02D9101A4014E192A
:104ED0005F096F817885660D771DC5011995BE81C3
:104EE000BB2361F1D501ED91FC912F813885220F13
:104EF000331F2F5F3F4F8B819C81280F391F048404
:104F0000F585E02D8601A401AF81B8854A1B5B0BB6
:104F1000B3016E197F09C5011995D501ED91FC9179
:104F20000484F585E02D9101A4014E195F09B301B8
:104F30008F819885681B790BC50119959FEFE91A38
:104F4000F90AA2E02A0E311C80CF28960FB6F894F9
:104F5000DEBF0FBECDBFDF91CF911F910F91FF90AC
:104F6000EF90DF90CF90BF90AF909F908F907F9009
:104F70006F905F904F903F902F9008956F927F9227
:104F80008F929F92AF92BF92CF92DF92EF92FF9259
:104F90000F931F93CF93DF93EC014B013A0159011B
:104FA0006801E881F9810680F781E02D1995E88193
:104FB000F9819501220F331F2F5F3F4FA3014A193B
:104FC0005B090484F585E02DB401CE011995E12C2F
:104FD000F12C03E09501A301B401CE010E94EA2661
:104FE000E881F9810288F389E02DCE01DF91CF912C
:104FF0001F910F91FF90EF90DF90CF90BF90AF90F7
:105000009F908F907F906F9019942F923F924F9224
:105010005F926F927F928F929F92AF92BF92CF9248
:10502000DF92EF92FF920F931F93CF93DF93CDB751
:10503000DEB76C970FB6F894DEBF0FBECDBF9C8F66
:105040008B8F5B011A011F830E833701C982DC013C
:1050500058964D915C9159974115510509F0E5C05D
:1050600018968D919C911997681779070CF0CAC111
:105070001A968D919C911B97281639060CF0C2C187
:105080008C2C912CFB0136E0C39EE00DF11D112408
:10509000FB87EA871E161F060CF0B4C1C40133E07B
:1050A000880F991F3A95E1F79D878C87820D931D94
:1050B000181619060CF0A6C157968C91811103C0E1
:1050C000203B08F02F5FAB8DBC8DED91FC911197CB
:1050D0000680F781E02DCD012A8F19952A8DB5E044
:1050E0002B9F90011124F5013596FF87EE8725014E
:1050F000BB82AA82A9014A195B09598B488BC1015D
:1051000008969B8B8A8BE889F989E40DF51DE05F91
:10511000FC4F949198873D822C826101A885A0FF65
:1051200013C0AB8DBC8DED91FC91B981B13031F4E0
:105130000084F185E02D2E813F8116C00284F38525
:10514000E02DEE80FF801AC0EE81FF816E167F0693
:10515000F1F0AB8DBC8DED91FC91B981B13051F482
:105160000084F185E02D9301A601B2018B8D9C8D09
:1051700019950DC00284F385E02D7301840194011B
:105180004C815D816A817B818B8D9C8D1995E88531
:10519000E695E8872C813D81280D391D3D832C83C0
:1051A0003FEFC31AD30A4A895B89C416D50609F0B2
:1051B000B5CF8A819B81880D991D9B838A839FEF40
:1051C000491A590AAE85BF854A165B0609F09BCF7E
:1051D000EE81FF816E167F0609F4F2C0EB8DFC8D27
:1051E000A081B181F981F13079F4B5016B5F7F4F16
:1051F0001C96ED91FC911D97830128E030E0A10100
:105200008B8D9C8D1995DCC06A857B856819790921
:105210001A96ED91FC911B9773010C851D859401E5
:10522000A1018B8D9C8D1995CBC0FA013496949178
:10523000329765917491291BCB01B7E02B9F800DAC
:10524000911D1124FA01259134913B8B2A8BFC018D
:10525000459154915B834A83FC013296C490319608
:1052600054915C87329614913196D4908981823022
:1052700058F0612E012E000C7708AD2D0D2C000C7E
:10528000BB0BB987A88704C019861886612C712CBE
:10529000AB8DBC8DED91FC9111970680F781E02DCF
:1052A000CD011995B9818B2E912C689CC001699C08
:1052B000900D789C900D1124FC01EA0DFB1DF98BDB
:1052C000E88B1C82712C612CE12F110FFF0B9501D3
:1052D0002E0F3F1F3B872A87AC0CB11CA5014E0F38
:1052E0005F1F5F8B4E8BC1018D0D911DD7FC9A9571
:1052F000998F888F4C85641608F062C0862D90E0E7
:1053000048855985480F591F489D9001499D300D8A
:10531000589D300D1124D901A20DB31DBF87AE8752
:10532000AA84BB8448885988DC80BA85DB1AE88D5A
:10533000F98DE80FF91FFD8BEC8B8D2D8A0D2E89D1
:105340003F89A216B306B9F1877061F48A819B8107
:105350000196EA89FB89AA81BB81EA0FFB1F749041
:105360009B838A8377FE20C0AB8DBC8DED91FC9131
:10537000B981B13061F40084F185E02D2E813F8147
:105380004C895D89B5018B8D9C8D19950DC002846A
:10539000F385E02DEE80FF80840194014E855F85CA
:1053A000B2018B8D9C8D1995770C480C591CEFEF31
:1053B000AE1ABE0AC2CF3C813C0D3C8363949ACFA7
:1053C000AB8DBC8DED91FC9111970288F389E02D96
:1053D000CD016C960FB6F894DEBF0FBECDBFDF9146
:1053E000CF911F910F91FF90EF90DF90CF90BF90E2
:1053F000AF909F908F907F906F905F904F903F9075
:105400002F9019946C960FB6F894DEBF0FBECDBFE7
:10541000DF91CF911F910F91FF90EF90DF90CF9090
:10542000BF90AF909F908F907F906F905F904F90C4
:105430003F902F900895AF92BF92CF92EF92FF923C
:105440000F931F93CF93DF93EC01262F888D998DB7
:10545000009709F040C06A3059F41D861C862C89DB
:105460008E859F8538E0239F800D911D112441C0BA
:105470006D3009F4AAC08E898823C1F03C898C85DF
:105480009D8546E0349F800D911D112448855985E6
:10549000481759075CF41D861C868E859F8548E059
:1054A000349F800D911D11249F878E87EA88FB8889
:1054B000088919894E855F856C857D85CC88CE01EC
:1054C0000E9405282C898C859D8536E0239F800DC0
:1054D000911D112442C06A3079F41D861C862C89E6
:1054E000FC013696E4918E859F852E9F800D911D3F
:1054F00011249F878E8769C06D3009F466C0FC0156
:1055000034963491631708F460C03196E491E6173D
:1055100008F45BC0FC013296A590B490462F50E091
:10552000431B510937E0349FB001359F700D1124A2
:10553000A60EB71EF501329634913196E4913323CD
:1055400011F0E1110DC0F5013496E4912C898C85A0
:105550009D85E29F800D911D11249D878C8735C00C
:10556000F501359644915E89552311F16C89E32F3D
:10557000F0E0E40FF11D47FDFA956E9FD0016F9F9B
:10558000B00D11244C855D854A0F5B1FE885F985B8
:10559000E417F5076CF41D861C86FC013696E49131
:1055A0008E859F856E9F800D911D11249F878E870C
:1055B000EA88FB88088919894E855F856C857D8519
:1055C000CC88CE010E940528BECF81E090E0DF911B
:1055D000CF911F910F91FF90EF90CF90BF90AF9020
:1055E0000895DC019C96ED91FC919D979081D19658
:1055F0008C91892B80830895EF92FF920F931F93D4
:10560000DC01ED91FC910284F385E02D78018901A4
:1056100021E030E019951F910F91FF90EF900895D0
:10562000EF92FF920F931F93DC01ED91FC910284A6
:10563000F385E02D780101E010E019951F910F919D
:10564000FF90EF9008950F931F93CF93DF9300D0B7
:1056500000D0CDB7DEB78C01DC01ED91FC91068066
:10566000F781E02D2D833E834B835C8369837A83AE
:105670001995D801ED91FC910084F185E02D2D81E3
:105680003E814B815C8169817A81C8011995D8017D
:10569000ED91FC910288F389E02DC80126960FB6A2
:1056A000F894DEBF0FBECDBFDF91CF911F910F9158
:1056B0001994EF92FF920F931F93CF93DF9300D033
:1056C00000D0CDB7DEB77C01DC01ED91FC91068006
:1056D000F781E02D2D833E834B835C8369837A833E
:1056E0001995D701ED91FC910484F585E02D2D816C
:1056F0003E814B815C8169817A81C7011995D7010F
:10570000ED91FC910288F389E02DC70126960FB632
:10571000F894DEBF0FBECDBFDF91CF911F910F91E7
:10572000FF90EF901994EF92FF920F931F93CF93F6
:10573000DF9300D000D0CDB7DEB77C01DC01ED9166
:10574000FC910680F781E02D2D833E834B835C83A3
:1057500069837A831995D701ED91FC910684F785C9
:10576000E02D2D813E814B815C8169817A81C70169
:105770001995D701ED91FC910288F389E02DC701BD
:1057800026960FB6F894DEBF0FBECDBFDF91CF9146
:105790001F910F91FF90EF901994CF92DF92EF92AB
:1057A000FF920F931F93CF93DF9300D000D0CDB71C
:1057B000DEB76C01DC01ED91FC910680F781E02DF4
:1057C0002D833E834B835C8369837A831995D6014D
:1057D000ED91FC910284F385E02D2D813E814B817A
:1057E0005C8169817A81C6011995D601ED91FC91A0
:1057F0000288F389E02DC60126960FB6F894DEBF25
:105800000FBECDBFDF91CF911F910F91FF90EF9011
:10581000DF90CF901994CF93DF93EC0189A187FF9C
:1058200009C084E00E942D3181E00E941F3180E098
:105830000E942831ECA5FDA5908189A98095892336
:105840008083DF91CF910895EF92FF920F931F9382
:10585000CF93DF931F92CDB7DEB77C01062F142FB5
:1058600040E451E060EF70E029830E94C9268EE099
:1058700093E0D70111969C938E935E960C935E975E
:105880005F961C935F97298190962C9390978FEF4A
:1058900091968C93919792968C93929793968C93E2
:1058A0009397F701128E138E148E158E602F000FB2
:1058B000770BFB01EA57FD4F8491E82FF0E0EE0FE4
:1058C000FF1FE453FD4F859194919D969C938E9379
:1058D0009C97FB01E05CFD4FE491D196EC93D1974E
:1058E000412F110F550BFA01EA57FD4FE491F0E0FB
:1058F000EE0FFF1FE453FD4F85919491F70193A79D
:1059000082A7FA01E05CFD4FE491D296EC93D29726
:1059100099961C921E929897D0961C92D097959625
:105920001C921E9294979E961C929E9797961C92FC
:105930001E9296979F961C920F90DF91CF911F9188
:105940000F91FF90EF900895FC0181A187FF05C0A2
:105950006EBD0DB407FEFDCF089528E030E090E85D
:10596000A4A1B5A186A5492F462319F04C91842BFB
:1059700003C04C91809584238C93A0A5B1A54C9134
:1059800080A9809584238C93A0A5B1A54C9180A972
:10599000842B8C9396952150310911F70895CF935C
:1059A000DF93EC01EAA5FBA590818AA98095892364
:1059B0008083CE010E94A42CEAA5FBA590818AA930
:1059C000892B8083DF91CF910895CF93DF93EC01F2
:1059D000411551056105710521F440E052E16AE786
:1059E00070E04A8F5B8F6C8F7D8F61E08F8D0E949E
:1059F000130C60E08F8D0E944F0C61E08E8D0E9431
:105A0000130C61E08E8D0E944F0C89A187FD16C09A
:105A100061E08AA10E94130C60E08AA10E944F0CF1
:105A200061E089A10E94130C61E089A10E944F0CE2
:105A30008BA187FD03C060E00E94130C89A187FD44
:105A40000E94093188A187FD21C061E00E94130CEA
:105A500061E088A10E944F0C64E670E080E090E075
:105A60000E94140B60E088A10E944F0C64E670E075
:105A700080E090E00E94140B61E088A10E944F0C2E
:105A800068EC70E080E090E00E94140BE881F981FE
:105A90000680F781E02DCE0119956FEECE010E94B0
:105AA000CF2C63E0CE010E94A42C60E8CE010E94BE
:105AB000A42C62E0CE010E94A42C6FECCE010E94C7
:105AC000CF2C60E0CE010E94A42C61ECCE010E949C
:105AD000A42C60E3CE010E94A42C6DEECE010E94A6
