:100000000C9410040C9441040C9441040C9441048D
:100010000C9441040C9441040C9441040C9441044C
:100020000C9441040C9441040C9441040C9441043C
:100030000C9441040C9441040C9441040C9441042C
:100040000C9441040C9441040C9441040C9441041C
:100050000C9441040C9441040C9441040C949B05B1
:100060000C9441040C94800A0C944C0B0C944104A5
:100070000C9441040C9441040C9441040C944104EC
:100080000C9441040C9441040C9441040C944104DC
:100090000C94B30A0C948B0B0C9441040C94410403
:1000A0000C9441040C9441040C9441040C944104BC
:1000B0000C9441040C9441040C9441040C944104AC
:1000C0000C9441040C9441040C9441040C94E60AF1
:1000D0000C94CA0B0C9441040C94190B0C94090C4D
:1000E0000C944104F319F619E919ED192D1AFA19AE
:1000F000FE19041A081A0C1A121A161A1A1A2D1AAC
:10010000201A241A281A0C94CC0F0C94DE140C9488
:10011000FA170C94C30E0C940C1A0C94E9190C9455
:10012000F9090C94A40E0C94DD090C94CD090C94DF
:10013000F3190C94081A0C94FA190C94041A0C94E0
:10014000201A0C947A040C94121A0C94241A0C940D
:1001500066140C9442100C942D1A0C94F6190C94FD
:10016000E3130C94190A0C94FA0D0C941A1A0C94BB
:10017000C4130C94D40E0C94281A0C94A30E0C9453
:100180005D0F0C94A1100C94280D0C94CB070C94CB
:10019000F6130C94B70E0C946D190C94CF130C94A9
:1001A000A2100C942C140C94FE190C94240A0C9498
:1001B000EE120C94161A0C94D30E0C94A0140C94FA
:1001C000ED190C94CC090C94AB0E0C94190F0C94F3
:1001D000F2180C94AE170C94AE0F00000000003E15
:1001E0005B4F5B3E3E6B4F6B3E1C3E7C3E1C183CA7
:1001F0007E3C181C577D571C1C5E7F5E1C00183C03
:100200001800FFE7C3E7FF0018241800FFE7DBE74B
:10021000FF30483A060E2629792926407F05050732
:10022000407F05253F5A3CE73C5A7F3E1C1C08088E
:100230001C1C3E7F14227F22145F5F005F5F060953
:100240007F017F006689956A606060606094A2FFAC
:10025000A29408047E040810207E201008082A1C9E
:1002600008081C2A08081E101010100C1E0C1E0C6A
:1002700030383E3830060E3E0E060000000000000A
:10028000005F00000007000700147F147F14242A79
:100290007F2A12231308646236495620500008074B
:1002A0000300001C2241000041221C002A1C7F1C6C
:1002B0002A08083E0808008070300008080808086E
:1002C000000060600020100804023E5149453E00D5
:1002D000427F400072494949462141494D33181433
:1002E000127F1027454545393C4A49493141211182
:1002F00009073649494936464949291E0000140074
:100300000000403400000008142241141414141496
:10031000004122140802015909063E415D594E7CF4
:100320001211127C7F494949363E414141227F41A9
:1003300041413E7F494949417F090909013E414107
:1003400051737F0808087F00417F41002040413FF2
:10035000017F081422417F404040407F021C027F01
:100360007F0408107F3E4141413E7F090909063E56
:100370004151215E7F091929462649494932030125
:100380007F01033F4040403F1F2040201F3F403837
:10039000403F631408146303047804036159494D12
:1003A00043007F4141410204081020004141417F48
:1003B00004020102044040404040000307080020BE
:1003C000545478407F2844443838444444283844BE
:1003D00044287F385454541800087E090218A4A4F5
:1003E0009C787F0804047800447D40002040403D14
:1003F000007F1028440000417F40007C047804788E
:100400007C080404783844444438FC182424181820
:10041000242418FC7C08040408485454542404047C
:100420003F44243C4040207C1C2040201C3C403069
:10043000403C44281028444C9090907C4464544C98
:1004400044000836410000007700000041360800F3
:1004500002010204023C2623263C1EA1A161123A9D
:100460004040207A385454555921555579412254E9
:10047000547842215554784020545579400C1E52EE
:100480007212395555555939545454593955545493
:10049000580000457C410002457D420001457C40FA
:1004A0007D1211127DF0282528F07C54554500203E
:1004B00054547C547C0A097F4932494949323A44B0
:1004C00044443A324A4848303A4141217A3A42401B
:1004D0002078009DA0A07D3D4242423D3D404040ED
:1004E0003D3C24FF2424487E4943662B2FFC2F2BC0
:1004F000FF0929F620C0887E090320545479410061
:1005000000447D413048484A32384040227A007ADF
:100510000A0A727D0D19317D2629292F28262929BD
:10052000292630484D4020380808080808080808DF
:10053000382F10C8ACBA2F102834FA00007B000006
:1005400008142A142222142A14085500550055AA0A
:1005500055AA55AAFF55FF55FF000000FF001010D7
:1005600010FF00141414FF001010FF00FF1010F013
:1005700010F0141414FC001414F700FF0000FF0026
:10058000FF1414F404FC141417101F10101F101F74
:100590001414141F00101010F0000000001F1010A1
:1005A00010101F10101010F010000000FF1010109D
:1005B000101010101010FF10000000FF140000FFBA
:1005C00000FF00001F10170000FC04F414141710A3
:1005D000171414F404F40000FF00F7141414141496
:1005E0001414F700F7141414171410101F101F140C
:1005F0001414F4141010F010F000001F101F00006D
:10060000001F14000000FC140000F010F01010FF98
:1006100010FF141414FF141010101F00000000F03D
:1006200010FFFFFFFFFFF0F0F0F0F0FFFFFF000012
:10063000000000FFFF0F0F0F0F0F3844443844FC39
:100640004A4A4A347E02020606027E027E02635550
:100650004941633844443C04407E201E2006027E0B
:10066000020299A5E7A5991C2A492A1C4C7201721D
:100670004C304A4D4D303048784830BC625A463D87
:100680003E494949007E0101017E2A2A2A2A2A443C
:10069000445F444440514A444040444A5140000071
:1006A000FF0103E080FF000008086B6B083612367C
:1006B0002436060F090F060000181800000010105D
:1006C000003040FF0101001F01011E00191D17121B
:1006D000003C3C3C3C00000000000000090A02080D
:1006E0000B0C0D07060304010000000000000000D1
:1006F00000000000000000000000000000000000FA
:1007000000000000000011100F00000000000000B9
:1007100000000000000000000000000000000000D9
:100720000102102020080810204010204080020103
:1007300002010804020101020408102040808040E8
:1007400020100804020180040201804020100804E7
:100750000201080402010102040810204080010285
:10076000040810204080050505050705080808084D
:10077000020202020A0A0808040404040101010139
:100780000101010103030303030303030407070734
:100790000C0C0C0C0C0C0C0C0202020206060606D9
:1007A000060606060B0B0B0B0B0B0B0B00002200B7
:1007B000250028002B002E0031003400020100002B
:1007C000050108010B0100002100240027002A0078
:1007D0002D003000330001010000040107010A016F
:1007E0004E414E494E495459494E46CDCCCC3D0A16
:1007F000D7233C17B7D13877CC2B329595E6241FF9
:10080000B14F0A000020410000C84200401C4620B1
:10081000BCBE4CCA1B0E5AAEC59D74007A04280D8E
:1008200011241FBECFEFD1E2DEBFCDBF00E00CBF71
:1008300012E0A0E0B2E0EEEFFDE300E00BBF02C08B
:1008400007900D92AE37B107D9F72EE0AEE7B2E0D0
:1008500001C01D92AC36B207E1F714E0C0E1D4E06C
:1008600000E006C021970109802FFE010E94CC1EE6
:10087000CE30D10780E00807A9F70E9472050C94DA
:10088000D11A0C9400008F929F92AF92BF92CF9298
:10089000DF92EF92FF92CF93DF9300D01F92CDB7FC
:1008A000DEB74B015C0129833A834B835C830E9452
:1008B000E50529813A814B815C8175016401C20E95
:1008C000D31EE41EF51E21E0C616D706E806F9067B
:1008D00008F020E0822F0F900F900F900F90DF9183
:1008E000CF91FF90EF90DF90CF90BF90AF909F900F
:1008F0008F9008952FEF49E06AE082E89BE00E9424
:10090000F71480E091E00E949E0690937F0B809305
:100910007E0B08950E943C0640E855E260E070E0DE
:1009200084E29CE00E94480C84E29CE00E94190A48
:1009300040E050E0BA0182E89BE00E94B81563E015
:1009400082E89BE00E94AE1760E070E082E89BE0E6
:100950000E94AE0F1092810B1092800BE0917E0BE3
:10096000F0917F0B108208958F929F92AF92BF9269
:10097000CF92DF92EF92FF920F931F93CF930E943B
:10098000E5056B017C0100E010E040E1842E47E2C8
:10099000942EA12CB12CA5019401C701B6010E948F
:1009A0004304C82F84E29CE00E94CD09892B19F0F2
:1009B000C11103C004C0CC2371F381E071C00E9457
:1009C000E5056B017C0184E29CE00E94F909C82FD7
:1009D0008A3011F0CD30C9F584E29CE00E94190AFA
:1009E00060917E0B70917F0B84E29CE00E94230853
:1009F00080917E0B90917F0B0E94CD1AF801EE0F33
:100A0000FF1FEE0FFF1FE258FD4F6083718382834B
:100A100093830F5F1F4F84E29CE00E94190A66E0F7
:100A200072E084E29CE00E942308E0917E0BF0914A
:100A30007F0B8091800B9091810BE80FF91F108242
:100A40001092810B1092800B21C08091800B9091AD
:100A5000810B8F3F9105D0F420917E0B30917F0B5D
:100A6000F901E80FF91FC0832091800B3091810BB1
:100A70002F5F3F4F3093810B2093800B80917E0B33
:100A800090917F0BFC01E20FF31F1082C53439F007
:100A900038EE832E33E0932EA12CB12C7CCF80E056
:100AA000CF911F910F91FF90EF90DF90CF90BF906B
:100AB000AF909F908F90089568E072E084E29CE090
:100AC0000E94230884E29CE00E94CD09892BA1F3B7
:100AD00084E29CE00E94F909813471F70E94B40419
:100AE00081E00895CF93DF930E948A0484E29CE022
:100AF0000E94190A0E945C05CEE7D2E04991599103
:100B00006991799122E030E084E29CE00E94BA0988
:100B10006AE072E084E29CE00E9423088BE0CE371A
:100B2000D80761F784E29CE00E94D00C80E090E05E
:100B3000DF91CF9108951F920F920FB60F9211245B
:100B40002F933F938F939F93AF93BF938091B60B57
:100B50009091B70BA091B80BB091B90B3091B50B38
:100B600023E0230F2D3720F40196A11DB11D05C0F0
:100B700026E8230F0296A11DB11D2093B50B80938B
:100B8000B60B9093B70BA093B80BB093B90B8091B1
:100B9000BA0B9091BB0BA091BC0BB091BD0B019611
:100BA000A11DB11D8093BA0B9093BB0BA093BC0BFE
:100BB000B093BD0BBF91AF919F918F913F912F91BA
:100BC0000F900FBE0F901F9018952FB7F89460915B
:100BD000B60B7091B70B8091B80B9091B90B2FBFEA
:100BE00008953FB7F8948091BA0B9091BB0BA091F8
:100BF000BC0BB091BD0B26B5A89B05C02F3F19F0CB
:100C00000196A11DB11D3FBFBA2FA92F982F88278C
:100C1000820F911DA11DB11DBC01CD0142E0660FE7
:100C2000771F881F991F4A95D1F70895CF92DF92B9
:100C3000EF92FF92CF93DF936B017C010E94F1054D
:100C4000EB01C114D104E104F10479F00E94F10533
:100C50006C1B7D0B683E7340A0F381E0C81AD1087D
:100C6000E108F108C851DC4FECCFDF91CF91FF9044
:100C7000EF90DF90CF900895789484B5826084BD22
:100C800084B5816084BD85B5826085BD85B5816090
:100C900085BDEEE6F0E0808181608083E1E8F0E0F0
:100CA0001082808182608083808181608083E0E81F
:100CB000F0E0808181608083E1EBF0E080818460FE
:100CC0008083E0EBF0E0808181608083E1E9F0E007
:100CD000808182608083808181608083E0E9F0E0B0
:100CE000808181608083E1EAF0E08081826080839E
:100CF000808181608083E0EAF0E080818160808390
:100D0000E1E2F1E080818260808380818160808384
:100D1000E0E2F1E0808181608083EAE7F0E08081B9
:100D20008460808380818260808380818160808311
:100D30008081806880831092C1000895CF93DF93F3
:100D40008230910510F482E090E0E091680EF0911D
:100D5000690E20E030E0C0E0D0E0309711F1408132
:100D6000518148175907C0F04817590761F482812B
:100D70009381209719F09B838A832BC09093690EEF
:100D80008093680E26C02115310519F042175307CC
:100D900018F49A01BE01DF01EF010280F381E02D1A
:100DA000DCCF2115310509F1281B390B2430310521
:100DB00090F412968D919C9113976115710521F015
:100DC000FB019383828304C09093690E8093680E25
:100DD000FD01329644C0FD01E20FF31F8193919310
:100DE000225031092D933C933AC02091660E3091E8
:100DF000670E232B41F420910202309103023093BD
:100E0000670E2093660E2091000230910102211599
:100E1000310541F42DB73EB74091040250910502CF
:100E2000241B350BE091660EF091670EE217F30775
:100E3000A0F42E1B3F0B2817390778F0AC014E5F4A
:100E40005F4F2417350748F04E0F5F1F5093670E12
:100E50004093660E8193919302C0E0E0F0E0CF01F1
:100E6000DF91CF9108950F931F93CF93DF93009756
:100E700009F48CC0FC013297138212820091680E33
:100E80001091690E0115110581F420813181820FC5
:100E9000931F2091660E3091670E2817390779F558
:100EA000F093670EE093660E71C0D80140E050E009
:100EB000AE17BF0750F412962D913C911397AD01D8
:100EC0002115310509F1D901F3CF9D01DA013383F1
:100ED000228360817181860F971F8217930769F4BF
:100EE000EC0128813981260F371F2E5F3F4F318358
:100EF00020838A819B8193838283452B29F4F093FD
:100F0000690EE093680E42C01396FC93EE9312971D
:100F1000ED01499159919E01240F351FE217F30706
:100F200071F480819181840F951F029611969C9394
:100F30008E938281938113969C938E931297E0E017
:100F4000F0E0D80112968D919C911397009719F0BB
:100F5000F8018C01F6CF8D919C9198012E5F3F4F47
:100F6000820F931F2091660E3091670E2817390764
:100F700069F4309729F41092690E1092680E02C03D
:100F8000138212821093670E0093660EDF91CF9149
:100F90001F910F910895CF92DF92EF92FF920F93DE
:100FA0001F93CF93DF936C01EB017B01E40EF51EE1
:100FB00000E010E0CE15DF0561F06991D601ED91FA
:100FC000FC910190F081E02DC6011995080F191FC1
:100FD000F1CFC801DF91CF911F910F91FF90EF905A
:100FE000DF90CF9008956115710579F0FB010190B4
:100FF0000020E9F73197AF01461B570BDC01ED915B
:10100000FC910280F381E02D199480E090E0089536
:10101000DC01ED91FC910190F081E02D19940F938A
:101020001F93CF93DF93EC016DE00E9408088C01C1
:101030006AE0CE010E940808800F911FDF91CF91D6
:101040001F910F9108950F931F93CF93DF93EC019E
:101050000E94F3078C01CE010E940F08800F911FA0
:10106000DF91CF911F910F9108958F929F92AF9230
:10107000BF92CF92DF92EF92FF920F931F93CF9385
:10108000DF93CDB7DEB7A1970FB6F894DEBF0FBEE2
:10109000CDBF6C01142FE52FCB01022F19A22230F6
:1010A00008F40AE07E0121E2E20EF11C802E912C70
:1010B000A12CB12C612F7E2FA50194010E94AA1EA4
:1010C000029F1019112481E0E81AF1081A3014F473
:1010D000105D01C0195CF7011083122FE32FCA01C4
:1010E000232B242B252B31F7B701C6010E94F307D0
:1010F000A1960FB6F894DEBF0FBECDBFDF91CF91A2
:101100001F910F91FF90EF90DF90CF90BF90AF9025
:101110009F908F900895CF92DF92EF92FF920F935E
:101120001F93CF93DF93EC016A017B0121153105F9
:1011300079F4E881F9810190F081E02D642FDF914D
:10114000CF911F910F91FF90EF90DF90CF90199466
:101150002A303105E9F477FF1AC06DE20E940808D1
:101160008C0144275527BA014C195D096E097F0986
:101170002AE0CE010E943508800F911FDF91CF91A8
:101180001F910F91FF90EF90DF90CF9008952AE08C
:10119000B701A601CE01DF91CF911F910F91FF9072
:1011A000EF90DF90CF900C9435084F925F926F9242
:1011B0007F928F929F92AF92BF92CF92DF92EF92E7
:1011C000FF92CF93DF93EC016A017B01B22E9A016B
:1011D000AB01C701B6010E941B1D882319F060E115
:1011E00072E027C026013701E89477F82FEF3FEF30
:1011F0004FE75FE7C301B2010E941B1D81110DC0C3
:101200002FEF3FEF4FE75FE7C301B2010E944A1B98
:1012100018161CF464E172E00CC02FEF3FEF4FE7AB
:101220005FE4C701B6010E94A91C18169CF468E18E
:1012300072E0CE01DF91CF91FF90EF90DF90CF90E1
:10124000BF90AF909F908F907F906F905F904F90E6
:101250000C94F3072FEF3FEF4FE75FECC701B601A8
:101260000E944A1B87FDE3CF20E030E0A901C701BF
:10127000B6010E944A1B87FF0AC06DE2CE010E94A0
:1012800008084C01F7FAF094F7F8F09402C0812CAA
:10129000912CA12C60E070E080E09FE3AB1441F062
:1012A00020E030E040E251E40E944F1BA394F6CFCF
:1012B0009B01AC01C701B6010E94DE1A2B013C0163
:1012C0000E94C81B6B017C010E94F71B9B01AC01B3
:1012D000C301B2010E94DD1A2B013C012AE0B701D3
:1012E000A601CE010E9435087C01E80CF91CBB2048
:1012F00039F06CE172E0CE010E94F307E80EF91EAE
:10130000DB2CDD2039F120E030E040E251E4C30184
:10131000B2010E94AE1C2B013C010E94C11B4B017B
:10132000770FAA08BB082AE030E0B501A401CE017E
:101330000E948B08E80EF91EC501B4010E94F91B3A
:101340009B01AC01C301B2010E94DD1A2B013C01DB
:10135000DA94D7CFC701DF91CF91FF90EF90DF9064
:10136000CF90BF90AF909F908F907F906F905F9045
:101370004F9008950F931F93CF93DF93EC010E943A
:10138000D5088C01CE010E940F08800F911FDF91BC
:10139000CF911F910F9108950895FC012485358503
:1013A000F901E05CFF4F808191813296208131818B
:1013B000821B930B8F7399270895DC011C96ED9186
:1013C000FC911D97DF01A05CBF4F2D913C911197BF
:1013D00012968D919C9111972817390739F08D91AC
:1013E0009C91E80FF91F808190E008958FEF9FEFA7
:1013F0000895FC01A485B585FD01E05CFF4F2081C7
:1014000031813296808191812817390779F0808166
:101410009181A80FB91F8C91208131812F5F3F4F9F
:101420002F7333273183208390E008958FEF9FEF50
:101430000895FC0181A1882329F0A489B5898C91A4
:1014400086FFFBCF11A208950F931F93CF93DF93D5
:10145000FC01A685B7858D01005C1F4FE8018881DE
:10146000998101968F739927AD014E5B5F4FEA0119
:101470002881398182179307D1F3E80128813981C6
:10148000A20FB31F6C93A685B785A05CBF4F1196C2
:101490009C938E93A689B7892C9181E090E0078C6C
:1014A00002C0880F991F0A94E2F7822B8C9381E087
:1014B00081A30488F589E02D80818064808381E0A8
:1014C00090E0DF91CF911F910F910895FB01E05CB7
:1014D000FF4F208131812F5F3F4F2F733327DB0177
:1014E000AE5BBF4F4D915C912417350741F04081B1
:1014F0005181DB01A40FB51F8C93318320830895A4
:101500001F920F920FB60F9211240BB60F922F93CA
:101510003F934F935F936F937F938F939F93AF937B
:10152000BF93EF93FF938091C00082FD07C080912D
:10153000C60062E27EE00E94660A02C08091C60098
:10154000FF91EF91BF91AF919F918F917F916F919B
:101550005F914F913F912F910F900BBE0F900FBE57
:101560000F901F9018951F920F920FB60F92112493
:101570000BB60F922F933F934F935F936F937F938D
:101580008F939F93AF93BF93EF93FF938091C80086
:1015900082FD07C08091CE006AE97DE00E94660A64
:1015A00002C08091CE00FF91EF91BF91AF919F91CA
:1015B0008F917F916F915F914F913F912F910F90FC
:1015C0000BBE0F900FBE0F901F9018951F920F9299
:1015D0000FB60F9211240BB60F922F933F934F9398
:1015E0005F936F937F938F939F93AF93BF93EF938B
:1015F000FF938091D00082FD07C08091D60062E108
:101600007DE00E94660A02C08091D600FF91EF91B2
:10161000BF91AF919F918F917F916F915F914F910A
:101620003F912F910F900BBE0F900FBE0F901F9008
:1016300018951F920F920FB60F9211240BB60F92AE
:101640002F933F934F935F936F937F938F939F93CA
:10165000AF93BF93EF93FF938091300182FD07C05A
:10166000809136016AE87CE00E94660A02C080919F
:101670003601FF91EF91BF91AF919F918F917F9133
:101680006F915F914F913F912F910F900BBE0F90F3
:101690000FBE0F901F9018951F920F920FB60F92CA
:1016A00011240BB60F922F933F938F939F93EF9339
:1016B000FF9320911E0E30911F0E8091200E90916D
:1016C000210E2817390731F48091C1008F7D809356
:1016D000C10014C0E091200EF091210EE252F24FB1
:1016E00020818091200E9091210E01968F73992771
:1016F0009093210E8093200E2093C600FF91EF91CE
:101700009F918F913F912F910F900BBE0F900FBE25
:101710000F901F9018951F920F920FB60F921124E1
:101720000BB60F922F933F938F939F93EF93FF935B
:101730002091960D3091970D8091980D9091990D73
:101740002817390731F48091C9008F7D8093C90033
:1017500014C0E091980DF091990DEA5AF24F208152
:101760008091980D9091990D01968F739927909380
:10177000990D8093980D2093CE00FF91EF919F914A
:101780008F913F912F910F900BBE0F900FBE0F9036
:101790001F9018951F920F920FB60F9211240BB63F
:1017A0000F922F933F938F939F93EF93FF932091EB
:1017B0000E0D30910F0D8091100D9091110D281785
:1017C000390731F48091D1008F7D8093D10014C00E
:1017D000E091100DF091110DE253F34F20818091B3
:1017E000100D9091110D01968F7399279093110D03
:1017F0008093100D2093D600FF91EF919F918F91D0
:101800003F912F910F900BBE0F900FBE0F901F9026
:1018100018951F920F920FB60F9211240BB60F92CC
:101820002F933F938F939F93EF93FF932091860C79
:101830003091870C8091880C9091890C281739077A
:1018400031F4809131018F7D8093310114C0E0919A
:10185000880CF091890CEA5BF34F20818091880C11
:101860009091890C01968F7399279093890C80939E
:10187000880C20933601FF91EF919F918F913F91BA
:101880002F910F900BBE0F900FBE0F901F901895C9
:10189000CF92DF92EF92FF920F931F93CF93DF933C
:1018A000EC016A017B014115514E6105710509F199
:1018B000EC89FD8981E090E008A002C0880F991FA3
:1018C0000A94E2F7808360E079E08DE390E0A7017D
:1018D00096010E94AA1E89019A010150110921094D
:1018E00031093695279517950795980101151041EF
:1018F000A8F0EC89FD89108260E874E88EE190E040
:10190000A70196010E94AA1EDA01C9010197A10947
:10191000B109B695A795979587959C01E889F989AE
:101920003083EA89FB89208319A2EE89FF894081EF
:1019300081E090E09C010C8C02C0220F331F0A94BE
:10194000E2F7242B2083EE89FF8940819C010D8CD6
:1019500002C0220F331F0A94E2F7242B2083EE8962
:10196000FF8940819C010E8C02C0220F331F0A9414
:10197000E2F7242B2083EE89FF8920810F8C02C09F
:10198000880F991F0A94E2F7809582238083DF9164
:10199000CF911F910F91FF90EF90DF90CF9008951E
:1019A000CF93DF93FC0186859785EC01C05CDF4F08
:1019B000DC01AE5BBF4F288139818D919C911197DD
:1019C00028173907C1F7A689B7893C9181E090E0D3
:1019D000AC01048C02C0440F551F0A94E2F7242F77
:1019E000209523232C93A689B7893C91AC01058CC3
:1019F00002C0440F551F0A94E2F7242F2095232399
:101A00002C93A689B7893C91AC01068C02C0440F87
:101A1000551F0A94E2F7242F209523232C93A6899F
:101A2000B7892C91078C02C0880F991F0A94E2F79E
:101A3000809582238C9384859585FC01EE5BFF4F16
:101A400020813181329731832083DF91CF910895B6
:101A5000CF92DF92EF92FF92E4E2FCE013821282D7
:101A600088EEC82E83E0D82EE12CF12CC482D582DA
:101A7000E682F78262E272E07183608382E29EE036
:101A8000958784878EED9DE09787868785EC90E02B
:101A9000918B808B84EC90E0938B828B80EC90E038
:101AA000958B848B81EC90E0978B868B82EC90E019
:101AB000918F808F86EC90E0938F828F44E0448FEB
:101AC00033E0358F27E0268F95E0978F81E080A364
:101AD000E2E0FCE013821282C482D582E682F782C1
:101AE00071836083AAE9BDE0B587A487A6E5BDE060
:101AF000B787A687ADECB0E0B18BA08BACECB0E0C3
:101B0000B38BA28BA8ECB0E0B58BA48BA9ECB0E0B2
:101B1000B78BA68BAAECB0E0B18FA08FAEECB0E093
:101B2000B38FA28F448F358F268F978F80A3E0EEDF
:101B3000FBE013821282C482D582E682F78271832F
:101B40006083A2E1BDE0B587A487AEECBCE0B787B7
:101B5000A687A5EDB0E0B18BA08BA4EDB0E0B38B70
:101B6000A28BA0EDB0E0B58BA48BA1EDB0E0B78B5C
:101B7000A68BA2EDB0E0B18FA08FA6EDB0E0B38F41
:101B8000A28F448F358F268F978F80A3EEEBFBE0DB
:101B900013821282C482D582E682F78271836083C7
:101BA0006AE87CE07587648766E47CE0778766870F
:101BB00065E371E0718B608B64E371E0738B628B22
:101BC00060E371E0758B648B61E371E0778B668B0A
:101BD00062E371E0718F608F66E371E0738F628FF3
:101BE000448F358F268F978F80A3FF90EF90DF90E3
:101BF000CF9008952F923F924F925F926F927F9273
:101C00008F929F92AF92BF92CF92DF92EF92FF920C
:101C10000F931F93CF93DF9300D0CDB7DEB74C0166
:101C20007B836A836A01590117019801241B350BD4
:101C300037FF03C0319521953109C5014A815B8188
:101C4000841B950B97FF03C091958195910951E0F5
:101C500059838217930714F019820BC09A2D8B2D8C
:101C60005801092F182F9A818B81DB82CA82C92ED5
:101C7000D82E8A819B81A816B9065CF49C2D8D2DE7
:101C80006801092F182F9A818B81BB82AA82A92E05
:101C9000B82E2501AA81BB814A1A5B0A38016C184B
:101CA0007D0877FE03C0719461947108720157FE3C
:101CB00003C0BFEFEB1AFB0AF594E794C016D106F8
:101CC0001CF00FEF1FEF1FC001E010E01CC0D4019B
:101CD000ED91FC91B9810084F185E02D9101BB2348
:101CE000C1F04A815B81B601C4011995E618F70875
:101CF000F7FE04C0C00ED11EE40CF51CEA81FB8186
:101D00003196FB83EA834A815B81A416B506FCF613
:101D100004C0A6016A817B81E7CF0F900F900F90DE
:101D2000DF91CF911F910F91FF90EF90DF90CF90B7
:101D3000BF90AF909F908F907F906F905F904F90EB
:101D40003F902F9008950895DC01ED91FC9104805F
:101D5000F581E02D19940F931F93DC01ED91FC9117
:101D6000008CF18DE02D19951F910F9108950F931F
:101D70001F93DC01ED91FC91028CF38DE02D199500
:101D80001F910F910895EF92FF920F931F93DC0123
:101D9000ED91FC91048CF58DE02D19951F910F911B
:101DA000FF90EF9008950895AF92BF92CF92DF9287
:101DB000EF92FF920F931F93CF93DF9300D01F9268
:101DC000CDB7DEB75C016901DC01ED91FC910680C5
:101DD000F781E02D4B835C8369837A831995D50164
:101DE000ED91FC914B815C81C40ED51EB1E0CB1A04
:101DF000D1080088F189E02D7801860169817A8116
:101E00009B01C5011995D501ED91FC910288F389DB
:101E1000E02DC5010F900F900F900F90DF91CF91A3
:101E20001F910F91FF90EF90DF90CF90BF90AF90F8
:101E30001994AF92BF92CF92DF92EF92FF920F93DD
:101E40001F93CF93DF9300D01F92CDB7DEB75C0115
:101E50006901DC01ED91FC910680F781E02D4B8357
:101E60005C8369837A831995D501ED91FC91698131
:101E70007A819B012C0D3D1D215031090088F1898B
:101E8000E02D78014B815C818A01C5011995D5014E
:101E9000ED91FC910288F389E02DC5010F900F9020
:101EA0000F900F90DF91CF911F910F91FF90EF90C6
:101EB000DF90CF90BF90AF9019944F925F926F9246
:101EC0007F928F929F92AF92BF92CF92DF92EF92CA
:101ED000FF920F931F93CF93DF931F921F92CDB763
:101EE000DEB76C015A0139014801DC01ED91FC912A
:101EF0000680F781E02D69837A8319956981462EE2
:101F00007A81572E640C751CD601ED91FC91461414
:101F100057046CF40484F585E02D87019401A50134
:101F2000B201C6011995BFEF4B1A5B0AEDCF0288CB
:101F3000F389E02DC6010F900F90DF91CF911F9193
:101F40000F91FF90EF90DF90CF90BF90AF909F9058
:101F50008F907F906F905F904F901994EF92FF92C7
:101F60000F931F93DC01ED91FC9111971A960D913F
:101F70001C911B9718962D913C911997048CF58D07
:101F8000E02D7B0140E050E060E070E019951F918A
:101F90000F91FF90EF900895CF92DF92EF92FF9212
:101FA0000F931F93CF93DF9300D000D0CDB7DEB750
:101FB0006C01DC01ED91FC916217730789F4041741
:101FC00015072CF4942F852FA801092F182F041B17
:101FD000150B98012F5F3F4F008CF18DE02D12C043
:101FE0004017510709F5261737072CF4962F872F2E
:101FF000B901292F382F261B370B2F5F3F4F028C3B
:10200000F38DE02D8701C601199526960FB6F89439
:10201000DEBF0FBECDBFDF91CF911F910F91FF901B
:10202000EF90DF90CF9008950680F781E02D2D830B
:102030003E834B835C8369837A831995D601ED9146
:10204000FC910088F189E02D2D813E814B815C81DE
:1020500069817A81C6011995D601ED91FC910288BA
:10206000F389E02DC60126960FB6F894DEBF0FBEA9
:10207000CDBFDF91CF911F910F91FF90EF90DF9037
:10208000CF9019946F927F928F929F92AF92BF924E
:10209000CF92DF92EF92FF920F931F93CF93DF9334
:1020A000EC014B015A0169013801E881F981068090
:1020B000F781E02D1995E881F9810684F785E02DF7
:1020C00087019601A501B401CE011995E881F98136
:1020D000A501460D571D415051090684F785E02D95
:1020E0009601B401CE011995E881F9810484F58542
:1020F000E02D9301A501B401CE011995E881F98184
:10210000C80CD91CB601615071090484F585E02D15
:102110009301A501CE011995E881F9810288F3891F
:10212000E02DCE01DF91CF911F910F91FF90EF90A5
:10213000DF90CF90BF90AF909F908F907F906F90E7
:1021400019940895FC016370658B848195812681C3
:102150003781613039F0633029F091878087338788
:102160002287089531872087938782870895FC010D
:102170001382128282E392E0918380837583648369
:10218000578346837187608753874287158A1586F0
:1021900014861786168681E0848B2FEF3FEF338BF2
:1021A000228B318B208B868B178A118E108E08958F
:1021B0002F923F924F925F926F927F928F929F9257
:1021C000AF92BF92CF92DF92EF92FF920F931F9345
:1021D000CF93DF93CDB7DEB76C970FB6F894DEBF21
:1021E0000FBECDBF9C8F8B8F5B011A011F830E83A7
:1021F0003701C982DC0158964D915C915997411580
:10220000510509F0E5C018968D919C9119976817B2
:1022100079070CF0CAC11A968D919C911B972816CC
:1022200039060CF0C2C18C2C912CFB0136E0C39E08
:10223000E00DF11D1124FB87EA871E161F060CF026
:10224000B4C1C40133E0880F991F3A95E1F79D8727
:102250008C87820D931D181619060CF0A6C157968F
:102260008C91811103C0203B08F02F5FAB8DBC8D9A
:10227000ED91FC9111970680F781E02DCD012A8F19
:1022800019952A8DB5E02B9F90011124F501359603
:10229000FF87EE872501BB82AA82A9014A195B0943
:1022A000598B488BC10108969B8B8A8BE889F989E9
:1022B000E40DF51DE652FE4F949198873D822C82E5
:1022C0006101A885A0FF13C0AB8DBC8DED91FC9181
:1022D000B981B13031F40084F185E02D2E813F8148
:1022E00016C00284F385E02DEE80FF801AC0EE81D7
:1022F000FF816E167F06F1F0AB8DBC8DED91FC91E8
:10230000B981B13051F40084F185E02D9301A6012B
:10231000B2018B8D9C8D19950DC00284F385E02D43
:102320007301840194014C815D816A817B818B8D75
:102330009C8D1995E885E695E8872C813D81280DCF
:10234000391D3D832C833FEFC31AD30A4A895B8929
:10235000C416D50609F0B5CF8A819B81880D991DD9
:102360009B838A839FEF491A590AAE85BF854A1617
:102370005B0609F09BCFEE81FF816E167F0609F4A4
:10238000F2C0EB8DFC8DA081B181F981F13079F43F
:10239000B5016B5F7F4F1C96ED91FC911D978301FA
:1023A00028E030E0A1018B8D9C8D1995DCC06A85F9
:1023B0007B85681979091A96ED91FC911B97730139
:1023C0000C851D859401A1018B8D9C8D1995CBC029
:1023D000FA0134969491329765917491291BCB013F
:1023E000B7E02B9F800D911D1124FA0125913491A6
:1023F0003B8B2A8BFC01459154915B834A83FC0102
:102400003296C490319654915C87329614913196ED
:10241000D4908981823058F0612E012E000C77080B
:10242000AD2D0D2C000CBB0BB987A88704C01986F5
:102430001886612C712CAB8DBC8DED91FC911197A0
:102440000680F781E02DCD011995B9818B2E912C55
:10245000689CC001699C900D789C900D1124FC0132
:10246000EA0DFB1DF98BE88B1C82712C612CE12F8E
:10247000110FFF0B95012E0F3F1F3B872A87AC0CD6
:10248000B11CA5014E0F5F1F5F8B4E8BC1018D0DDF
:10249000911DD7FC9A95998F888F4C85641608F00A
:1024A00062C0862D90E048855985480F591F489D88
:1024B0009001499D300D589D300D1124D901A20D78
:1024C000B31DBF87AE87AA84BB8448885988DC8047
:1024D000BA85DB1AE88DF98DE80FF91FFD8BEC8BBF
:1024E0008D2D8A0D2E893F89A216B306B9F187700A
:1024F00061F48A819B810196EA89FB89AA81BB816B
:10250000EA0FFB1F74909B838A8377FE20C0AB8DFC
:10251000BC8DED91FC91B981B13061F40084F185FD
:10252000E02D2E813F814C895D89B5018B8D9C8D7D
:1025300019950DC00284F385E02DEE80FF808401A3
:1025400094014E855F85B2018B8D9C8D1995770C1A
:10255000480C591CEFEFAE1ABE0AC2CF3C813C0DAD
:102560003C8363949ACFAB8DBC8DED91FC91119718
:102570000288F389E02DCD016C960FB6F894DEBF8A
:102580000FBECDBFDF91CF911F910F91FF90EF90C4
:10259000DF90CF90BF90AF909F908F907F906F9083
:1025A0005F904F903F902F9019946C960FB6F894CF
:1025B000DEBF0FBECDBFDF91CF911F910F91FF9076
:1025C000EF90DF90CF90BF90AF909F908F907F90D3
:1025D0006F905F904F903F902F900895AF92BF9271
:1025E000CF92EF92FF920F931F93CF93DF93EC0163
:1025F000262F888D998D009709F040C06A3059F4D4
:102600001D861C862C898E859F8538E0239F800D32
:10261000911D112441C06D3009F4AAC08E89882310
:10262000C1F03C898C859D8546E0349F800D911DCD
:10263000112448855985481759075CF41D861C8666
:102640008E859F8548E0349F800D911D11249F87C2
:102650008E87EA88FB88088919894E855F856C8595
:102660007D85CC88CE010E94D8102C898C859D85D3
:1026700036E0239F800D911D112442C06A3079F409
:102680001D861C862C89FC013696E4918E859F85DB
:102690002E9F800D911D11249F878E8769C06D30FC
:1026A00009F466C0FC0134963491631708F460C0E5
:1026B0003196E491E61708F45BC0FC013296A590D0
:1026C000B490462F50E0431B510937E0349FB001CE
:1026D000359F700D1124A60EB71EF5013296349168
:1026E0003196E491332311F0E1110DC0F5013496D8
:1026F000E4912C898C859D85E29F800D911D11248C
:102700009D878C8735C0F501359644915E895523A8
:1027100011F16C89E32FF0E0E40FF11D47FDFA950C
:102720006E9FD0016F9FB00D11244C855D854A0FBF
:102730005B1FE885F985E417F5076CF41D861C8698
:10274000FC013696E4918E859F856E9F800D911DCC
:1027500011249F878E87EA88FB88088919894E850E
:102760005F856C857D85CC88CE010E94D810BECF58
:1027700081E090E0DF91CF911F910F91FF90EF905A
:10278000CF90BF90AF900895DC019C96ED91FC91A5
:102790009D979081D1968C91892B80830895EF929B
:1027A000FF920F931F93DC01ED91FC910284F3855E
:1027B000E02D7801890121E030E019951F910F91FA
:1027C000FF90EF900895EF92FF920F931F93DC011B
:1027D000ED91FC910284F385E02D780101E010E099
:1027E00019951F910F91FF90EF9008950F931F93EC
:1027F000CF93DF9300D000D0CDB7DEB78C01DC01E2
:10280000ED91FC910680F781E02D2D833E834B8373
:102810005C8369837A831995D801ED91FC910084DA
:10282000F185E02D2D813E814B815C8169817A812A
:10283000C8011995D801ED91FC910288F389E02D2A
:10284000C80126960FB6F894DEBF0FBECDBFDF914C
:10285000CF911F910F911994EF92FF920F931F93B5
:10286000CF93DF9300D000D0CDB7DEB77C01DC0181
:10287000ED91FC910680F781E02D2D833E834B8303
:102880005C8369837A831995D701ED91FC91048467
:10289000F585E02D2D813E814B815C8169817A81B6
:1028A000C7011995D701ED91FC910288F389E02DBC
:1028B000C70126960FB6F894DEBF0FBECDBFDF91DD
:1028C000CF911F910F91FF90EF901994EF92FF928B
:1028D0000F931F93CF93DF9300D000D0CDB7DEB717
:1028E0007C01DC01ED91FC910680F781E02D2D83C8
:1028F0003E834B835C8369837A831995D701ED917D
:10290000FC910684F785E02D2D813E814B815C8111
:1029100069817A81C7011995D701ED91FC910288EF
:10292000F389E02DC70126960FB6F894DEBF0FBEDF
:10293000CDBFDF91CF911F910F91FF90EF90199430
:10294000CF92DF92EF92FF920F931F93CF93DF937B
:1029500000D000D0CDB7DEB76C01DC01ED91FC9169
:102960000680F781E02D2D833E834B835C83698352
:102970007A831995D601ED91FC910284F385E02DBF
:102980002D813E814B815C8169817A81C6011995D7
:10299000D601ED91FC910288F389E02DC6012696BF
:1029A0000FB6F894DEBF0FBECDBFDF91CF911F9160
:1029B0000F91FF90EF90DF90CF901994CF93DF931A
:1029C000EC0189A187FF09C084E00E94BE1A81E062
:1029D0000E94B01A80E00E94B91AECA5FDA5908172
:1029E00089A9809589238083DF91CF910895EF9203
:1029F000FF920F931F93CF93DF931F92CDB7DEB754
:102A00007C01062F142F40E451E060EF70E0298331
:102A10000E94B7108AE592E0D70111969C938E939D
:102A20005E960C935E975F961C935F9729819096B4
:102A30002C9390978FEF91968C93919792968C937D
:102A4000929793968C939397F701128E138E148E10
:102A5000158E602F000F770BFB01EA59F84F849118
:102A6000E82FF0E0EE0FFF1FE455F84F85919491A9
:102A70009D969C938E939C97FB01E05EF84FE491AA
:102A8000D196EC93D197412F110F550BFA01EA59CA
:102A9000F84FE491F0E0EE0FFF1FE455F84F8591F9
:102AA0009491F70193A782A7FA01E05EF84FE491B1
:102AB000D296EC93D29799961C921E929897D096A4
:102AC0001C92D09795961C921E9294979E961C925B
:102AD0009E9797961C921E9296979F961C920F9087
:102AE000DF91CF911F910F91FF90EF900895FC011E
:102AF00081A187FF05C06EBD0DB407FEFDCF08950F
:102B000028E030E090E8A4A1B5A186A5492F46238E
:102B100019F04C91842B03C04C91809584238C93A5
:102B2000A0A5B1A54C9180A9809584238C93A0A5E4
:102B3000B1A54C9180A9842B8C9396952150310995
:102B400011F70895CF93DF93EC01EAA5FBA59081DF
:102B50008AA9809589238083CE010E947715EAA5F2
:102B6000FBA590818AA9892B8083DF91CF9108955D
:102B7000CF93DF93EC01411551056105710521F4F7
:102B800040E052E16AE770E04A8F5B8F6C8F7D8F87
:102B900061E08F8D0E942E1A60E08F8D0E946A1A6C
:102BA00061E08E8D0E942E1A61E08E8D0E946A1A5D
:102BB00089A187FD16C061E08AA10E942E1A60E0FB
:102BC0008AA10E946A1A61E089A10E942E1A61E01E
:102BD00089A10E946A1A8BA187FD03C060E00E9450
:102BE0002E1A89A187FD0E949A1A88A187FD21C00B
:102BF00061E00E942E1A61E088A10E946A1A64E6D0
:102C000070E080E090E00E94160660E088A10E94DB
:102C10006A1A64E670E080E090E00E94160661E0C7
:102C200088A10E946A1A68EC70E080E090E00E943F
:102C30001606E881F9810680F781E02DCE0119950D
:102C40006FEECE010E94A21563E0CE010E947715BF
:102C500060E8CE010E94771562E0CE010E947715F0
:102C60006FECCE010E94A21560E0CE010E947715A4
:102C700061ECCE010E94771560E3CE010E947715CA
:102C80006DEECE010E94A21564E6CE010E9477157A
:102C900063E0CE010E94771562E1CE010E947715B4
:102CA00061E8CE010E94771568EECE010E94A21560
:102CB00065E8CE010E94771560E0CE010E9477158D
:102CC00068E7CE010E9477156BECCE010E94A21539
:102CD00069E3CE010E9477156CE2CE010E94771560
:102CE00060E0CE010E94771564E3CE010E94771563
:102CF00062E0CE010E94771567EFCE010E94A21517
:102D000060E2CE010E9477156AEECE010E94A21504
:102D100060E0CE010E94771560E0CE010E94771539
:102D200060ECCE010E94A21563E2CE010E947715ED
:102D300061ECCE010E94A21560E1CE010E947715E0
:102D400065ECCE010E94A2156EE3CE010E947715BC
:102D500068E2CE010E94771567ECCE010E94A215B1
:102D600066E8CE010E94771566E3CE010E94A215A7
:102D700068E4CE010E94771567E3CE010E94A21598
:102D800089A187FF09C01EBC0DB407FEFDCF1EBC84
:102D90000DB407FEFDCF08C060E0CE010E9477159C
:102DA00060E0CE010E9477156AE3CE010E94A21571
:102DB00065E5CE010E94771561EBCE010E94A21558
:102DC00060E0CE010E94771568E1CE010E94771580
:102DD00066EBCE010E94A21568E0CE010E94771535
:102DE00062E8CE010E94771567E2CE010E94771556
:102DF00062EFCE010E94A21560E0CE010E9477151D
:102E000066E2CE010E94A21561E0CE010E94771514
:102E100060EECE010E94A2156FE0CE010E947715F0
:102E200061E3CE010E9477156BE2CE010E94771517
:102E30006CE0CE010E9477156EE0CE010E947715FE
:102E400068E0CE010E9477156EE4CE010E947715EE
:102E500061EFCE010E94771567E3CE010E947715DE
:102E600067E0CE010E94771560E1CE010E947715E0
:102E700063E0CE010E9477156EE0CE010E947715C7
:102E800069E0CE010E94771560E0CE010E947715BF
:102E900061EECE010E94A21560E0CE010E9477157E
:102EA0006EE0CE010E94771564E1CE010E94771595
:102EB00063E0CE010E94771561E1CE010E94771593
:102EC00067E0CE010E94771561E3CE010E9477157D
:102ED00061ECCE010E94771568E4CE010E9477155F
:102EE00068E0CE010E9477156FE0CE010E94771551
:102EF0006CE0CE010E94771561E3CE010E94771548
:102F000066E3CE010E9477156FE0CE010E9477152F
:102F100061E1CE010E94A21568E770E080E090E0D8
:102F20000E94160669E2CE010E94A21568E770E0D1
:102F300080E090E00E941606E881F9810288F3891A
:102F4000E02DCE01199580EF90E09987888780E485
:102F500091E09B878A87DF91CF9108951F93CF934C
:102F6000DF93EC0163706D8B6230C1F0633001F16F
:102F7000613051F080EF90E09987888780E491E09C
:102F80009B878A8718E41DC080E491E09987888731
:102F900080EF90E09B878A8718E213C080EF90E073
:102FA0009987888780E491E09B878A8718E809C021
:102FB00080E491E09987888780EF90E09B878A87FB
:102FC00018EEE881F9810680F781E02DCE01199590
:102FD00066E3CE010E94A215612FCE010E947715F3
:102FE000E881F9810288F389E02DCE01DF91CF914C
:102FF0001F9119940F931F93CF93DF931F92CDB717
:10300000DEB78C01DC01ED91FC910680F781E02DAB
:10301000698319956981611102C060E201C061E2B2
:10302000C8010E94A215D801ED91FC910288F38994
:10303000E02DC8010F90DF91CF911F910F9119944E
:103040008F929F92AF92BF92CF92DF92EF92FF92B8
:103050000F931F93CF93DF93EC01490181E0881A0E
:103060009108860E971EC401A0E0B0E04B01A12C90
:10307000B12C540199248824882A992AAA2ABB2A87
:10308000680181E0C81AD108C40ED51EC601A0E0AF
:10309000B0E06A01E12CF12C7601DD24CC24C82AB1
:1030A000D92AEA2AFB2A6AE2CE010E94A21529A1A6
:1030B0006B2D77278827992727FF18C06EBD0DB481
:1030C00007FEFDCFC501AA27BB278EBD0DB407FEA5
:1030D000FDCFBB27AB2D9A2D892D8EBD0DB407FEDC
:1030E000FDCF8EBC0DB407FEFDCF14C0CE010E94F3
:1030F0007715B50188279927CE010E947715992762
:103100008B2D7A2D692DCE010E947715682DCE0169
:103110000E9477156BE2CE010E94A21529A16F2DA6
:1031200077278827992727FF18C06EBD0DB407FEA3
:10313000FDCFC701AA27BB278EBD0DB407FEFDCF6B
:10314000BB27AF2D9E2D8D2D8EBD0DB407FEFDCF5F
:10315000CEBC0DB407FEFDCF14C0CE010E94771582
:10316000B70188279927CE010E94771599278F2DBF
:103170007E2D6D2DCE010E9477156C2DCE010E9403
:1031800077156CE2CE01DF91CF911F910F91FF90E7
:10319000EF90DF90CF90BF90AF909F908F900C9466
:1031A000A2151F93CF93DF93262FFC0131A137FF88
:1031B00009C07EBD0DB407FEFDCF2EBD0DB407FEC8
:1031C000FDCF0CC0672F122FEC010E947715612FE5
:1031D000CE01DF91CF911F910C947715DF91CF91A4
:1031E0001F910895EF92FF920F931F93CF93DF9358
:1031F00077FD23C0DC011896ED91FC9119976E17AD
:103200007F07DCF457FD19C01A96ED91FC911B97CE
:103210004E175F0794F47901EC0101E010E021E022
:1032200030E00E942018B701CE01DF91CF911F91AD
:103230000F91FF90EF900C94D118DF91CF911F91D7
:103240000F91FF90EF900895EF92FF921F93CF930D
:10325000DF9300D01F921F92CDB7DEB77C01162FEF
:10326000FC0181A187FF12C02115310541055105DF
:1032700049F17EBD0DB407FEFDCF1EBD0DB407FEA6
:10328000FDCF2150310941095109EECF21153105FA
:1032900041055105B9F0672FC70129833A834B8354
:1032A0005C837D830E947715612FC7010E9477158B
:1032B00029813A814B815C812150310941095109B1
:1032C0007D81E4CF0F900F900F900F900F90DF91C2
:1032D000CF911F91FF90EF9008958F929F92AF92A0
:1032E000BF92CF92DF92EF92FF920F931F93CF93F3
:1032F000DF935C01FB01E9014701DC0118962D9188
:103300003C911997621773070CF049C01A968D917A
:103310009C911B97481759070CF041C06B01CC0ECC
:10332000DD1ED60111977A01E00EF11EB701615042
:103330007109B7FD34C077FD32C0F7FF03C0E60165
:10334000E0E0F0E057FF03C0870140E050E0A21743
:10335000B3071CF0E901CE1BDF0B681779071CF0DF
:103360008C01041B150B9E01D8010E94D41E6B0119
:103370007C01BF01C5010E942018A7019601B4017C
:10338000C501DF91CF911F910F91FF90EF90DF90DA
:10339000CF90BF90AF909F908F900C942419DF91A5
:1033A000CF911F910F91FF90EF90DF90CF90BF9042
:1033B000AF909F908F90089590E0FC013197E1319C
:1033C000F10508F04AC08827EE58FF4F8F4F0C9444
:1033D000CC1E809180008F7703C0809180008F7D0C
:1033E00080938000089584B58F7702C084B58F7D67
:1033F00084BD08958091B0008F7703C08091B000A4
:103400008F7D8093B0000895809190008F7707C0E2
:10341000809190008F7D03C080919000877F809382
:10342000900008958091A0008F7707C08091A00040
:103430008F7D03C08091A000877F8093A0000895B6
:10344000809120018F7707C0809120018F7D03C07C
:1034500080912001877F809320010895CF93DF938F
:1034600090E0FC01E05EF84F2491FC01EA59F84F2E
:103470008491882361F190E0880F991FFC01EA5341
:10348000F84FC591D491FC01E455F84FA591B49142
:10349000611109C09FB7F8948881209582238883A1
:1034A000EC912E230BC0623061F49FB7F894388101
:1034B000822F809583238883EC912E2B2C939FBFA2
:1034C00006C08FB7F894E8812E2B28838FBFDF9139
:1034D000CF9108951F93CF93DF93282F30E0F90108
:1034E000E652F94F8491F901E05EF84FD491F90169
:1034F000EA59F84FC491CC23C9F0162F81110E94CC
:10350000DC19EC2FF0E0EE0FFF1FE455F84FA5910A
:10351000B4918FB7F894111105C09C91ED2FE095EF
:10352000E92302C0EC91ED2BEC938FBFDF91CF919B
:103530001F91089561E085E30E946A1A61E085E3C6
:103540000E942E1A8CB580618CBD8CB580648CBDB8
:1035500061E084E30E942E1A61E083E30C942E1A4A
:10356000811103C08CB5806202C08CB58F7D8CBD8B
:1035700008959CB5937F892B8CBD08959CB5282F09
:1035800023709C7F922B9CBD2DB582FB992790F9CF
:10359000822F8E7F892B8DBD0895662777270C9407
:1035A000201DF8940C94FD1E91110C948F1E8032F6
:1035B00019F089508550C8F708955058BB27AA279D
:1035C0000E94F51A0C946F1C0E94611C38F00E9436
:1035D000681C20F039F49F3F19F426F40C945E1C0B
:1035E0000EF4E095E7FB0C94581CE92F0E94801C18
:1035F00058F3BA17620773078407950720F079F428
:10360000A6F50C94A21C0EF4E0950B2EBA2FA02D5B
:103610000B01B90190010C01CA01A0011124FF277F
:10362000591B99F0593F50F4503E68F11A16F0407A
:10363000A22F232F342F4427585FF3CF4695379579
:103640002795A795F0405395C9F77EF41F16BA0B3E
:10365000620B730B840BBAF09150A1F0FF0FBB1FEC
:10366000661F771F881FC2F70EC0BA0F621F731F35
:10367000841F48F4879577956795B795F7959E3F92
:1036800008F0B0CF9395880F08F09927EE0F979523
:10369000879508950E94341C08F481E008950E94E3
:1036A000631B0C946F1C0E94681C58F00E94611CE4
:1036B00040F029F45F3F29F00C94581C51110C94F0
:1036C000A31C0C945E1C0E94801C68F39923B1F328
:1036D000552391F3951B550BBB27AA276217730738
:1036E000840738F09F5F5F4F220F331F441FAA1FCC
:1036F000A9F335D00E2E3AF0E0E832D09150504088
:10370000E695001CCAF72BD0FE2F29D0660F771F35
:10371000881FBB1F261737074807AB07B0E809F01B
:10372000BB0B802DBF01FF2793585F4F3AF09E3FA0
:10373000510578F00C94581C0C94A31C5F3FE4F3E3
:10374000983ED4F3869577956795B795F7959F5FE3
:10375000C9F7880F911D9695879597F90895E1E02F
:10376000660F771F881FBB1F621773078407BA078E
:1037700020F0621B730B840BBA0BEE1F88F7E095E9
:1037800008950E94C81B6894B1110C94A31C08955D
:103790000E94881C88F09F5798F0B92F9927B7513D
:1037A000B0F0E1F0660F771F881F991F1AF0BA95E5
:1037B000C9F714C0B13091F00E94A21CB1E0089585
:1037C0000C94A21C672F782F8827B85F39F0B93F77
:1037D000CCF3869577956795B395D9F73EF4909598
:1037E0008095709561957F4F8F4F9F4F0895E89416
:1037F00009C097FB3EF490958095709561957F4F39
:103800008F4F9F4F9923A9F0F92F96E9BB279395E6
:10381000F695879577956795B795F111F8CFFAF4F6
:10382000BB0F11F460FF1BC06F5F7F4F8F4F9F4F27
:1038300016C0882311F096E911C0772321F09EE885
:10384000872F762F05C0662371F096E8862F70E0EB
:1038500060E02AF09A95660F771F881FDAF7880FC5
:103860009695879597F90895990F0008550FAA0B1B
:10387000E0E8FEEF16161706E807F907C0F0121683
:103880001306E407F50798F0621B730B840B950B86
:1038900039F40A2661F0232B242B252B21F40895DB
:1038A0000A2609F4A140A6958FEF811D811D089578
:1038B00097F99F6780E870E060E008959FEF80ECE3
:1038C000089500240A941616170618060906089586
:1038D00000240A9412161306140605060895092EEC
:1038E0000394000C11F4882352F0BB0F40F4BF2B5B
:1038F00011F460FF04C06F5F7F4F8F4F9F4F08959B
:1039000057FD9058440F551F59F05F3F71F0479590
:10391000880F97FB991F61F09F3F79F08795089575
:10392000121613061406551FF2CF4695F1DF08C094
:10393000161617061806991FF1CF869571056105B1
:1039400008940895E894BB2766277727CB0197F959
:1039500008950E94341C08F48FEF08950E94C11C42
:103960000C946F1C0E94611C38F00E94681C20F0AF
:10397000952311F00C94581C0C945E1C11240C948B
:10398000A31C0E94801C70F3959FC1F3950F50E01B
:10399000551F629FF001729FBB27F00DB11D639F01
:1039A000AA27F00DB11DAA1F649F6627B00DA11DA7
:1039B000661F829F2227B00DA11D621F739FB00D4D
:1039C000A11D621F839FA00D611D221F749F3327BD
:1039D000A00D611D231F849F600D211D822F762F56
:1039E0006A2F11249F5750409AF0F1F088234AF033
:1039F000EE0FFF1FBB1F661F771F881F915050409F
:103A0000A9F79E3F510580F00C94581C0C94A31C00
:103A10005F3FE4F3983ED4F3869577956795B79525
:103A2000F795E7959F5FC1F7FE2B880F911D96953F
:103A3000879597F908950E94341C880B990B089577
:103A40006F927F928F929F92AF92BF92CF92DF92AE
:103A5000EF92FF920F931F93CF93DF93EC017B01C3
:103A60006115710519F0DB018D939C938E010F5F39
:103A70001F4F7880872D90E00E94D41A892B11F077
:103A8000E801F4CFBDE27B1205C00F5F1F4F7980C4
:103A9000C1E008C0EBE27E1204C08E010E5F1F4F32
:103AA0007980C0E06801F1E0CF1AD10843E050E02E
:103AB00068EE77E0C6010E94921E892BF1F468013E
:103AC00022E0C20ED11C45E050E063EE77E0C60173
:103AD0000E94921E892B21F4680187E0C80ED11C38
:103AE000E114F10419F0D701CD92DC92C111FFC0AD
:103AF00060E070E080E89FE703C143E050E060EEE3
:103B000077E0C6010E94921E892B51F4E114F10462
:103B100009F4F2C00E5F1F4FF70111830083ECC060
:103B2000680160E070E0CB0100E010E0F601D0ED4C
:103B3000D70DDA3058F52C2F2260622E2C2F2870EA
:103B4000C2FF05C0211128C00F5F1F4F25C02223CF
:103B500011F001501109A5E0B0E09B01AC010E94F9
:103B6000F21E4B015C01880C991CAA1CBB1CC501F0
:103B7000B4016D0F711D811D911D6839A9E97A0786
:103B80008A07A9E19A0740F0C66005C0DE3F51F4FC
:103B9000C3FD44C0C8606C2EBFEFCB1ADB0A708037
:103BA000C62DC4CF2D2F2F7D2531C1F540814D323B
:103BB00011F4C06106C04B3221F0319621E030E0B3
:103BC00006C03296D60111964C9122E030E0A0ED6D
:103BD000A40FAA3018F0E21BF30B20C040E050E025
:103BE0004038BCE05B075CF49A01220F331F220FC0
:103BF000331F420F531F440F551F4A0F511D31965B
:103C0000DF0111972C91A0EDA20FAA3048F3C4FF59
:103C100003C0519541955109040F151FC1FF07C0FD
:103C2000E114F10421F03197D701ED93FC930E9448
:103C3000F71BC370C33019F06B017C0106C06B0128
:103C40007C01F7FAF094F7F8F09420E030E0A90155
:103C5000C701B6010E944A1B882309F445C017FF1B
:103C600006C0119501951109CFEFD7E002C0C7E159
:103C7000D8E05E01B8E1AB1AB1084601BE2DAF2D08
:103C800090E2E92EF12C0E151F0584F0FE0125911E
:103C9000359145915491B4018B2F9A2F0E94AE1CFF
:103CA0004B01B82FA92F0E191F09EDCF2497F594BA
:103CB000E794CA15DB0539F76401EB2EFA2E8E2D39
:103CC000880F8F2D881F8F3F49F020E030E0A90139
:103CD000C701B6010E944A1B811106C082E290E032
:103CE00090936B0E80936A0EC701B60109C060E025
:103CF00070E080E89FEF04C060E070E080EC9FE738
:103D0000DF91CF911F910F91FF90EF90DF90CF90B7
:103D1000BF90AF909F908F907F906F90089599275C
:103D200088270895FB01DC014150504088F08D91B7
:103D300081341CF08B350CF4805E659161341CF08D
:103D40006B350CF4605E861B611171F3990B08955D
:103D5000881BFCCFA1E21A2EAA1BBB1BFD010DC0C4
:103D6000AA1FBB1FEE1FFF1FA217B307E407F5072B
:103D700020F0A21BB30BE40BF50B661F771F881F07
:103D8000991F1A9469F760957095809590959B019D
:103D9000AC01BD01CF010895EE0FFF1F881F8BBF3F
:103DA0000790F691E02D19940E94DC1E332312F443
:103DB0008A1B9B0B0C94ED1EA29FB001B39FC00108
:103DC000A39F700D811D1124911DB29F700D811D47
:103DD0001124911D08950E94DC1EB7FF0895821BD7
:103DE000930B08950E94DC1EA59F900DB49F900D2B
:0E3DF000A49F800D911D11240895F894FFCF1B
:103DFE0000006C0E800041005300776F726B3F0025
:103E0E006E616E00696E66006F7666002E000000B1
:103E1E000000240ACB07CD09F909DD09190A0000B3
:103E2E000000EE12CB07CC09A30EA40EC30EAB0EF0
:103E3E00B70EFA0DD30EA210A110D40E190F5D0FEE
:103E4E00AE0FCC0F421000000000EE12CB07F6139F
:103E5E00DE14F2186D19CF13E313FA0DC413AE1757
:0E3E6E00FA172C146614A014AE0FCC0F4210DD
:00000001FF
