:100000000C9477040C94A8040C94A8040C94A804F1
:100010000C94A8040C94A8040C94A8040C94A804B0
:100020000C94A8040C94A8040C94A8040C94A804A0
:100030000C94A8040C94A8040C94A8040C94A80490
:100040000C94A8040C94A8040C94A8040C94A80480
:100050000C94A8040C94A8040C94A8040C94A90D66
:100060000C94A8040C94AC120C9478130C94A8046F
:100070000C94A8040C94A8040C94A8040C94A80450
:100080000C94A8040C94A8040C94A8040C94A80440
:100090000C94DF120C94B7130C94A8040C94A804CD
:1000A0000C94A8040C94A8040C94A8040C94A80420
:1000B0000C94A8040C94A8040C94A8040C94A80410
:1000C0000C94A8040C94A8040C94A8040C94121387
:1000D0000C94F6130C94A8040C9445130C9435144A
:1000E0000C94A8049E0BEF0AF60AFD0A040B0B0BF6
:1000F000120B190B200B270B2E0B350B3C0B430B54
:100100004A0B510B580B5F0B660B6D0B740B7B0B83
:10011000820B890B900BE80EEB0EDE0EE20E220F27
:10012000EF0EF30EF90EFD0E010F070F0B0F0F0F61
:10013000220F150F190F1D0F0C94EB0E0C94CB2FE3
:100140000C9498340C941D340C94E20E0C94EF2E05
:100150000C94200B0C94F60A0C94190F0C94740B4D
:100160000C9445120C944C200C94A62A0C940E2F3F
:100170000C949E0B0C94120B0C94F30E0C945F0BCE
:100180000C94FA2E0C94D9320C94660B0C94820BBE
:100190000C940D2E0C94D8280C947B0B0C94F91114
:1001A0000C94A52A0C94150F0C94F8110C94890B3F
:1001B0000C94A8280C94580B0C94510B0C94F81820
:1001C0000C94070F0C941D0F0C94010F0C94C7286E
:1001D0000C94212F0C94A7280C9401180C941D2921
:1001E0000C9409300C94FD0A0C9452180C94BC1019
:1001F0000C94DD060C943C0B0C94FD0E0C94190B26
:100200000C94DE0E0C94912F0C94900B0C94B2294C
:100210000C942E0B0C94572F0C94D0290C94F90E9F
:100220000C940F0F0C9425330C946D0B0C945C18EC
:100230000C94FE270C94FC140C9425120C944A0B7D
:100240000C94E80E0C94BB280C94EF0E0C94040B49
:100250000C94220F0C9461290C9417180C943318E9
:100260000C94430B0C9450120C94AF280C94350B47
:100270000C94462A0C94EF0A0C94270B0C94091248
:100280000C94D7280C940B0F0C940B0B0C94EA17BE
:100290000C94A7060000090A02080B0C0D070603C0
:1002A0000401000000000000000000000000000049
:1002B000000000000000000000000000000000003E
:1002C00011100F00000000000000000000000000FE
:1002D00000000000000000000000010210202008C3
:1002E0000810204010204080020102010804020191
:1002F0000102040810204080804020100804020100
:100300008004020180402010080402010804020158
:1003100001020408102040800102040810204080DF
:1003200005050505070508080808020202020A0A71
:10033000080804040404010101010101010103038F
:10034000030303030303040707070C0C0C0C0C0C3A
:100350000C0C0202020206060606060606060B0B37
:100360000B0B0B0B0B0B00002200250028002B00B1
:100370002E003100340002010000050108010B01CC
:1003800000002100240027002A002D003000330047
:1003900001010000040107010A017C3C3E5E2B3D87
:1003A0003F2F5B5D3B2C2A225C0000000000003EDA
:1003B0005B4F5B3E3E6B4F6B3E1C3E7C3E1C183CD5
:1003C0007E3C181C577D571C1C5E7F5E1C00183C31
:1003D0001800FFE7C3E7FF0018241800FFE7DBE77A
:1003E000FF30483A060E2629792926407F05050761
:1003F000407F05253F5A3CE73C5A7F3E1C1C0808BD
:100400001C1C3E7F14227F22145F5F005F5F060981
:100410007F017F006689956A606060606094A2FFDA
:10042000A29408047E040810207E201008082A1CCC
:1004300008081C2A08081E101010100C1E0C1E0C98
:1004400030383E3830060E3E0E0600000000000038
:10045000005F00000007000700147F147F14242AA7
:100460007F2A122313086462364956205000080779
:100470000300001C2241000041221C002A1C7F1C9A
:100480002A08083E0808008070300008080808089C
:10049000000060600020100804023E5149453E0003
:1004A000427F400072494949462141494D33181461
:1004B000127F1027454545393C4A494931412111B0
:1004C00009073649494936464949291E00001400A2
:1004D00000004034000000081422411414141414C5
:1004E000004122140802015909063E415D594E7C23
:1004F0001211127C7F494949363E414141227F41D8
:1005000041413E7F494949417F090909013E414135
:1005100051737F0808087F00417F41002040413F20
:10052000017F081422417F404040407F021C027F2F
:100530007F0408107F3E4141413E7F090909063E84
:100540004151215E7F091929462649494932030153
:100550007F01033F4040403F1F2040201F3F403865
:10056000403F631408146303047804036159494D40
:1005700043007F4141410204081020004141417F76
:1005800004020102044040404040000307080020EC
:10059000545478407F2844443838444444283844EC
:1005A00044287F385454541800087E090218A4A423
:1005B0009C787F0804047800447D40002040403D42
:1005C000007F1028440000417F40007C04780478BC
:1005D0007C080404783844444438FC18242418184F
:1005E000242418FC7C0804040848545454240404AB
:1005F0003F44243C4040207C1C2040201C3C403098
:10060000403C44281028444C9090907C4464544CC6
:100610004400083641000000770000004136080021
:1006200002010204023C2623263C1EA1A161123ACB
:100630004040207A38545455592155557941225417
:10064000547842215554784020545579400C1E521C
:1006500072123955555559395454545939555454C1
:10066000580000457C410002457D420001457C4028
:100670007D1211127DF0282528F07C54554500206C
:1006800054547C547C0A097F4932494949323A44DE
:1006900044443A324A4848303A4141217A3A424049
:1006A0002078009DA0A07D3D4242423D3D4040401B
:1006B0003D3C24FF2424487E4943662B2FFC2F2BEE
:1006C000FF0929F620C0887E09032054547941008F
:1006D00000447D413048484A32384040227A007A0E
:1006E0000A0A727D0D19317D2629292F28262929EC
:1006F000292630484D40203808080808080808080E
:10070000382F10C8ACBA2F102834FA00007B000034
:1007100008142A142222142A14085500550055AA38
:1007200055AA55AAFF55FF55FF000000FF00101005
:1007300010FF00141414FF001010FF00FF1010F041
:1007400010F0141414FC001414F700FF0000FF0054
:10075000FF1414F404FC141417101F10101F101FA2
:100760001414141F00101010F0000000001F1010CF
:1007700010101F10101010F010000000FF101010CB
:10078000101010101010FF10000000FF140000FFE8
:1007900000FF00001F10170000FC04F414141710D1
:1007A000171414F404F40000FF00F71414141414C4
:1007B0001414F700F7141414171410101F101F143A
:1007C0001414F4141010F010F000001F101F00009B
:1007D000001F14000000FC140000F010F01010FFC7
:1007E00010FF141414FF141010101F00000000F06C
:1007F00010FFFFFFFFFFF0F0F0F0F0FFFFFF000041
:10080000000000FFFF0F0F0F0F0F3844443844FC67
:100810004A4A4A347E02020606027E027E0263557E
:100820004941633844443C04407E201E2006027E39
:10083000020299A5E7A5991C2A492A1C4C7201724B
:100840004C304A4D4D303048784830BC625A463DB5
:100850003E494949007E0101017E2A2A2A2A2A446A
:10086000445F444440514A444040444A514000009F
:10087000FF0103E080FF000008086B6B08361236AA
:100880002436060F090F060000181800000010108B
:10089000003040FF0101001F01011E00191D171249
:1008A000003C3C3C3C00000000004E414E494E499B
:1008B0005459494E46CDCCCC3D0AD7233C17B7D12D
:1008C0003877CC2B329595E6241FB14F0A000020D3
:1008D000410000C84200401C4620BCBE4CCA1B0E52
:1008E0005AAEC59D7400A706FC14EA17DD06112454
:1008F0001FBECFEFD1E2DEBFCDBF00E00CBF12E0E4
:10090000A0E0B2E0E2E6F9E700E00BBF02C007902A
:100910000D92A63EB107D9F729E1A6EEB2E001C0DB
:100920001D92AB32B207E1F714E0C6E7D4E000E075
:1009300006C021970109802FFE010E94523CC33757
:10094000D10780E00807A9F70E948F0D0C948B3720
:100950000C940000AF92BF92CF92DF92EF92FF9281
:100960000F931F93CF93DF936C017B01C42F809172
:100970000402863040F08B3040F0803140F0853109
:1009800040F413E007C010E005C011E003C012E01E
:1009900001C014E0C63040F0CB3040F0C03140F030
:1009A000C53140F4D3E007C0D0E005C0D1E003C0BA
:1009B000D2E001C0D4E064E172E081E994E10E94F8
:1009C000F9108091040290E0019725E0A22EB12C4D
:1009D000B5010E94FD3B00EF089FB001099F700D1B
:1009E00011248091070290910802680F791F4AE054
:1009F00050E081E994E10E94C81165E172E081E96B
:100A000094E10E94F910609105027091060280EF56
:100A1000189F600D711D11244AE050E081E994E1B6
:100A20000E94C81165E172E081E994E10E94F91029
:100A30004C2F50E0CA010197B5010E94FD3B089F71
:100A4000B001099F700D11246C0D7D1D4AE050E02E
:100A500081E994E10E94DC1165E172E081E994E1B1
:100A60000E94F910B70180EFD89F600D711D11240D
:100A70004AE050E081E994E10E94E21162E370E013
:100A800080E090E0DF91CF911F910F91FF90EF9068
:100A9000DF90CF90BF90AF900C94240EAF92BF9296
:100AA000CF92DF92EF92FF920F931F93CF93DF933A
:100AB00000D000D0CDB7DEB78BED93E10E940735B3
:100AC0004B835C836D837E838D819E810A978F3DEE
:100AD000934020F56B817C81072E000C880B990BCD
:100AE0001F921F921F921F9220E4A22EBB24B39448
:100AF000C12CD12C1CEAE12E13E0F12E00E010E015
:100B000028E730E040E050E00E9414160F900F906C
:100B10000F900F90603F71051CF403C080E001C08E
:100B200081E026960FB6F894DEBF0FBECDBFDF91F1
:100B3000CF911F910F91FF90EF90DF90CF90BF90DA
:100B4000AF900895CF92DF92EF92FF92CF93DF9311
:100B5000EC016A017B012DEC3CEC4CEC5DE3C70140
:100B6000B6010E94333887FF04C0C454D54F1882A1
:100B700054C02DEC3CEC4CE45EE3C701B6010E948E
:100B8000333887FF04C0C454D54F81E045C02AE9FB
:100B900039E949E95EE3C701B6010E94333887FFAE
:100BA00004C0C454D54F82E037C02AE939E949E18D
:100BB0005FE3C701B6010E94333887FF04C0C45405
:100BC000D54F83E029C02DEC3CEC4CE45FE3C7013A
:100BD000B6010E94333887FF04C0C454D54F84E067
:100BE0001BC026E636E646E65FE3C701B6010E9473
:100BF000333887FF04C0C454D54F85E00DC020E0D2
:100C000030E040E85FE3C701B6010E9433381816B0
:100C100024F0C454D54F86E08883DF91CF91FF90B4
:100C2000EF90DF90CF900895EF92FF920F931F9374
:100C3000CF93DF937C018B01EA0120EF30E040E0AD
:100C400050E060E070E0CB010E94F215F701718383
:100C5000608320EF30E040E050E060E070E0CB01E6
:100C60000E94F215F801718360832AE130E040E0D0
:100C700050E061E070E080E090E00E94F21568834F
:100C8000DF91CF911F910F91FF90EF900895CF9238
:100C9000DF92EF92FF9280910702909108028C3FC1
:100CA0002FEF920774F0803F91057CF465E070E0CF
:100CB0000E94FD3B072E000C880B990B0E94E23826
:100CC00008C060E070E0CB0104C060E070E08CE33D
:100CD00092E40E941D390E94B1386B017C01809121
:100CE0000502909106028C3F2FEF920774F0803F2F
:100CF00091057CF465E070E00E94FD3B072E000C3E
:100D0000880B990B0E94E23808C060E070E0CB01CC
:100D100004C060E070E08CE392E40E941D390E9400
:100D2000B13820E3269FA001279F500D1124CA014E
:100D30008C0D9D1DFC01E454F54F81E090819430B1
:100D400008F080E0FF90EF90DF90CF900895EF9251
:100D5000FF920F932FEF49E06AE08FEE93E10E943C
:100D600022308CE2E82EFF24F39405E029E348E3E7
:100D700064E08BED93E10E94613680EC93E10E9488
:100D8000BB1880E091E00E948F0F9093BD13809379
:100D9000BC1380910702909108029093E90280931E
:100DA000E80280910502909106029093E7028093F9
:100DB000E6020F91FF90EF90089580EC93E10C9480
:100DC000CE18EF92FF920F931F93CF93DF93FC0106
:100DD0008081833509F042C01092EB021092EA0242
:100DE000C091BE13D091BF1321E030E040E050E04D
:100DF00021970091EA021091EB02C230D105ECF08C
:100E0000DF01AC0FBD1F8C91082E000C990BC09711
:100E1000829FB001839F700D929F700D1124C801B5
:100E2000860F971F9093EB028093EA02AAE0B0E04E
:100E30000E94783C9B01AC01DBCFA80141505109D5
:100E4000443F5140A8F11092EB021092EA02DF9168
:100E5000CF911F910F91FF90EF9008957A018B0130
:100E6000CF01FB012081FA01C081D181222359F0F9
:100E70000E946D37CC0FDD1FCC52D94F99838883E8
:100E8000F801108211C00E946D37CC0FDD1FC451D4
:100E9000DD4F99838883F701808191810196918349
:100EA000808381E0F801808381E994E10E9445120A
:100EB00067E172E081E994E1DF91CF911F910F9199
:100EC000FF90EF900C941611EF92FF920F931F93E7
:100ED000811105C018E0E12E14EDF12E28C08130FB
:100EE00029F4B4EEEB2EBAEAFB2E21C0823029F4AD
:100EF000ACE6EA2EA6E0FA2E1AC0833029F4FFE908
:100F0000EF2EF1E3FF2E13C0843029F4EDE2EE2E34
:100F1000EDE4FE2E0CC0853029F49FECE92E9BE712
:100F2000F92E05C0863041F48FE1E82EF12C8901BD
:100F30008FEE93E10E94CB2F1F910F91FF90EF90C6
:100F40000895EF92FF920F931F93CF93DF938CEB53
:100F5000E82E8AE0F82EC0E0D0E000E010E025E0C6
:100F600030E0A801BE01F70181917F010E94640772
:100F70002596C03FD10521F40B5F1F4FC0E0D0E0A4
:100F8000003F110529F0FCEBEF16F3E1FF0639F7FE
:100F9000DF91CF911F910F91FF90EF9008952F92C5
:100FA0003F924F925F926F927F928F929F92AF92F9
:100FB000BF92CF92DF92EF92FF920F931F93CF9346
:100FC000DF93CDB7DEB762970FB6F894DEBF0FBEE2
:100FD000CDBFA090E602B090E7022EEFA2162FEF51
:100FE000B2068CF032EFA316B1048CF4C50102975F
:100FF00065E070E00E94FD3B072E000C880B990B0A
:101000000E94E23808C060E070E0CB0104C060E0FC
:1010100070E08CE392E40E941D390E94B1386B01AC
:101020007C011B018AEFA8168FEFB8068CF09EEEAC
:10103000A916B1048CF4C501029665E070E00E9427
:10104000FD3B072E000C880B990B0E94E23808C06C
:1010500060E070E0CB0104C060E070E08CE392E4FB
:101060000E941D390E94B1382B013C017A876987A3
:101070000091E8021091E9020E3FAFEF1A0784F0E9
:10108000023F11058CF4C801029765E070E00E94F0
:10109000FD3B072E000C880B990B0E94E23808C01C
:1010A00060E070E0CB0104C060E070E08CE392E4AB
:1010B0000E941D390E94B13869837A838B839C8397
:1010C00029813A813C872B870A3F3FEF130784F041
:1010D0000E3E11058CF4C801029665E070E00E9496
:1010E000FD3B072E000C880B990B0E94E23808C0CC
:1010F00060E070E0CB0104C060E070E08CE392E45B
:101100000E941D390E94B1386D837E838F8398873A
:101110002D813E813E872D870C3F3FEF13077CF0EA
:10112000003F110584F4C80165E070E00E94FD3BBA
:10113000072E000C880B990B0E94E23808C060E073
:1011400070E0CB0104C060E070E08CE392E40E94A8
:101150001D396F87788B898B9A8B8CEFA8168FEF50
:10116000B80684F090EFA916B10484F4C50165E0D7
:1011700070E00E94FD3B072E000C880B990B0E942B
:10118000E23808C060E070E0CB0104C060E070E0CD
:101190008CE392E40E941D390E94B1384B015C013E
:1011A0002D853E858B859C852817390709F487C0D6
:1011B000A981BA81A454B54F2D813E812454354F65
:1011C000E985FA8580E32E163F0609F44FC08C9D11
:1011D000B0018D9D700D1124AD01460F571FFA010E
:1011E000B080849DA001859D500D1124C901840FFC
:1011F000951FFC018080A40FB51FAC9085E0982E50
:101200009C9C80019D9C100D11248D819E81989E37
:101210007001999EF00C1124FB01E20FF31F25E0F1
:1012200030E0A801B70180810E946407A981BA81DA
:101230009A9E60019B9ED00C112425E030E0A8010D
:10124000B6018B2D0E946407949C8001959C100D23
:10125000112425E030E0A801B701882D0E94640721
:1012600025E030E0A801B6018A2D7EC0889DA0014E
:10127000899D500D1124F901E40FF51F008115E03F
:10128000189D7001199DF00C1124E981FA811E9FAF
:10129000B0011F9F700D1124A40FB51F25E030E091
:1012A000A7018C910E9464072D813E81129FB0019D
:1012B000139F700D112425E030E0A70139C06F8520
:1012C000788989899A890E94B13829853A852216B8
:1012D000330681F1A0E3A49DF001A59DF00D11243A
:1012E000E60FF71FE454F54F008115E0169F5001FB
:1012F000179FB00C11241C9DA0011D9D500D1124A1
:10130000AC9D9001AD9D300D1124620F731FFB0148
:10131000E454F54F25E030E0B50180810E94640778
:10132000149DA001159D500D112425E030E0B5015C
:10133000802F1AC025E0289DA001299D500D112461
:10134000269FD001279FB00D112420E3289DF00196
:10135000299DF00D11246E0F7F1FFB01E454F54F02
:1013600025E030E0BD0180810E94640740910502C4
:1013700050910602609107027091080200E018EF98
:1013800022E030E08FEE93E10E94B02B62960FB620
:10139000F894DEBF0FBECDBFDF91CF911F910F91AB
:1013A000FF90EF90DF90CF90BF90AF909F908F9085
:1013B0007F906F905F904F903F902F900895CF92C5
:1013C000EF92FF920F931F938FE1E82EF12C0FEE17
:1013D00010E020E530E040E050E061EF70E08FEE9B
:1013E00093E10E94CB2FE12C98EFF92E00EF10E053
:1013F0002FE430E040E050E061EF70E08FEE93E1E9
:101400000E94462A40EA50E062E271E08FEE93E1EA
:101410000E94E32E62E08FEE93E10E94E92E22E02B
:10142000C22E3FE1E32EF12C00E010E023E544E87A
:1014300050E068E171E08FEE93E10E94F72B2FE41A
:1014400048E950E068E171E08FEE93E10E94F72BEC
:101450002CE44CEA50E068E171E08FEE93E10E94E9
:10146000F72B26E540EC50E068E171E08FEE93E168
:101470000E94F72B25E444ED50E068E171E08FEE27
:1014800093E10E94F72B1F910F91FF90EF90CF9067
:101490000895CF93DF93CDB7DEB76B970FB6F8946F
:1014A000DEBF0FBECDBF0E944A0E40E855E260E0AD
:1014B00070E081E994E10E94741481E994E10E9452
:1014C000451240E050E0BA018FEE93E10E94E33014
:1014D00063E08FEE93E10E94D9326FEF7FEF8FEEE2
:1014E00093E10E94B22966E083ED96E10E945516D1
:1014F000811107C069E172E081E994E10E9416114F
:10150000FFCF21E04AE352E063ED76E1CE010196A0
:101510000E9468178B819C819093C3138093C213A0
:101520008D819E81AF81B8858093C4139093C5133C
:10153000A093C613B093C71389859A85AB85BC85E4
:101540008093C8139093C913A093CA13B093CB137D
:101550008DE0FE013D96ACECB3E101900D928A95D1
:10156000E1F78A8D9B8D9093DA138093D913CE0186
:1015700001960E94CE1880EC93E10E9427198111F8
:1015800006C066E472E081E994E10E9416111092AF
:10159000BF131092BE13E091BC13F091BD131082E3
:1015A0000E94DF096B960FB6F894DEBF0FBECDBF69
:1015B000DF91CF910895CF92DF92EF92FF92E09169
:1015C00004028E2F90E0FC013197E931F10508F01B
:1015D000AEC08827EE58FF4F8F4F0C94523CC12C61
:1015E000D12CB0E9EB2EB6E4FB2EABC0C12CD12C34
:1015F000A0E1EA2EA7E4FA2EA4C0C12CD12CF8E574
:10160000EF2EF7E4FF2E9DC0C12CD12CE0E9EE2E89
:10161000E7E4FE2E96C0C12CD12C74EBE72E77E4C4
:10162000F72E8FC0C12CD12C68EDE62E67E4F62E84
:1016300088C0C12CD12C5CEFE52E57E4F52E81C07B
:10164000C12CD12C40E1E42E48E4F42E7AC0C12C08
:10165000D12C32E2E32E38E4F32E73C0C12CD12C0E
:1016600024E3E22E28E4F22E6CC0C12CD12C96E4A7
:10167000E92E98E4F92E65C0C12CD12C88E5E82E1E
:1016800088E4F82E5EC0C12CD12CBAE6EB2EB8E46B
:10169000FB2E57C0C12CD12CACE7EA2EA8E4FA2EC1
:1016A00050C0C12CD12CF7E8EF2EF8E4FF2E49C032
:1016B000C12CD12CE0E9EE2EE8E4FE2E42C0C12C74
:1016C000D12C79E9E72E78E4F72E3BC0C12CD12C40
:1016D00062EAE62E68E4F62E34C0C12CD12C5BEA17
:1016E000E52E58E4F52E2DC0C12CD12C44EBE42E70
:1016F00048E4F42E26C0C12CD12C3DEBE32E38E477
:10170000F32E1FC0C12CD12C26ECE22E28E4F22EA1
:1017100018C0C12CD12C9FECE92E98E4F92E11C0F1
:10172000C12CD12C88EDE82E88E4F82E0AC065E59E
:1017300072E081E994E10E94161103C0C12CD12C02
:101740007601C701B6010E94B138AB01BC0180EC43
:1017500093E10E94CF18811106C06BE572E081E928
:1017600094E10E941611E12CF12C80EC93E10E948F
:10177000F818892B09F446C0E11489E0F8060CF04A
:1017800041C080EC93E10E9452188A3011F08D30F4
:10179000B9F48091BC139091BD130E946937AB01DD
:1017A000BC01C7010E94A2058FEFE81AF80A109247
:1017B000BF131092BE13E091BC13F091BD1320C073
:1017C0002091BE133091BF132F3F310570F6409129
:1017D000BC135091BD13FA01E20FF31F80832091D7
:1017E000BE133091BF132F5F3F4F3093BF13209331
:1017F000BE138091BC139091BD13FC01E20FF31F47
:101800001082B3CFFF90EF90DF90CF900C94A107A0
:101810001F93CF93DF9300D0CDB7DEB71A82198222
:1018200081E08B8381E994E10E94F911892BD1F346
:1018300081E994E10E942512182F8A3011F08D3031
:10184000A9F4AE014F5F5F4FBE016D5F7F4F809186
:10185000BC139091BD130E94E1061092BF13109229
:10186000BE13E091BC13F091BD1320C08091BE1354
:101870009091BF138F3F9105D0F42091BC1330910C
:10188000BD13F901E80FF91F10832091BE133091A9
:10189000BF132F5F3F4F3093BF132093BE13809130
:1018A000BC139091BD13FC01E20FF31F108215349D
:1018B00009F0B8CF80E00F900F900F90DF91CF919B
:1018C0001F910895CF93DF9300D01F921F92CDB741
:1018D000DEB7AE014B5F5F4FBE016F5F7F4FCE0142
:1018E00003960E941406C12C52E0D52E6BEEA62E54
:1018F000B12C75E0872E912C45E0642E87E30E9481
:10190000AC0E8C0186E30E94AC0E013022E012077F
:101910002CF0013432E013073CF42CC09601201B5C
:10192000310B2134310534F1125017FF02C0015C34
:101930001F4F36E0159507953A95E1F7209105027E
:1019400030910602020F131F013F110514F000EF42
:1019500010E017FF02C000E010E0109306020093B1
:101960000502772473942091E6023091E702021772
:10197000130709F4712C813022E092072CF0813496
:1019800032E093073CF42EC09601281B390B21341A
:10199000310544F19601281B390BC90137FDCF965B
:1019A00026E0959587952A95E1F7209107023091D9
:1019B0000802820F931F8E3E910514F08DEE90E089
:1019C00097FF02C080E090E09093080280930702A6
:1019D00021E04091E8025091E9028417950709F44B
:1019E00020E0722A8091070290910802209104025F
:1019F0008D3E910584F0822F662D0E94F13B992344
:101A0000E1F02F5F209304020E94DB0A909208020B
:101A10008092070232C0049784F4822F662D0E94C0
:101A2000F13B913051F02150209304020E94DB0AD7
:101A3000B0920802A092070220C080910502909106
:101A400006028D3E910564F02531B8F42B5F20939A
:101A500004020E94DB0A90920602809205020DC0E9
:101A600004975CF4263048F02550209304020E942D
:101A7000DB0AB0920602A0920502909104028D81C9
:101A800098130FC049815A816B817C81E12C88EFCA
:101A9000F82E04E010E024E030E08FEE93E10E94A5
:101AA000CB2F772069F10E944706811111C08091E8
:101AB000E8029091E90290930802809307028091D6
:101AC000E6029091E702909306028093050218C007
:101AD0000E94CF0764E670E080E090E00E94240E50
:101AE00080910702909108029093E9028093E802A6
:101AF00080910502909106029093E7028093E6029E
:101B00000E944E05882309F4F9CE69817A814D81BE
:101B10008B819C810E94AA040E94080CEDCE0E9439
:101B2000490A81E994E10E9445120E94DB0A409132
:101B3000050250910602609107027091080200E0D0
:101B400018EF22E030E08FEE93E10E94B02B0E946C
:101B5000620C1F920F920FB60F9211242F933F9396
:101B60008F939F93AF93BF938091231490912414EC
:101B7000A0912514B09126143091221423E0230F54
:101B80002D3720F40196A11DB11D05C026E8230FB5
:101B90000296A11DB11D20932214809323149093CB
:101BA0002414A0932514B0932614809127149091A7
:101BB0002814A0912914B0912A140196A11DB11DD9
:101BC0008093271490932814A0932914B0932A1477
:101BD000BF91AF919F918F913F912F910F900FBE29
:101BE0000F901F9018952FB7F8946091231470915F
:101BF000241480912514909126142FBF08953FB787
:101C0000F8948091271490912814A0912914B091F0
:101C10002A1426B5A89B05C02F3F19F00196A11DD7
:101C2000B11D3FBFBA2FA92F982F8827820F911D72
:101C3000A11DB11DBC01CD0142E0660F771F881FB9
:101C4000991F4A95D1F70895CF92DF92EF92FF92B4
:101C5000CF93DF936B017C010E94FF0DEB01C11458
:101C6000D104E104F10479F00E94FF0D6C1B7D0B9F
:101C7000683E7340A0F381E0C81AD108E108F1087A
:101C8000C851DC4FECCFDF91CF91FF90EF90DF9008
:101C9000CF900895789484B5826084BD84B58160C6
:101CA00084BD85B5826085BD85B5816085BDEEE664
:101CB000F0E0808181608083E1E8F0E01082808143
:101CC00082608083808181608083E0E8F0E08081B1
:101CD00081608083E1EBF0E0808184608083E0EBD1
:101CE000F0E0808181608083E1E9F0E080818260C2
:101CF0008083808181608083E0E9F0E08081816081
:101D00008083E1EAF0E0808182608083808181606D
:101D10008083E0EAF0E0808181608083E1E2F1E0AD
:101D2000808182608083808181608083E0E2F1E055
:101D3000808181608083EAE7F0E080818460808335
:101D400080818260808380818160808380818068DF
:101D500080831092C1000895863308F086539091D5
:101D60007B00282F2870977F922B90937B008770A1
:101D70002091090290E4299F90011124822B8093E5
:101D80007C0080917A00806480937A0080917A0050
:101D900086FDFCCF809178002091790090E0922B15
:101DA000089590E0FC013197E131F10508F04AC057
:101DB0008827E557FF4F8F4F0C94523C809180004D
:101DC0008F7703C0809180008F7D8093800008957D
:101DD00084B58F7702C084B58F7D84BD08958091CE
:101DE000B0008F7703C08091B0008F7D8093B000EA
:101DF0000895809190008F7707C0809190008F7D2B
:101E000003C080919000877F809390000895809117
:101E1000A0008F7707C08091A0008F7D03C08091C4
:101E2000A000877F8093A0000895809120018F7784
:101E300007C0809120018F7D03C080912001877FA2
:101E4000809320010895CF93DF9390E0FC01E65248
:101E5000FD4F2491FC01E05EFC4F8491882361F1E9
:101E600090E0880F991FFC01E058FC4FC591D49178
:101E7000FC01EA59FC4FA591B491611109C09FB7CB
:101E8000F8948881209582238883EC912E230BC0BF
:101E9000623061F49FB7F8943881822F8095832354
:101EA0008883EC912E2B2C939FBF06C08FB7F8949C
:101EB000E8812E2B28838FBFDF91CF9108951F9348
:101EC000CF93DF93282F30E0F901EC56FD4F84913A
:101ED000F901E652FD4FD491F901E05EFC4FC49147
:101EE000CC23C9F0162F81110E94D10EEC2FF0E007
:101EF000EE0FFF1FEA59FC4FA591B4918FB7F894EC
:101F0000111105C09C91ED2FE095E92302C0EC91E1
:101F1000ED2BEC938FBFDF91CF911F910895CF935D
:101F2000DF938230910510F482E090E0E091271970
:101F3000F091281920E030E0C0E0D0E0309711F1B6
:101F40004081518148175907C0F04817590761F47B
:101F500082819381209719F09B838A832BC0909371
:101F600028198093271926C02115310519F0421729
:101F7000530718F49A01BE01DF01EF010280F381DB
:101F8000E02DDCCF2115310509F1281B390B243058
:101F9000310590F412968D919C91139761157105FE
:101FA00021F0FB019383828304C0909328198093CE
:101FB0002719FD01329644C0FD01E20FF31F819302
:101FC0009193225031092D933C933AC020912519C9
:101FD00030912619232B41F420910C0230910D02EF
:101FE000309326192093251920910A0230910B0273
:101FF0002115310541F42DB73EB740910E025091A5
:102000000F02241B350BE0912519F0912619E217D8
:10201000F307A0F42E1B3F0B2817390778F0AC010B
:102020004E5F5F4F2417350748F04E0F5F1F5093E8
:102030002619409325198193919302C0E0E0F0E0C6
:10204000CF01DF91CF9108950F931F93CF93DF932B
:10205000009709F48CC0FC01329713821282009120
:102060002719109128190115110581F4208131815A
:10207000820F931F209125193091261928173907AF
:1020800079F5F0932619E093251971C0D80140E045
:1020900050E0AE17BF0750F412962D913C91139764
:1020A000AD012115310509F1D901F3CF9D01DA0107
:1020B0003383228360817181860F971F8217930774
:1020C00069F4EC0128813981260F371F2E5F3F4FBD
:1020D000318320838A819B8193838283452B29F4DA
:1020E000F0932819E093271942C01396FC93EE93BE
:1020F0001297ED01499159919E01240F351FE21766
:10210000F30771F480819181840F951F02961196D7
:102110009C938E938281938113969C938E931297B6
:10212000E0E0F0E0D80112968D919C911397009712
:1021300019F0F8018C01F6CF8D919C9198012E5FDA
:102140003F4F820F931F2091251930912619281790
:10215000390769F4309729F4109228191092271939
:1021600002C0138212821093261900932519DF9161
:10217000CF911F910F910895CF92DF92EF92FF922E
:102180000F931F93CF93DF936C01EB017B01E40E60
:10219000F51E00E010E0CE15DF0561F06991D60173
:1021A000ED91FC910190F081E02DC6011995080F89
:1021B000191FF1CFC801DF91CF911F910F91FF90AF
:1021C000EF90DF90CF9008956115710579F0FB01D4
:1021D00001900020E9F73197AF01461B570BDC0156
:1021E000ED91FC910280F381E02D199480E090E064
:1021F00008950C94E410DC01ED91FC910190F081C4
:10220000E02D19940F931F93CF93DF93EC016DE0B2
:102210000E94FB108C016AE0CE010E94FB10800F2F
:10222000911FDF91CF911F910F9108950F931F93ED
:10223000CF93DF93EC010E94E4108C01CE010E9449
:102240000211800F911FDF91CF911F910F9108957F
:102250008F929F92AF92BF92CF92DF92EF92FF92B6
:102260000F931F93CF93DF93CDB7DEB7A1970FB630
:10227000F894DEBF0FBECDBF6C01142FE52FCB014C
:10228000022F19A2223008F40AE07E0121E2E20EB8
:10229000F11C802E912CA12CB12C612F7E2FA50139
:1022A00094010E94113C029F1019112481E0E81A48
:1022B000F1081A3014F4105D01C0195CF7011083A5
:1022C000122FE32FCA01232B242B252B31F7B70123
:1022D000C6010E94E410A1960FB6F894DEBF0FBEAF
:1022E000CDBFDF91CF911F910F91FF90EF90DF90C5
:1022F000CF90BF90AF909F908F900895CF92DF9234
:10230000EF92FF920F931F93CF93DF93EC016A013B
:102310007B012115310579F4E881F9810190F08183
:10232000E02D642FDF91CF911F910F91FF90EF90DF
:10233000DF90CF9019942A303105E9F477FF1AC065
:102340006DE20E94FB108C0144275527BA014C19FD
:102350005D096E097F092AE0CE010E942811800FD5
:10236000911FDF91CF911F910F91FF90EF90DF9020
:10237000CF9008952AE0B701A601CE01DF91CF9159
:102380001F910F91FF90EF90DF90CF900C94281148
:102390009A01AB01770F660B770B0C947E11211518
:1023A000310541F4DC01ED91FC910190F081E02DCB
:1023B000642F19940C9428119A01AB0160E070E02D
:1023C0000C94CF110F931F93CF93DF93EC019A01DD
:1023D000AB0160E070E00E94CF118C01CE010E9441
:1023E0000211800F911FDF91CF911F910F910895DE
:1023F0000895FC0124853585F901E05CFF4F80815B
:102400009181329620813181821B930B8F739927A2
:102410000895DC011C96ED91FC911D97DF01A05CF5
:10242000BF4F2D913C91119712968D919C911197D0
:102430002817390739F08D919C91E80FF91F808199
:1024400090E008958FEF9FEF0895FC01A485B58576
:10245000FD01E05CFF4F20813181329680819181C6
:102460002817390779F080819181A80FB91F8C91C5
:10247000208131812F5F3F4F2F733327318320839A
:1024800090E008958FEF9FEF0895FC0181A18823CC
:1024900029F0A489B5898C9186FFFBCF11A20895FC
:1024A0000F931F93CF93DF93FC01A685B7858D0112
:1024B000005C1F4FE8018881998101968F739927ED
:1024C000AD014E5B5F4FEA01288139818217930786
:1024D000D1F3E80128813981A20FB31F6C93A6853F
:1024E000B785A05CBF4F11969C938E93A689B78940
:1024F0002C9181E090E0078C02C0880F991F0A940C
:10250000E2F7822B8C9381E081A30488F589E02D8A
:1025100080818064808381E090E0DF91CF911F9182
:102520000F910895FB01E05CFF4F208131812F5F07
:102530003F4F2F733327DB01AE5BBF4F4D915C9153
:102540002417350741F040815181DB01A40FB51FED
:102550008C933183208308951F920F920FB60F92B0
:1025600011240BB60F922F933F934F935F936F936A
:102570007F938F939F93AF93BF93EF93FF9380913C
:10258000C00082FD07C08091C6006FE876E10E941E
:10259000921202C08091C600FF91EF91BF91AF915E
:1025A0009F918F917F916F915F914F913F912F916B
:1025B0000F900BBE0F900FBE0F901F9018951F929B
:1025C0000F920FB60F9211240BB60F922F933F93D9
:1025D0004F935F936F937F938F939F93AF93BF932B
:1025E000EF93FF938091C80082FD07C08091CE00D9
:1025F00067E076E10E94921202C08091CE00FF91C6
:10260000EF91BF91AF919F918F917F916F915F916A
:102610004F913F912F910F900BBE0F900FBE0F90D7
:102620001F9018951F920F920FB60F9211240BB6A0
:102630000F922F933F934F935F936F937F938F935B
:102640009F93AF93BF93EF93FF938091D00082FD50
:1026500007C08091D6006FE775E10E94921202C018
:102660008091D600FF91EF91BF91AF919F918F9193
:102670007F916F915F914F913F912F910F900BBE82
:102680000F900FBE0F901F9018951F920F920FB6CC
:102690000F9211240BB60F922F933F934F935F939A
:1026A0006F937F938F939F93AF93BF93EF93FF931A
:1026B0008091300182FD07C08091360167EF74E19F
:1026C0000E94921202C080913601FF91EF91BF915A
:1026D000AF919F918F917F916F915F914F913F91BA
:1026E0002F910F900BBE0F900FBE0F901F9018955B
:1026F0001F920F920FB60F9211240BB60F922F93C9
:102700003F938F939F93EF93FF9320918B1630917C
:102710008C1680918D1690918E162817390731F4FA
:102720008091C1008F7D8093C10014C0E0918D160F
:10273000F0918E16E55BF94E208180918D16909177
:102740008E1601968F73992790938E1680938D160F
:102750002093C600FF91EF919F918F913F912F9110
:102760000F900BBE0F900FBE0F901F9018951F92E9
:102770000F920FB60F9211240BB60F922F933F9327
:102780008F939F93EF93FF9320910316309104163C
:1027900080910516909106162817390731F480911B
:1027A000C9008F7D8093C90014C0E0910516F09197
:1027B0000616ED53FA4E208180910516909106166B
:1027C00001968F7399279093061680930516209390
:1027D000CE00FF91EF919F918F913F912F910F909C
:1027E0000BBE0F900FBE0F901F9018951F920F9267
:1027F0000FB60F9211240BB60F922F933F938F9326
:102800009F93EF93FF9320917B1530917C158091DE
:102810007D1590917E152817390731F48091D100EC
:102820008F7D8093D10014C0E0917D15F0917E15CD
:10283000E55CFA4E208180917D1590917E15019680
:102840008F73992790937E1580937D152093D600E2
:10285000FF91EF919F918F913F912F910F900BBE20
:102860000F900FBE0F901F9018951F920F920FB6EA
:102870000F9211240BB60F922F933F938F939F9338
:10288000EF93FF932091F3143091F4148091F51499
:102890009091F6142817390731F4809131018F7D1A
:1028A0008093310114C0E091F514F091F614ED54C9
:1028B000FB4E20818091F5149091F61401968F7350
:1028C00099279093F6148093F51420933601FF9185
:1028D000EF919F918F913F912F910F900BBE0F9091
:1028E0000FBE0F901F901895CF92DF92EF92FF923C
:1028F0000F931F93CF93DF93EC016A017B01411586
:10290000514E6105710509F1EC89FD8981E090E086
:1029100008A002C0880F991F0A94E2F7808360E044
:1029200079E08DE390E0A70196010E94113C8901B6
:102930009A010150110921093109369527951795FA
:102940000795980101151041A8F0EC89FD891082C6
:1029500060E874E88EE190E0A70196010E94113CC6
:10296000DA01C9010197A109B109B695A795979513
:1029700087959C01E889F9893083EA89FB8920835E
:1029800019A2EE89FF89408181E090E09C010C8CC6
:1029900002C0220F331F0A94E2F7242B2083EE8912
:1029A000FF8940819C010D8C02C0220F331F0A94C5
:1029B000E2F7242B2083EE89FF8940819C010E8C55
:1029C00002C0220F331F0A94E2F7242B2083EE89E2
:1029D000FF8920810F8C02C0880F991F0A94E2F7AB
:1029E000809582238083DF91CF911F910F91FF907B
:1029F000EF90DF90CF900895CF92DF92EF92FF9209
:102A0000E1E9F4E11382128288EEC82E83E0D82E29
:102A1000E12CF12CC482D582E682F7826FE672E067
:102A2000718360838FE896E1958784878BE496E1D4
:102A30009787868785EC90E0918B808B84EC90E083
:102A4000938B828B80EC90E0958B848B81EC90E073
:102A5000978B868B82EC90E0918F808F86EC90E054
:102A6000938F828F44E0448F33E0358F27E0268FA9
:102A700095E0978F81E080A3EFE6F4E11382128264
:102A8000C482D582E682F78271836083A7E0B6E1D3
:102A9000B587A487A3ECB5E1B787A687ADECB0E016
:102AA000B18BA08BACECB0E0B38BA28BA8ECB0E008
:102AB000B58BA48BA9ECB0E0B78BA68BAAECB0E0E9
:102AC000B18FA08FAEECB0E0B38FA28F448F358F63
:102AD000268F978F80A3EDE4F4E113821282C482E3
:102AE000D582E682F78271836083AFE7B5E1B5876F
:102AF000A487ABE3B5E1B787A687A5EDB0E0B18BBE
:102B0000A08BA4EDB0E0B38BA28BA0EDB0E0B58BB1
:102B1000A48BA1EDB0E0B78BA68BA2EDB0E0B18F96
:102B2000A08FA6EDB0E0B38FA28F448F358F268F94
:102B3000978F80A3EBE2F4E113821282C482D582E4
:102B4000E682F7827183608367EF74E1758764873B
:102B500063EB74E17787668765E371E0718B608B67
:102B600064E371E0738B628B60E371E0758B648B5F
:102B700061E371E0778B668B62E371E0718F608F48
:102B800066E371E0738F628F448F358F268F978F46
:102B900080A3FF90EF90DF90CF900895CF93DF93C5
:102BA00000D01F92CDB7DEB7611571058105910583
:102BB00079F09B01AC0169833A834B835C830E946B
:102BC0005C3729813A814B815C810E94333C03C090
:102BD00060E070E0CB010F900F900F900F90DF91AD
:102BE000CF910895CF92DF92EF92FF920F931F93B0
:102BF000621773078407950784F489019A016B01B2
:102C00007C01C901B8016C197D098E099F090E94D8
:102C1000CE156C0D7D1D8E1D9F1D1F910F91FF9078
:102C2000EF90DF90CF9008954F925F926F927F92D6
:102C3000AF92BF92CF92DF92EF92FF920F931F93CA
:102C4000CF93DF93CDB7DEB729013A019B01AC01E9
:102C500024193509460957098A899B89AC89BD8998
:102C6000BC01CD016A197B098C099D090E94E13BD9
:102C7000A801970124193509460957090E94333CD8
:102C8000CA01B9016A0D7B1D8C1D9D1DDF91CF917D
:102C90001F910F91FF90EF90DF90CF90BF90AF907A
:102CA0007F906F905F904F9008950F931F93CF93F5
:102CB000DF93EC01462F61E00E943121882391F0DF
:102CC0008E01045F1F4F41E0BE01C8010E94E7264C
:102CD000882351F0B801CE018A960E940D1A91E026
:102CE00081110AC090E008C040E0BE01C8010E9406
:102CF000E7268823B9F3EECF892FDF91CF911F917B
:102D00000F910895FC01DB0112968D919C91139710
:102D10009383828381E992E09183808314968C91DE
:102D20001497848315968C911597858316964D91EB
:102D30005D916D917C911997468357836087718768
:102D40001A964D915D916D917C911D9742875387A5
:102D5000648775871E964D915D916D917C91519719
:102D600046875787608B718B52968C915297828BD6
:102D700053964D915D916D917C915697438B548BF9
:102D8000658B768B57964D915D916D917C915A979D
:102D9000478B508F618F728F5B968D919C915C9762
:102DA000948F838F08954F925F926F927F928F924C
:102DB0009F92AF92BF92CF92DF92EF92FF920F93CA
:102DC0001F93CF93DF93CDB7DEB7C754D1090FB6AA
:102DD000F894DEBF0FBECDBF6C015A014901665D9C
:102DE0007F4F7E018EE1E80EF11CC7010E94821622
:102DF0001C821B8281E992E09A8389831E8285016D
:102E0000FE0131963F0127016FE270E0C8010E9488
:102E1000A4370097D9F1F80120812F3219F40F5F00
:102E20001F4FF2CF801B8D3008F08CE0E82EF12C84
:102E3000A701B801CE01CB960E94AF37EBE3F0E0DB
:102E4000EC0FFD1FEE0DFF1D1082C3010E94891CB7
:102E500021E0AE01455C5F4FB201C3010E94BD1D80
:102E6000811109C0F6011382128281E992E09183F7
:102E70008083158214C00E0D1F1DC2010E94891C83
:102E8000942D852D2301692E782EBECF0A191B099A
:102E9000F40111830083B201C6010E948216C601AB
:102EA000C95BDF4F0FB6F894DEBF0FBECDBFDF9119
:102EB000CF911F910F91FF90EF90DF90CF90BF9037
:102EC000AF909F908F907F906F905F904F900895FC
:102ED000CF92DF92FF920F931F93CF93DF93CDB7E3
:102EE000DEB7C955D1090FB6F894DEBF0FBECDBF0E
:102EF0006C018A01F22E9E01285A3F4FCE01CB96DB
:102F00000E94D3166A968EAD9FAD6A97080F191F5F
:102F1000F801808181110AC0BE01655C7F4FCE013E
:102F200001960E9482164BE752E03EC019A218A2F9
:102F300081E992E09F8F8E8F1BA221968FAD219702
:102F4000811104C0C6010E94BB1834C082502F2DCD
:102F5000A801823048F46DEF76E1CE014E960E94D2
:102F6000BD1D81110EC0EECFBE01655C7F4FCE014D
:102F70004E960E94BD1D882329F3CE01CB960E9458
:102F8000891C9F2D967041F049A95AA96BA97CA96B
:102F9000CE014E960E94AC1BBE01625E7F4FCE01F9
:102FA00001960E948216A801BE016F5F7F4FC60185
:102FB0000E948618C601C75ADF4F0FB6F894DEBFCD
:102FC0000FBECDBFDF91CF911F910F91FF90DF908A
:102FD000CF900895E3EDF6E11582168211861386EF
:102FE00082E090E0A0E0B0E084879587A687B7876D
:102FF00013A215A614A681E992E093A782A717A6AB
:103000000895CF93DF931F92CDB7DEB76983DC01BC
:10301000ED91FC910280F381E02D41E050E0BE0192
:103020006F5F7F4F19950F90DF91CF910895CF93E8
:10303000DF93EC01898D9A8D009739F481E090E05F
:103040009B838A8380E090E00BC0FC011382128294
:103050000E94AB1EE98DFA8D22813381232B71F7FB
:10306000DF91CF910895FC01818D928D009711F031
:103070000C94421C0895CF93DF931F92CDB7DEB717
:1030800041E050E0BE016F5F7F4F0E945E1A0197E2
:1030900019F4898190E002C08FEF9FEF0F90DF91CC
:1030A000CF910895FC01818D928D009711F00C94C1
:1030B0003B188FEF9FEF08950F931F93CF93DF93EC
:1030C000FC01818D928D0097B9F0EF010E943B18B1
:1030D0008C010F3F8FEF180791F0898D9A8DFC01BD
:1030E000428553856485758541505109610971098F
:1030F0000E94AC1BC80105C080E090E002C08FEFC9
:103100009FEFDF91CF911F910F910895EF92FF9262
:103110000F931F93CF93DF93EC017B018A011B82F6
:103120001A8288EE93E0A0E0B0E08C839D83AE83AA
:10313000BF8381E892E0998388838DE190E00E94CB
:103140008F0F9A8F898F009779F02DE1F701DC01BD
:1031500001900D922A95E1F74CE050E0B801CE01C4
:103160000C960E94AF37188EDF91CF911F910F916F
:10317000FF90EF900895FC011382128288EE93E095
:10318000A0E0B0E084839583A683B78381E892E0D2
:1031900091838083128E118E148608950895FC0108
:1031A000818D928D009711F00C94AC1B80E00895F6
:1031B000DC015996ED91FC915A97309729F0628580
:1031C00073858485958508956FEF7FEFCB01089512
:1031D000DC015996ED91FC915A97309729F063895B
:1031E000748985899689089560E070E0CB0108951F
:1031F000CF92DF92EF92FF92CF93DF93FC01218D6C
:10320000328D232BD9F0EC010E94E8186B017C0170
:10321000CE010E94D818A7019601261B370B480B38
:10322000590BDA01C901811530E89307A105B105F1
:1032300038F08FEF9FE7A0E0B0E002C080E090E0C0
:10324000DF91CF91FF90EF90DF90CF900895DC0158
:103250005996ED91FC915A97309721F081E0958134
:10326000911101C080E00895CF93DF93EC019C01A0
:103270002A5F3F4F41E050E060E070E08B8D9C8D15
:103280000E947C258823A1F08F89988DA98DBA8D05
:10329000892B8A2B8B2B59F48E819F81A885B98528
:1032A0008F8B988FA98FBA8F8C8180688C8381E0F7
:1032B000DF91CF910895CF92DF92EF92FF921F930B
:1032C000CF93DF93EC010E943419811102C080E09A
:1032D0004AC0EB8DFC8DCE80DF80E884F98482E0EB
:1032E000C81AD108E108F108058404C0CC0CDD1C23
:1032F000EE1CFF1C0A94D2F786859785A089B189B8
:10330000C80ED91EEA1EFB1E148181E0C81AD1081E
:10331000E108F108112361F0C701B601610F711DC9
:10332000811D911D0E94CB23882389F21150F2CF79
:10333000EB8DFC8D80E092E0A0E0B0E0058404C05D
:10334000880F991FAA1FBB1F0A94D2F74B895C896B
:103350006D897E89840F951FA61FB71F8B8B9C8B51
:10336000AD8BBE8B81E0DF91CF911F91FF90EF90ED
:10337000DF90CF900895CF93DF93EC01462F6E85B9
:103380007F85888999890E949023882341F08A89C2
:1033900020E2829FC00111248B5D984E02C080E024
:1033A00090E0DF91CF910895FB019B01255F3F4F96
:1033B00040E24193E217F307E1F7DC0190E027E0F8
:1033C0008D91882319F18E3219F0EAE9F3E008C0F3
:1033D0002A3009F198E02AE0F3CF31963817D9F076
:1033E00034913111FACF2917B0F03FED380F3E3547
:1033F00090F431E0390FFB01E90FF11D9FE9980FBF
:103400009A3108F480528083932FDACF81E0FB0158
:103410009081903209F480E008950F931F93CF9329
:10342000DF93FC012581222311F080E042C08B0153
:10343000EC01FB0187898031B1F482E08D831F8A22
:10344000188E198E1A8E808D918DA0E0B0E025E047
:10345000880F991FAA1FBB1F2A95D1F78B8B9C8BB6
:10346000AD8BBE8B15C0803201F783E08D83FB01ED
:10347000428D538D648D758D4F8B588F698F7A8FE8
:103480009E012D5E3F4FC8010E947324882369F27C
:103490001C8F0B8F81E08C831E821F8218861986F9
:1034A0001A861B861C861D861E861F86188A198A08
:1034B0001A8ADF91CF911F910F9108952F923F9219
:1034C0004F925F926F927F928F929F92AF92BF9234
:1034D000CF92DF92EF92FF920F931F93CF93DF93E0
:1034E000EC015B014A018D81811103C08FEF9FEFD9
:1034F000D7C08C8180FFFACF4B885C886D887E882E
:103500004A855B856C857D85C401A0E0B0E09301B0
:103510008201041B150B260B370B081719072A0706
:103520003B0718F44201841A950A24011E0126E083
:10353000220E311C4114510409F47EC04A855B857A
:103540006C857D856A0181E0D822ED818A019B012D
:1035500089E036952795179507958A95D1F78B8D34
:103560009C8DE23061F4FC01828D938DA48DB58D2C
:10357000BC01CD01600F711F821F931F3FC0FC0172
:1035800074807A947022C114D104C9F4711017C0E8
:10359000452B462B472B49F48F89988DA98DBA8DE1
:1035A0008E839F83A887B9870AC04E815F81688513
:1035B000798591010E94EF23882309F497CFEB8D41
:1035C000FC8D8E819F81A885B9850297A109B109DB
:1035D000058404C0880F991FAA1FBB1F0A94D2F745
:1035E0004685578560897189840F951FA61FB71F6F
:1035F000BC01CD01670D711D811D911D20E032E0E0
:103600002C193D0932012415350508F439012C81A6
:1036100026FD04C06114F2E07F0679F500911002E6
:10362000109111022091120230911302601771075C
:103630008207930719F421C0C40132C075018301C8
:103640009601AB01BC0180912317909124170E9431
:10365000B322882309F44ACFA60CB71C8A859B8520
:10366000AC85BD85860D971DA11DB11D8A879B87E1
:10367000AC87BD87461857085DCF40E00E94902375
:10368000882309F433CFF601EB5DF84ED501CF0165
:10369000860D971DE817F907F9F221912D93FACFBE
:1036A000DF91CF911F910F91FF90EF90DF90CF901E
:1036B000BF90AF909F908F907F906F905F904F9052
:1036C0003F902F900895FF920F931F93CF93DF9316
:1036D0001F92CDB7DEB7FC012581223018F480E0BF
:1036E00090E033C08C01FC0142855385648575856B
:1036F00085E076956795579547958A95D1F7F42F8C
:10370000FF70FF2E41E050E0BE016F5F7F4FC801A8
:103710000E945E1A019719F4898190E002C08FEF30
:103720009FEF0196E1F2F80182859385A485B58526
:103730004F96A11DB11D82879387A487B587F0E2BC
:10374000FF9EC00111248B5D984E0F90DF91CF91A9
:103750001F910F91FF9008958F929F92AF92BF9209
:10376000CF92DF92EF92FF920F931F93CF93DF934D
:10377000EC018D81811102C080E077C00B891C892A
:103780002D893E890417150726073707A8F36A0114
:103790007B01823029F4CA86DB86EC86FD860DC06B
:1037A000C114D104E104F10451F41E821F82188671
:1037B00019861A861B861C861D8681E056C08A845F
:1037C0009B84AC84BD84EB8DFC8D258530E0275F28
:1037D0003F4FB501A4014150510961097109022E01
:1037E00004C076956795579547950A94D2F7D70107
:1037F000C6010197A109B10904C0B695A79597958F
:1038000087952A95D2F784179507A607B70720F062
:1038100089288A288B2849F44F89588D698D7A8D9B
:103820004E835F836887798704C0841B950BA60B42
:10383000B70B4C015D018E010A5F1F4F811491048B
:10384000A104B10409F4A7CF4E815F816885798511
:1038500098018B8D9C8D0E94EF2391E0891A91082D
:10386000A108B1088111EACF87CFDF91CF911F91D5
:103870000F91FF90EF90DF90CF90BF90AF909F900F
:103880008F9008950F931F93CF93DF93EC018D8159
:103890008823C9F18C8187FF30C061E0CE010E948E
:1038A000BB198C01892B79F18D81823048F48B8989
:1038B0009C89AD89BE89F801848F958FA68FB78FBB
:1038C0008F89988DA98DBA8DF801938F828FB58BD2
:1038D000A48BE0911C17F0911D17309759F0B80197
:1038E0006A5E7F4FC80148961995F801808D918DC9
:1038F000938B828B8C818F778C83DF91CF911F91FB
:103900000F910C94552380E0DF91CF911F910F917F
:103910000895CF93DF93EC010E94421C882311F09D
:103920001D8281E0DF91CF9108954F925F926F9257
:103930007F928F929F92AF92BF92EF92FF920F93DE
:103940001F93CF93DF9300D01F92CDB7DEB7FC015A
:1039500085818130E9F4848181FF1AC0838994894B
:10396000A589B68984179507A607B70788F0892B1C
:103970008A2B8B2B09F479C04A015B017F014284B9
:10398000538464847584CF010E94AC1B811102C0F2
:1039900080E06CC0F701838D948D81149104A104A3
:1039A000B10471F44789508D618D728D0E9491260A
:1039B000882371F3F701178A108E118E128E3AC088
:1039C000F70146815781608571859E012F5F3F4FCA
:1039D0000E94EF238823E1F249815A816B817C8127
:1039E000F701838D948DFC012789203129F008EFA0
:1039F0001FEF2FEF3FE004C008EF1FEF20E030E0A3
:103A00004017510762077307A8F40E949126882384
:103A100009F4BECFF70146815781608571850FEFAC
:103A20001FEF2FEF3FE0838D948D0E94DC248823CD
:103A300009F4AECFF701838A948AA58AB68A848175
:103A400080688483C7010E94421C882309F4A0CFA8
:103A5000B501A401481459046A047B0410F4B301AD
:103A6000A201C7010E94AC1B01C081E00F900F9022
:103A70000F900F90DF91CF911F910F91FF90EF90DA
:103A8000BF90AF909F908F907F906F905F904F907E
:103A900008951F93CF93DF93EC0180E2689FF001BC
:103AA00011249F012B5D384ED9011B969C91917179
:103AB00029F0842F827411F080E05BC0142F6A8B90
:103AC0008091100290911102A0911202B091130204
:103AD0008E879F87A88BB98BEB5DF84E44895589FB
:103AE00060E070E0BA01552744274F8B588F698FEB
:103AF0007A8F828D938DA0E0B0E0482B592B6A2BF2
:103B00007B2B4F8B588F698F7A8FD9011B968C91A5
:103B1000887151F4848D958DA68DB78D8B8B9C8B80
:103B2000AD8BBE8B81E00DC0803131F69E012D5EE4
:103B30003F4F8B8D9C8D0E947324882309F4BCCF4A
:103B400084E08D83812F8F708C831E821F82188664
:103B500019861A861B861C861D8616FF09C040E042
:103B600050E0BA01CE01DF91CF911F910C94951CCA
:103B700081E0DF91CF911F910895CF92DF92EF9274
:103B8000FF920F931F93CF93DF93CDB7DEB72C97A0
:103B90000FB6F894DEBF0FBECDBFFC0135813111E9
:103BA000C2C0D22E8B017C01BE016F5F7F4FCA0164
:103BB0000E94D419882309F4B6C0F801838D948D2E
:103BC000F701948F838FF801168217821086118671
:103BD000128613861486158630E0F8018285938557
:103BE000A485B585438954896589768984179507A5
:103BF000A607B70708F041C025E0B695A7959795A9
:103C000087952A95D1F7F82FFF70CF2EC8013C87F2
:103C10000E94631B3C85009709F485C0FC0120814C
:103C2000222309F484C0253E99F04BE050E0BC010A
:103C3000CE0101963C870E9497373C85892B69F617
:103C40008D2D8073803309F46EC04D2D6C2D67C0AF
:103C500031116BC0F701C28A4091100250911102DC
:103C6000609112027091130246875787608B718BA7
:103C7000FC01808131E08111B0CF8D2D82718231C4
:103C800009F051C0332341F061E0C7010E94BB1924
:103C90008C01892B79F447C0F8018581823009F4C1
:103CA00042C0C8010E945B198823E9F1F701128A1A
:103CB00005E217E180E2F80111928A95E9F78BE0BD
:103CC000FE013196D80101900D928A95E1F7E091BD
:103CD0001C17F0911D17309739F0B801625F7F4FC4
:103CE000C8014096199509C081E298E2F801918BCC
:103CF000808B80E098E097878687F801808991899A
:103D0000938B828B918F808F86859785978B868BFF
:103D10000E945523882339F04D2DF7016289C70190
:103D20000E94491D09C080E007C031E056CF33230F
:103D300009F490CF31E0A1CF2C960FB6F894DEBFF6
:103D40000FBECDBFDF91CF911F910F91FF90EF90EC
:103D5000DF90CF9008952F923F924F925F926F9293
:103D60007F928F929F92AF92BF92CF92DF92EF920B
:103D7000FF920F931F93CF93DF9300D01F92CDB785
:103D8000DEB78C016B013A01DC0115968C91159719
:103D90008130C9F414968C9181FF15C082FF1DC03B
:103DA000F801438954896589768982859385A4853C
:103DB000B58584179507A607B70779F0C8010E9453
:103DC000AC1B81110AC081E090E0D80113969C934E
:103DD0008E93129780E090E048C1430184C0D801DF
:103DE0005B968D919C915C97FC0154802FEF250D83
:103DF0001A012B0139E056944794379427943A9549
:103E0000D1F7522E52207A01F1E0FF22552009F419
:103E100076C080E092E08E199F09540188159905BB
:103E200008F45C01D8015B962D913C915C97169645
:103E30008D919D910D90BC91A02D0297A109B10982
:103E4000F901058404C0880F991FAA1FBB1F0A949B
:103E5000D2F74685578560897189840F951FA61F03
:103E6000B71F9C01AD01250D311D411D511D1901CB
:103E70002A01A11432E0B30609F088C08091100233
:103E800090911102A0911202B09113028215930534
:103E9000A405B50559F48FEF9FEFDC018093100264
:103EA00090931102A0931202B09313029601B201F3
:103EB000A10180912317909124170E940723882342
:103EC00009F481CF9EEFD91A8A189B08F8018285E0
:103ED0009385A485B5858A0D9B1DA11DB11D828783
:103EE0009387A487B587D8011A964D915D916D91FE
:103EF0007C911D978114910409F071CF87C0E11462
:103F0000F10409F086CF16964D915D916D917C91EB
:103F10001997411551056105710559F457968D9111
:103F20009D910D90BC91A02D0097A105B10541F583
:103F300021C09E012F5F3F4F0E94EF23882309F489
:103F40004ACF89819A81AB81BC81F801238D348D60
:103F5000F9012789203129F048EF5FEF6FEF7FE00B
:103F600004C048EF5FEF60E070E084179507A60794
:103F7000B70730F0C8010E94341981114ACF23CF0E
:103F8000F80186839783A087B18743CFE114F104BA
:103F900029F5D8011A964D915D916D917C911D97EF
:103FA00053968D919D910D90BC91A02D4817590766
:103FB0006A077B0798F00E945523882309F403CFF2
:103FC000209210023092110240921202509213027B
:103FD0008091221781608093221708C041E0C201BE
:103FE000B1010E949023882309F4EDCED601F70198
:103FF000EB5DF84ECF018A0D9B1DE817F90719F00C
:104000002D912193FACFCA0CDB1C5ECF5396CD9035
:10401000DD90ED90FC90569714968C91C416D506C1
:10402000E606F70640F4F801438B548B658B768BDC
:10403000806884830DC020911C1730911D17232B9D
:1040400039F06114710421F08068D80114968C93C2
:10405000F801848183FD02C0C30107C0C8010E942A
:10406000421C882309F4AFCEF7CF0F900F900F902A
:104070000F90DF91CF911F910F91FF90EF90DF9004
:10408000CF90BF90AF909F908F907F906F905F90F8
:104090004F903F902F900895CF93DF931F92CDB70D
:1040A000DEB7698341E050E0BE016F5F7F4F0E9441
:1040B000AB1E0F90DF91CF9108958EBD0DB407FE1A
:1040C000FDCF08958FEF0E945D208EB5089561E0C9
:1040D000FC0184810C945F0F60E0FC0184810C94EE
:1040E0005F0FCF93DF93FC0186818823D1F08FEFA0
:1040F0008EBD4FEF878190859C012F5F3F4F3087AA
:1041000027838130924028F40DB407FEFDCF4EBDC9
:10411000F1CF0DB407FEFDCFEF01CF010E94672064
:104120001E82DF91CF910895673028F026E1FC01CF
:10413000258380E008958DB560FD02C0663011F4DE
:104140008E7F01C081608DBD8CB58C7F8CBD9CB590
:1041500062FD02C080E001C082E066956170692B5B
:10416000862B8CBD81E008950F931F93CF93DF932F
:10417000EB010E94F30D8B010E9462208F3F49F0FA
:104180000E94F30D601B710B6C177D07A8F380E094
:1041900001C081E0DF91CF911F910F910895CF92DF
:1041A000DF92FF920F931F93CF93DF9300D01F9264
:1041B000CDB7DEB76C01F62E29833A834B835C833F
:1041C0000E947120C6010E946C206CE271E0C60161
:1041D0000E94B4208F2D80640E945D2008E110E0D1
:1041E0005C814B813A812981DA01C901002E04C02A
:1041F000B695A795979587950A94D2F729833A8320
:104200004B835C830E945D200850110929813A810B
:104210004B815C81083F8FEF180731F7FF2029F0B1
:10422000E8E0FE1204C087E803C085E901C08FEF13
:104230000E945D2010E00E946220F601828787FFC5
:1042400004C01F3F11F01F5FF6CF0F900F900F902B
:104250000F90DF91CF911F910F91FF90DF90CF9042
:1042600008958F929F92AF92BF92EF92FF920F9319
:104270001F93CF93DF93EC01E62E1B8619861E82D7
:104280001D824C830E94F30D8B0161E08C810E94A2
:10429000230FCE010E94672060E082E30E94230F7B
:1042A00061E083E30E94230F61E084E30E94230F17
:1042B00061E085E30E94230F61E085E30E945F0FC8
:1042C00083E58CBD8DB58E7F8DBD2AE0F22E8FEFFC
:1042D0000E945D20FA94F110FACFCE010E946C206A
:1042E00020E030E0A90160E0CE010E94CF20F82E4E
:1042F0008A8781E0F81649F00E94F30D601B710B6C
:10430000613D774068F381E04CC02AEA31E040E04B
:1043100050E068E0CE010E94CF2082FF02C0FB8601
:104320000EC094E0F92E0E9462208A87FA94F11060
:10433000FACF8A3A11F082E034C082E08B878B8515
:10434000823021F0812C912C540105C0812C912CBC
:10435000A12C80E4B82E20E030E0A90167E3CE0173
:104360000E94CF20A501940169E2CE010E94CF20D6
:104370008A87882349F00E94F30D601B710B613D11
:10438000774048F388E00DC08B85823039F520E016
:1043900030E0A9016AE3CE010E94CF20882389F092
:1043A00086E08D83CE010E94672080E0DF91CF916F
:1043B0001F910F91FF90EF90BF90AF909F908F90C3
:1043C00008950E946220807C803C11F483E08B87FA
:1043D0000E9462200E9462200E946220CE010E9400
:1043E00067206E2DCE01DF91CF911F910F91FF902D
:1043F000EF90BF90AF909F908F900C9494200F936C
:104400001F93CF93DF93EC010E94F30D8B010E9469
:1044100062208A878F3F49F40E94F30D601B710B65
:104420006D327140A0F38FE003C08E3F39F08DE014
:104430008D83CE010E94672080E001C081E0DF9182
:10444000CF911F910F910895CF92DF92EF92FF923B
:104450000F931F93CF93DF93EC016901C801820F83
:10446000931F8130924008F06FC08E81882371F0D5
:1044700088819981AA81BB81481759076A077B0700
:1044800029F48F819885C816D90618F54883598371
:104490006A837B838B85833039F089E0440F551F15
:1044A000661F771F8A95D1F79A01AB0161E1CE01B2
:1044B0000E94CF20882319F083E08D8345C0CE0170
:1044C0000E94FF21882309F43FC018861F8281E0E3
:1044D0008E838FEF8EBD2FEF8F8198858C159D0574
:1044E00050F40DB407FEFDCF2EBD8F819885019647
:1044F00098878F83F1CFC8010197F7014FEF9F0194
:104500002E193F092817390738F40DB407FEFDCFDF
:104510002EB521934EBDF3CF0DB407FEFDCF2EB5C2
:10452000F701E80FF91F20838F819885080F191F65
:1045300018870F838985882319F00115124048F0E8
:10454000CE010E94712005C0CE010E94672080E04C
:1045500001C081E0DF91CF911F910F91FF90EF900B
:10456000DF90CF900895EF92FF920F931F93011564
:10457000110519F00E94242201C081E01F910F91C2
:10458000FF90EF900895EF92FF920F931F937901A0
:1045900000E012E020E030E00E9424221F910F9101
:1045A000FF90EF900895CF93DF93EC016EBD20E074
:1045B00030E00DB407FEFDCFFA01E20FF31F80815A
:1045C0008EBD0DB407FEFDCF81818EBD2E5F3F4FA6
:1045D000211582E0380769F70DB407FEFDCF8FEF94
:1045E0000E945D208FEF0E945D200E9462208A87DA
:1045F000982F9F71953039F081E18D83CE010E9413
:10460000672080E001C081E0DF91CF9108950F9392
:104610001F93CF93DF93EC0189014115510561058B
:10462000710511F482E132C08B85833039F089E065
:10463000440F551F661F771F8A95D1F79A01AB016A
:1046400068E1CE010E94CF20882311F084E01EC0D3
:10465000A8016EEFCE010E94D3228823C1F068E545
:1046600072E0CE010E94B420811102C085E10EC02B
:1046700020E030E0A9016DE0CE010E94CF20811141
:1046800004C00E946220882339F084E18D83CE012A
:104690000E94672080E004C0CE010E94672081E074
:1046A000DF91CF911F910F91089580912217882358
:1046B000A9F1409110025091110260911202709183
:1046C000130225E237E180912317909124170E946D
:1046D0000723811102C080E0089540911E17509178
:1046E0001F17609120177091211741155105610521
:1046F000710591F025E237E18091231790912417FD
:104700000E940723882339F310921E1710921F1757
:1047100010922017109221171092221781E008950D
:10472000CF92DF92EF92FF92CF936B017C01C42F67
:104730008091100290911102A0911202B091130287
:104740008C159D05AE05BF05D1F00E945523811142
:1047500002C080E01AC025E237E1B701A6018091CE
:104760002317909124170E94C322882391F3C092AB
:104770001002D0921102E0921202F0921302809184
:104780002217C82BC093221781E0CF91FF90EF90A2
:10479000DF90CF900895CF92DF92EF92FF926B015E
:1047A0007C010E9455238823A9F0E5E2F7E11192EC
:1047B00089E1E532F807D9F7C0921002D0921102D0
:1047C000E0921202F092130280912217816080938E
:1047D000221781E0FF90EF90DF90CF9008958F92A5
:1047E0009F92AF92BF92CF92DF92EF92FF920F9380
:1047F0001F93CF93DF93FC0181859285A385B485B8
:104800000196A11DB11D84179507A607B70710F4DF
:1048100080E05CC083899489A589B689C789C03145
:1048200029F4852E962EA72EBB2409C04A015B01D0
:10483000C7E0B694A79497948794CA95D1F7E901F5
:104840006A017B018F01BC01CD01680D791D8A1DB4
:104850009B1D8090100290901102A0901202B090C7
:104860001302681579058A059B0599F4F801878973
:104870008031A9F4B701A601552766277727440F91
:10488000551FFA01EB5DF84E80819181A0E0B0E008
:1048900018C040E00E9490238111E8CFB9CFB70142
:1048A000A6014F77552766277727440F551F440FDA
:1048B000551FFA01EB5DF84E80819181A281B38191
:1048C000BF7088839983AA83BB8381E0DF91CF91F6
:1048D0001F910F91FF90EF90DF90CF90BF90AF901E
:1048E0009F908F9008954F925F926F927F92AF92B8
:1048F000BF92CF92DF92EF92FF920F931F93CF93CD
:10490000DF9300D01F92CDB7DEB78C0149835A8365
:104910006B837C835901C12CD12C7601412C82E020
:10492000582E612C712C49815A816B817C819E01AA
:104930002F5F3F4FC8010E94EF23882351F1D3011D
:10494000C201F801058404C0880F991FAA1FBB1F6C
:104950000A94D2F7C80ED91EEA1EFB1E49815A815D
:104960006B817C818789803129F088EF9FEFAFEFE1
:10497000BFE004C088EF9FEFA0E0B0E04817590700
:104980006A077B0780F2F501C082D182E282F3825E
:1049900081E00F900F900F900F90DF91CF911F91BA
:1049A0000F91FF90EF90DF90CF90BF90AF907F90EE
:1049B0006F905F904F9008954F925F926F927F92A9
:1049C0008F929F92AF92BF92CF92DF92EF92FF921F
:1049D0000F931F93CF93DF93EC016A017B012801B2
:1049E0003901423051056105710510F480E073C052
:1049F00089859A85AB85BC850196A11DB11D84175B
:104A00009507A607B70790F38B889C88AD88BE886A
:104A10008F89803129F4BB27AF2D9E2D8D2D09C0A4
:104A2000DB01CA0147E0B695A795979587954A950A
:104A3000D1F7880E991EAA1EBB1E8091100290917C
:104A40001102A0911202B091130288169906AA06CB
:104A5000BB0679F48F898031A1F4DD24EE24FF2494
:104A6000C601880F991FFC01EB5DF84E5182408210
:104A700019C040E0C501B4010E9490238111EACF22
:104A8000B5CFE894C7F8DD24EE24FF24C601880FD3
:104A9000991F880F991FFC01EB5DF84E40825182EF
:104AA00062827382809122178160809322178A89A3
:104AB000823080F08D819E81AF81B885880E991EED
:104AC000AA1EBB1E80921E1790921F17A09220173D
:104AD000B092211781E0DF91CF911F910F91FF904C
:104AE000EF90DF90CF90BF90AF909F908F907F908E
:104AF0006F905F904F9008952F923F924F925F92E8
:104B00006F927F929F92AF92BF92CF92DF92EF927D
:104B1000FF920F931F93CF93DF93CDB7DEB76097CC
:104B20000FB6F894DEBF0FBECDBF5C0149875A8730
:104B30006B877C871901D901CD90DD90ED90FC90B9
:104B4000C114D104E104F10431F0BFEFCB1ADB0A48
:104B5000EB0AFB0A10C0FC01C080D180E280F38028
:104B60009924939409851A852B853C85013011057C
:104B70002105310509F0912CF50181859285A385E8
:104B8000B4858C019D010F5F1F4F2F4F3F4F0D8745
:104B90001E872F87388B260137011D821E821F82B8
:104BA0001886F50181859285A385B4850D811E81C6
:104BB0002F813885081719072A073B0708F056C0C8
:104BC0002D853E854F8558892415350546055705A1
:104BD00050F482E0482E512C612C712C92E0C92EA9
:104BE000D12CE12CF12C9E012F5F3F4FB301A2018C
:104BF000C5010E94EF238823C9F149815A816B8145
:104C00007C81D301C2010196A11DB11D452B462B0C
:104C1000472B19F06C017D010FC0AC01BD014C198F
:104C20005D096E097F0909851A852B853C8540172A
:104C300051076207730779F02D813E814F815885B6
:104C40002F5F3F4F4F4F5F4F2D833E834F835887DA
:104C50002C013D01A6CF0FEF1FEF2FEF3FE0B30177
:104C6000A201C5010E94DC24811118C080E041C06E
:104C7000D301C2010197A109B1098D839E83AF833E
:104C8000B88793018201AC01BD01C5010E94DC24FB
:104C9000882361F34D805E806F807884C414D504CE
:104CA000E604F70428F3D1014D915D916D917C915B
:104CB000411551056105710599F4F101C082D18258
:104CC000E282F3829920A1F0FFEFCF1ADF0AEF0A08
:104CD000FF0AD501CD92DD92ED92FC92139708C0A8
:104CE00097018601C5010E94DC248111E6CFBECF69
:104CF00081E060960FB6F894DEBF0FBECDBFDF91A6
:104D0000CF911F910F91FF90EF90DF90CF90BF90C8
:104D1000AF909F907F906F905F904F903F902F90BB
:104D20000895AF92BF92CF92DF92EF92FF920F93CE
:104D30001F93CF93DF9300D01F92CDB7DEB75C01F6
:104D40006A017B0182E090E0A0E0B0E0F5018083A1
:104D50009183A283B3839E012F5F3F4FB701A601CA
:104D6000C5010E94EF23882311F100E010E09801B3
:104D7000B701A601C5010E94DC248823C1F0C980C7
:104D8000DA80EB80FC80F5018789803129F088EF9B
:104D90009FEFAFEFBFE004C088EF9FEFA0E0B0E06F
:104DA000C816D906EA06FB06B0F281E001C080E031
:104DB0000F900F900F900F90DF91CF911F910F9157
:104DC000FF90EF90DF90CF90BF90AF9008958F92BB
:104DD0009F92AF92BF92CF92DF92EF92FF920F938A
:104DE0001F93CF93DF93EC01142F709324176093DC
:104DF0002317442369F1453010F080E0F2C040E011
:104E000060E070E0CB010E9490238823B1F320E1A1
:104E1000129FA00111244B5E584EFA01E254FE4F3E
:104E200080818F7751F73C9680819181A281B381F7
:104E300084369105A105B10500F33497C080D18077
:104E4000E280F380C114D104E104F10421F4D5CF50
:104E5000C12CD12C760140E0C701B6010E949023FD
:104E6000882359F280913017909131178115924023
:104E700021F690913517992309F4BFCF209133176C
:104E800030913417232B09F4B8CF8091321788233F
:104E900009F4B3CF9A8B8C831D8690E061E070E0BB
:104EA0002D85E22FAB01022E02C0440F551F0A943C
:104EB000E2F78417950731F031E0320F3D87283053
:104EC00078F39BCF20913B1730913C17211531058A
:104ED00019F040E050E008C02091491730914A177E
:104EE00040914B1750914C172D833E834F83588729
:104EF000809133179091341746015701880E991EFF
:104F0000A11CB11C8B8A9C8AAD8ABE8A009136177F
:104F100010913717198F088FA0913517B0E00E94B4
:104F2000783C860E971EA81EB91E8A8E9B8EAC8E6C
:104F3000BD8E85E0000F111F8A95E1F701501E4FCD
:104F4000012F11270695800E911EA11CB11C8E8683
:104F50009F86A88AB98A2091381730913917211570
:104F6000310521F0A90160E070E008C040914517CB
:104F7000509146176091471770914817D701C601A5
:104F800088199909AA09BB09840F951FA61FB71F85
:104F900004C0B695A79597958795EA95D2F7898726
:104FA0009A87AB87BC87853F2FE09207A105B105A3
:104FB00010F48CE014C0853F9F4FA105B10510F49B
:104FC00080E10DC08091511790915217A091531715
:104FD000B09154178A8F9B8FAC8FBD8F80E28F8BDF
:104FE00081E0DF91CF911F910F91FF90EF90DF90C3
:104FF000CF90BF90AF909F908F9008952F923F9247
:105000004F925F926F927F928F929F92AF92BF92D8
:10501000CF92DF92EF92FF920F931F93CF93DF9384
:1050200000D0CDB7DEB74C017B836A836A0159019A
:1050300017019801241B350B37FF03C031952195CB
:105040003109C5014A815B81841B950B97FF03C021
:1050500091958195910951E059838217930714F036
:1050600019820BC09A2D8B2D5801092F182F9A8168
:105070008B81DB82CA82C92ED82E8A819B81A81699
:10508000B9065CF49C2D8D2D6801092F182F9A818B
:105090008B81BB82AA82A92EB82E2501AA81BB8151
:1050A0004A1A5B0A38016C187D0877FE03C07194B8
:1050B00061947108720157FE03C0BFEFEB1AFB0A3F
:1050C000F594E794C016D1061CF00FEF1FEF1FC038
:1050D00001E010E01CC0D401ED91FC91B981008485
:1050E000F185E02D9101BB23C1F04A815B81B601BE
:1050F000C4011995E618F708F7FE04C0C00ED11ECA
:10510000E40CF51CEA81FB813196FB83EA834A813A
:105110005B81A416B506FCF604C0A6016A817B81FA
:10512000E7CF0F900F900F90DF91CF911F910F91CC
:10513000FF90EF90DF90CF90BF90AF909F908F90B7
:105140007F906F905F904F903F902F9008950895BB
:10515000DC01ED91FC910480F581E02D19940F9311
:105160001F93DC01ED91FC91008CF18DE02D1995E0
:105170001F910F9108950F931F93DC01ED91FC9106
:10518000028CF38DE02D19951F910F910895EF92E8
:10519000FF920F931F93DC01ED91FC91048CF58D30
:1051A000E02D19951F910F91FF90EF9008950895AC
:1051B000AF92BF92CF92DF92EF92FF920F931F9325
:1051C000CF93DF9300D01F92CDB7DEB75C016901AA
:1051D000DC01ED91FC910680F781E02D4B835C832F
:1051E00069837A831995D501ED91FC914B815C819E
:1051F000C40ED51EB1E0CB1AD1080088F189E02D8C
:105200007801860169817A819B01C5011995D501D3
:10521000ED91FC910288F389E02DC5010F900F906C
:105220000F900F90DF91CF911F910F91FF90EF9012
:10523000DF90CF90BF90AF901994AF92BF92CF9272
:10524000DF92EF92FF920F931F93CF93DF9300D0E3
:105250001F92CDB7DEB75C016901DC01ED91FC91D5
:105260000680F781E02D4B835C8369837A831995EF
:10527000D501ED91FC9169817A819B012C0D3D1D39
:10528000215031090088F189E02D78014B815C8142
:105290008A01C5011995D501ED91FC910288F38928
:1052A000E02DC5010F900F900F900F90DF91CF91DF
:1052B0001F910F91FF90EF90DF90CF90BF90AF9034
:1052C00019944F925F926F927F928F929F92AF92BA
:1052D000BF92CF92DF92EF92FF920F931F93CF93E3
:1052E000DF931F921F92CDB7DEB76C015A013901CF
:1052F0004801DC01ED91FC910680F781E02D698386
:105300007A8319956981462E7A81572E640C751C13
:10531000D601ED91FC91461457046CF40484F58594
:10532000E02D87019401A501B201C6011995BFEFD7
:105330004B1A5B0AEDCF0288F389E02DC6010F906E
:105340000F90DF91CF911F910F91FF90EF90DF9021
:10535000CF90BF90AF909F908F907F906F905F9015
:105360004F901994EF92FF920F931F93DC01ED91F0
:10537000FC9111971A960D911C911B9718962D91DF
:105380003C911997048CF58DE02D7B0140E050E0B5
:1053900060E070E019951F910F91FF90EF900895D4
:1053A000CF92DF92EF92FF920F931F93CF93DF93F1
:1053B00000D000D0CDB7DEB76C01DC01ED91FC91DF
:1053C0006217730789F4041715072CF4942F852F9F
:1053D000A801092F182F041B150B98012F5F3F4FB1
:1053E000008CF18DE02D12C04017510709F52617EA
:1053F00037072CF4962F872FB901292F382F261B1A
:10540000370B2F5F3F4F028CF38DE02D8701C601D4
:10541000199526960FB6F894DEBF0FBECDBFDF916B
:10542000CF911F910F91FF90EF90DF90CF90089553
:105430000680F781E02D2D833E834B835C83698357
:105440007A831995D601ED91FC910088F189E02DC0
:105450002D813E814B815C8169817A81C6011995DC
:10546000D601ED91FC910288F389E02DC6012696C4
:105470000FB6F894DEBF0FBECDBFDF91CF911F9165
:105480000F91FF90EF90DF90CF9019946F927F92E1
:105490008F929F92AF92BF92CF92DF92EF92FF9244
:1054A0000F931F93CF93DF93EC014B015A016901D6
:1054B0003801E881F9810680F781E02D1995E881AE
:1054C000F9810684F785E02D87019601A501B401D5
:1054D000CE011995E881F981A501460D571D41506E
:1054E00051090684F785E02D9601B401CE01199586
:1054F000E881F9810484F585E02D9301A501B401CB
:10550000CE011995E881F981C80CD91CB60161500A
:1055100071090484F585E02D9301A501CE0119954B
:10552000E881F9810288F389E02DCE01DF91CF91E6
:105530001F910F91FF90EF90DF90CF90BF90AF90B1
:105540009F908F907F906F9019940895FC016370E5
:10555000658B8481958126813781613039F0633094
:1055600029F09187808733872287089531872087A4
:10557000938782870895FC011382128289E992E061
:1055800091838083758364835783468371876087A3
:1055900053874287158A158614861786168681E0FA
:1055A000848B2FEF3FEF338B228B318B208B868BBD
:1055B000178A118E108E08952F923F924F925F920C
:1055C0006F927F928F929F92AF92BF92CF92DF9213
:1055D000EF92FF920F931F93CF93DF93CDB7DEB778
:1055E00028970FB6F894DEBF0FBECDBF5C013B011C
:1055F0004A0138872F83FC82EB8281E090E02C0106
:10560000421A530AC9019195819591099C01220F73
:10561000331F3A832983170133E0230E311CEE2414
:10562000E394F12C802F81708D8302700E83C7016B
:105630000197EF81F8858E179F070CF078C057FC13
:105640000CC0AF81B8851197B887AF83E981FA8123
:105650003296FA83E9834E0E5F1EC701880F991FA9
:105660000196480E591EFD81FF2359F1D501ED9198
:10567000FC912F813885220F331F2F5F3F4F8B8185
:105680009C81280F391F0484F585E02D8601A40133
:10569000AF81B8854A1B5B0BB701660D771DC5014D
:1056A0001995D501ED91FC910484F585E02D9101CA
:1056B000A4014E195F096F817885660D771DC501BC
:1056C0001995BE81BB2361F1D501ED91FC912F812C
:1056D0003885220F331F2F5F3F4F8B819C81280F0E
:1056E000391F0484F585E02D8601A401AF81B885BA
:1056F0004A1B5B0BB3016E197F09C5011995D501D2
:10570000ED91FC910484F585E02D9101A4014E19E1
:105710005F09B3018F819885681B790BC5011995C5
:105720009FEFE91AF90AA2E02A0E311C80CF2896D1
:105730000FB6F894DEBF0FBECDBFDF91CF911F91A2
:105740000F91FF90EF90DF90CF90BF90AF909F9020
:105750008F907F906F905F904F903F902F90089523
:105760006F927F928F929F92AF92BF92CF92DF9271
:10577000EF92FF920F931F93CF93DF93EC014B01B6
:105780003A0159016801E881F9810680F781E02D2D
:105790001995E881F9819501220F331F2F5F3F4F43
:1057A000A3014A195B090484F585E02DB401CE01FB
:1057B0001995E12CF12C03E09501A301B401CE0170
:1057C0000E94DC2AE881F9810288F389E02DCE016C
:1057D000DF91CF911F910F91FF90EF90DF90CF90CD
:1057E000BF90AF909F908F907F906F9019942F9261
:1057F0003F924F925F926F927F928F929F92AF9261
:10580000BF92CF92DF92EF92FF920F931F93CF93AD
:10581000DF93CDB7DEB76C970FB6F894DEBF0FBE3F
:10582000CDBF9C8F8B8F5B011A011F830E833701C5
:10583000C982DC0158964D915C91599741155105EB
:1058400009F0E5C018968D919C9119976817790712
:105850000CF0CAC11A968D919C911B972816390697
:105860000CF0C2C18C2C912CFB0136E0C39EE00DE4
:10587000F11D1124FB87EA871E161F060CF0B4C128
:10588000C40133E0880F991F3A95E1F79D878C8713
:10589000820D931D181619060CF0A6C157968C910F
:1058A000811103C0203B08F02F5FAB8DBC8DED91C3
:1058B000FC9111970680F781E02DCD012A8F199573
:1058C0002A8DB5E02B9F90011124F5013596FF87B5
:1058D000EE872501BB82AA82A9014A195B09598B6F
:1058E000488BC10108969B8B8A8BE889F989E40D66
:1058F000F51DE655FC4F949198873D822C826101FD
:10590000A885A0FF13C0AB8DBC8DED91FC91B98132
:10591000B13031F40084F185E02D2E813F8116C035
:105920000284F385E02DEE80FF801AC0EE81FF81B6
:105930006E167F06F1F0AB8DBC8DED91FC91B981B7
:10594000B13051F40084F185E02D9301A601B2013C
:105950008B8D9C8D19950DC00284F385E02D73010C
:10596000840194014C815D816A817B818B8D9C8D4A
:105970001995E885E695E8872C813D81280D391D2C
:105980003D832C833FEFC31AD30A4A895B89C4162F
:10599000D50609F0B5CF8A819B81880D991D9B831F
:1059A0008A839FEF491A590AAE85BF854A165B065E
:1059B00009F09BCFEE81FF816E167F0609F4F2C0DD
:1059C000EB8DFC8DA081B181F981F13079F4B501C5
:1059D0006B5F7F4F1C96ED91FC911D97830128E032
:1059E00030E0A1018B8D9C8D1995DCC06A857B858B
:1059F000681979091A96ED91FC911B9773010C8532
:105A00001D859401A1018B8D9C8D1995CBC0FA0148
:105A100034969491329765917491291BCB01B7E02C
:105A20002B9F800D911D1124FA01259134913B8B00
:105A30002A8BFC01459154915B834A83FC01329689
:105A4000C490319654915C87329614913196D490DB
:105A50008981823058F0612E012E000C7708AD2D1F
:105A60000D2C000CBB0BB987A88704C019861886BB
:105A7000612C712CAB8DBC8DED91FC911197068042
:105A8000F781E02DCD011995B9818B2E912C689C61
:105A9000C001699C900D789C900D1124FC01EA0DC9
:105AA000FB1DF98BE88B1C82712C612CE12F110FEF
:105AB000FF0B95012E0F3F1F3B872A87AC0CB11CB3
:105AC000A5014E0F5F1F5F8B4E8BC1018D0D911D88
:105AD000D7FC9A95998F888F4C85641608F062C020
