:100000000C9477040C94A8040C94A8040C94A804F1
:100010000C94A8040C94A8040C94A8040C94A804B0
:100020000C94A8040C94A8040C94A8040C94A804A0
:100030000C94A8040C94A8040C94A8040C94A80490
:100040000C94A8040C94A8040C94A8040C94A80480
:100050000C94A8040C94A8040C94A8040C94440FC9
:100060000C94A8040C9447140C9413150C94A80435
:100070000C94A8040C94A8040C94A8040C94A80450
:100080000C94A8040C94A8040C94A8040C94A80440
:100090000C947A140C9452150C94A8040C94A80493
:1000A0000C94A8040C94A8040C94A8040C94A80420
:1000B0000C94A8040C94A8040C94A8040C94A80410
:1000C0000C94A8040C94A8040C94A8040C94AD14EB
:1000D0000C9491150C94A8040C94E0140C94D01575
:1000E0000C94A8046E0CBF0BC60BCD0BD40BDB0B12
:1000F000E20BE90BF00BF70BFE0B050C0C0C130CD1
:100100001A0C210C280C2F0C360C3D0C440C4B0CFB
:10011000520C590C600C8310861079107D10BD10A4
:100120008A108E10941098109C10A210A610AA107D
:10013000BD10B010B410B8100C94B0100C94042B77
:100140000C94E0130C9498300C94F70B0C94B02F93
:100150000C948D190C9482340C94E92B0C94971602
:100160000C94F00B0C94210C0C94732B0C949B1A94
:100170000C94E90B0C94A4190C943D0C0C94CD0B2D
:100180000C94EF210C94360C0C942F0C0C949810BA
:100190000C944A2A0C94482C0C948A100C947B2AB8
:1001A0000C94AA100C94280C0C94600C0C94BD10A8
:1001B0000C94B8100C9483100C94D40B0C94A210D3
:1001C0000C94CE340C949C100C947D100C94003143
:1001D0000C9479100C94520C0C94CA300C94C02AD4
:1001E0000C94EB130C94B7300C944B2A0C94A33062
:1001F0000C943A310C9493130C94552B0C94F106F7
:100200000C9486100C94BA190C94050C0C94A4133D
:100210000C94590C0C94FE0B0C945E2A0C940C0C50
:100220000C946A2A0C94440C0C94C6350C94F51961
:100230000C94BF0B0C94D6190C94FF190C946E0CF3
:100240000C94522A0C9427070C94DB0B0C94A610E8
:100250000C94492C0C941A0C0C94B4100C94E20BD2
:100260000C94C60B0C944B0C0C9441360C94B2318C
:100270000C9474310C947A2A0C94A1290C94941344
:100280000C94130C0C9457120C9494100C948E1024
:100290000C94C0130000090A02080B0C0D0706039A
:1002A0000401000000000000000000000000000049
:1002B000000000000000000000000000000000003E
:1002C00011100F00000000000000000000000000FE
:1002D00000000000000000000000010210202008C3
:1002E0000810204010204080020102010804020191
:1002F0000102040810204080804020100804020100
:100300008004020180402010080402010804020158
:1003100001020408102040800102040810204080DF
:1003200005050505070508080808020202020A0A71
:10033000080804040404010101010101010103038F
:10034000030303030303040707070C0C0C0C0C0C3A
:100350000C0C0202020206060606060606060B0B37
:100360000B0B0B0B0B0B00002200250028002B00B1
:100370002E003100340002010000050108010B01CC
:1003800000002100240027002A002D003000330047
:1003900001010000040107010A017C3C3E5E2B3D87
:1003A0003F2F5B5D3B2C2A225C0000000000003EDA
:1003B0005B4F5B3E3E6B4F6B3E1C3E7C3E1C183CD5
:1003C0007E3C181C577D571C1C5E7F5E1C00183C31
:1003D0001800FFE7C3E7FF0018241800FFE7DBE77A
:1003E000FF30483A060E2629792926407F05050761
:1003F000407F05253F5A3CE73C5A7F3E1C1C0808BD
:100400001C1C3E7F14227F22145F5F005F5F060981
:100410007F017F006689956A606060606094A2FFDA
:10042000A29408047E040810207E201008082A1CCC
:1004300008081C2A08081E101010100C1E0C1E0C98
:1004400030383E3830060E3E0E0600000000000038
:10045000005F00000007000700147F147F14242AA7
:100460007F2A122313086462364956205000080779
:100470000300001C2241000041221C002A1C7F1C9A
:100480002A08083E0808008070300008080808089C
:10049000000060600020100804023E5149453E0003
:1004A000427F400072494949462141494D33181461
:1004B000127F1027454545393C4A494931412111B0
:1004C00009073649494936464949291E00001400A2
:1004D00000004034000000081422411414141414C5
:1004E000004122140802015909063E415D594E7C23
:1004F0001211127C7F494949363E414141227F41D8
:1005000041413E7F494949417F090909013E414135
:1005100051737F0808087F00417F41002040413F20
:10052000017F081422417F404040407F021C027F2F
:100530007F0408107F3E4141413E7F090909063E84
:100540004151215E7F091929462649494932030153
:100550007F01033F4040403F1F2040201F3F403865
:10056000403F631408146303047804036159494D40
:1005700043007F4141410204081020004141417F76
:1005800004020102044040404040000307080020EC
:10059000545478407F2844443838444444283844EC
:1005A00044287F385454541800087E090218A4A423
:1005B0009C787F0804047800447D40002040403D42
:1005C000007F1028440000417F40007C04780478BC
:1005D0007C080404783844444438FC18242418184F
:1005E000242418FC7C0804040848545454240404AB
:1005F0003F44243C4040207C1C2040201C3C403098
:10060000403C44281028444C9090907C4464544CC6
:100610004400083641000000770000004136080021
:1006200002010204023C2623263C1EA1A161123ACB
:100630004040207A38545455592155557941225417
:10064000547842215554784020545579400C1E521C
:1006500072123955555559395454545939555454C1
:10066000580000457C410002457D420001457C4028
:100670007D1211127DF0282528F07C54554500206C
:1006800054547C547C0A097F4932494949323A44DE
:1006900044443A324A4848303A4141217A3A424049
:1006A0002078009DA0A07D3D4242423D3D4040401B
:1006B0003D3C24FF2424487E4943662B2FFC2F2BEE
:1006C000FF0929F620C0887E09032054547941008F
:1006D00000447D413048484A32384040227A007A0E
:1006E0000A0A727D0D19317D2629292F28262929EC
:1006F000292630484D40203808080808080808080E
:10070000382F10C8ACBA2F102834FA00007B000034
:1007100008142A142222142A14085500550055AA38
:1007200055AA55AAFF55FF55FF000000FF00101005
:1007300010FF00141414FF001010FF00FF1010F041
:1007400010F0141414FC001414F700FF0000FF0054
:10075000FF1414F404FC141417101F10101F101FA2
:100760001414141F00101010F0000000001F1010CF
:1007700010101F10101010F010000000FF101010CB
:10078000101010101010FF10000000FF140000FFE8
:1007900000FF00001F10170000FC04F414141710D1
:1007A000171414F404F40000FF00F71414141414C4
:1007B0001414F700F7141414171410101F101F143A
:1007C0001414F4141010F010F000001F101F00009B
:1007D000001F14000000FC140000F010F01010FFC7
:1007E00010FF141414FF141010101F00000000F06C
:1007F00010FFFFFFFFFFF0F0F0F0F0FFFFFF000041
:10080000000000FFFF0F0F0F0F0F3844443844FC67
:100810004A4A4A347E02020606027E027E0263557E
:100820004941633844443C04407E201E2006027E39
:10083000020299A5E7A5991C2A492A1C4C7201724B
:100840004C304A4D4D303048784830BC625A463DB5
:100850003E494949007E0101017E2A2A2A2A2A446A
:10086000445F444440514A444040444A514000009F
:10087000FF0103E080FF000008086B6B08361236AA
:100880002436060F090F060000181800000010108B
:10089000003040FF0101001F01011E00191D171249
:1008A000003C3C3C3C00000000004E414E494E499B
:1008B0005459494E46CDCCCC3D0AD7233C17B7D12D
:1008C0003877CC2B329595E6241FB14F0A000020D3
:1008D000410000C84200401C4620BCBE4CCA1B0E52
:1008E0005AAEC59D7400F10697168D19270711247D
:1008F0001FBECFEFD1E2DEBFCDBF00E00CBF13E0E3
:10090000A0E0B2E0E4EBFCE700E00BBF02C0079020
:100910000D92A832B107D9F729E1A8E2B3E001C0EE
:100920001D92AE36B207E1F714E0C6E7D4E000E06E
:1009300006C021970109802FFE010E94FB3DC337AD
:10094000D10780E00807A9F70E942A0F0C943439D8
:100950000C940000863040F08B3040F0803140F045
:10096000853140F483E0089580E0089581E00895A2
:1009700082E0089584E00895AF92BF92CF92DF9213
:10098000EF92FF920F931F93CF93DF937C018B0124
:10099000C42F809110020E94AA04A82E8C2F0E94BE
:1009A000AA04D82F60E272E084ED94E10E949412D0
:1009B0002091100230E0C901019725E0C22ED12C10
:1009C000B6010E94A63D30EFB32EB89EB001B99E8D
:1009D000700D11248091130290911402680F791FF9
:1009E0004AE050E084ED94E10E94631361E272E01A
:1009F00084ED94E10E9494126091110270911202B0
:100A000080EFA89E600D711D11244AE050E084ED36
:100A100094E10E94631361E272E084ED94E10E942C
:100A200094124C2F50E0CA010197B6010E94A63DD6
:100A3000B89EB001B99E700D11246E0D7F1D4AE065
:100A400050E084ED94E10E94771361E272E084ED5E
:100A500094E10E949412B80180EFD89F600D711D3F
:100A600011244AE050E084ED94E10E947D1362E39A
:100A700070E080E090E00E94BF0F81E08093280347
:100A8000DF91CF911F910F91FF90EF90DF90CF906A
:100A9000BF90AF9008954F925F926F927F92AF9206
:100AA000BF92CF92DF92EF92FF920F931F93CF935B
:100AB000DF9300D000D0CDB7DEB78EE194E10E9485
:100AC000B03629833A834B835C836D837E838D812B
:100AD0009E810A978F3D934008F042C06B817C81D4
:100AE000072E000C880B990B1F921F921F921F92CA
:100AF00020E4A22EBB24B394C12CD12C1CEAE12EFD
:100B000013E0F12E00E010E028E730E040E050E094
:100B10000E94B7172B013C0189819A81BC01990F72
:100B2000880B990B1F921F921F921F9240EFA42EC9
:100B3000B12CC12CD12C28E730E040E050E00E94DD
:100B4000B7170FB6F894DEBF0FBECDBF30EF431618
:100B500051042CF0673771052CF482E004C004C006
:100B600080E001C081E090E026960FB6F894DEBFE9
:100B70000FBECDBFDF91CF911F910F91FF90EF90EE
:100B8000DF90CF90BF90AF907F906F905F904F902D
:100B90000895CF92DF92EF92FF92CF93DF93EC0113
:100BA0006A017B012DEC3CEC4CEC5DE3C701B60126
:100BB0000E94DC3987FF04C0C150D54F188254C051
:100BC0002DEC3CEC4CE45EE3C701B6010E94DC393D
:100BD00087FF04C0C150D54F81E045C02AE939E9FB
:100BE00049E95EE3C701B6010E94DC3987FF04C012
:100BF000C150D54F82E037C02AE939E949E15FE3C6
:100C0000C701B6010E94DC3987FF04C0C150D54F2F
:100C100083E029C02DEC3CEC4CE45FE3C701B60156
:100C20000E94DC3987FF04C0C150D54F84E01BC04F
:100C300026E636E646E65FE3C701B6010E94DC39E8
:100C400087FF04C0C150D54F85E00DC020E030E0E3
:100C500040E85FE3C701B6010E94DC39181624F0B2
:100C6000C150D54F86E08883DF91CF91FF90EF9000
:100C7000DF90CF900895EF92FF920F931F93CF9341
:100C8000DF937C018B01EA0184E00E9447100E94FF
:100C9000691720EF30E040E050E060E070E0CB0109
:100CA0000E949517F7017183608320EF30E040E0E8
:100CB00050E060E070E0CB010E949517F80171836D
:100CC00060832AE130E040E050E061E070E080E0E5
:100CD00090E00E9495176883DF91CF911F910F914B
:100CE000FF90EF900895CF92DF92EF92FF92809164
:100CF0001302909114028C3F2FEF920774F0803F03
:100D000091057CF465E070E00E94A63D072E000C82
:100D1000880B990B0E948B3A08C060E070E0CB0111
:100D200004C060E070E08CE392E40E94C63A0E9446
:100D30005A3A6B017C0180911102909112028C3F12
:100D40002FEF920774F0803F91057CF465E070E02E
:100D50000E94A63D072E000C880B990B0E948B3A2F
:100D600008C060E070E0CB0104C060E070E08CE39C
:100D700092E40E94C63A0E945A3A20E3269FA001BC
:100D8000279F500D1124CA018C0D9D1DFC01E150BF
:100D9000F54F81E09081943008F080E0FF90EF9073
:100DA000DF90CF90089520911302309114022817FC
:100DB000390729F0281B390B2230310570F4809156
:100DC0001102909112028617970749F09C01261B89
:100DD000370B81E02230310518F080E0089581E082
:100DE0000895EF92FF920F932FEF49E06AE082E3BC
:100DF00094E10E94CB318CE2E82EFF24F39405E0CD
:100E000029E348E364E08EE194E10E940A3883E03C
:100E100094E10E945E1A80E091E00E942A11909372
:100E200000148093FF138091130290911402909309
:100E30002C0380932B0380911102909112029093C6
:100E40002A03809329030F91FF90EF90089583E088
:100E500094E10C94711AEF92FF920F931F93CF932A
:100E6000DF93FC018081833509F042C010922E038C
:100E700010922D03C0910114D091021421E030E0B2
:100E800040E050E0219700912D0310912E03C230D5
:100E9000D105ECF0DF01AC0FBD1F8C91082E000CCA
:100EA000990BC097829FB001839F700D929F700D28
:100EB0001124C801860F971F90932E0380932D0352
:100EC000AAE0B0E00E94213E9B01AC01DBCFA8016B
:100ED00041505109443F5140A8F110922E03109205
:100EE0002D03DF91CF911F910F91FF90EF90089507
:100EF0007A018B01CF01FB012081FA01C081D181F0
:100F0000222359F00E941639CC0FDD1FC95ED84F3D
:100F100099838883F801108211C00E941639CC0F82
:100F2000DD1FC15DDC4F99838883F701808191814A
:100F300001969183808381E0F801808384ED94E1C0
:100F40000E94E01363E272E084ED94E1DF91CF91BF
:100F50001F910F91FF90EF900C94B112EF92FF92BE
:100F60000F931F93811105C018E0E12E14EDF12EAF
:100F700028C0813029F4B4EEEB2EBAEAFB2E21C052
:100F8000823029F4ACE6EA2EA6E0FA2E1AC08330AD
:100F900029F4FFE9EF2EF1E3FF2E13C0843029F48A
:100FA000EDE2EE2EEDE4FE2E0CC0853029F49FEC30
:100FB000E92E9BE7F92E05C0863041F48FE1E82E3B
:100FC000F12C890182E394E10E9474311F910F9109
:100FD000FF90EF900895EF92FF920F931F93CF939E
:100FE000DF938FEFE82E8AE0F82EC0E0D0E000E03B
:100FF00010E025E030E0A801BE01F70181917F01FA
:101000000E94AE072596C03FD10521F40B5F1F4F0C
:10101000C0E0D0E0003F110529F0FFEFEF16F3E14B
:10102000FF0639F7DF91CF911F910F91FF90EF905D
:1010300008952F923F924F925F926F927F928F927C
:101040009F92AF92BF92CF92DF92EF92FF920F9357
:101050001F93CF93DF93CDB7DEB762970FB6F894A7
:10106000DEBF0FBECDBFA0902903B0902A032EEFA4
:10107000A2162FEFB2068CF032EFA316B1048CF457
:10108000C501029765E070E00E94A63D072E000CA6
:10109000880B990B0E948B3A08C060E070E0CB018E
:1010A00004C060E070E08CE392E40E94C63A0E94C3
:1010B0005A3A6B017C011B018AEFA8168FEFB80624
:1010C0008CF09EEEA916B1048CF4C501029665E081
:1010D00070E00E94A63D072E000C880B990B0E9421
:1010E0008B3A08C060E070E0CB0104C060E070E0C3
:1010F0008CE392E40E94C63A0E945A3A2B013C01CA
:101100007A87698700912B0310912C030E3FAFEF74
:101110001A0784F0023F11058CF4C801029765E0BC
:1011200070E00E94A63D072E000C880B990B0E94D0
:101130008B3A08C060E070E0CB0104C060E070E072
:101140008CE392E40E94C63A0E945A3A69837A83F9
:101150008B839C8329813A813C872B870A3F3FEF11
:10116000130784F00E3E11058CF4C801029665E069
:1011700070E00E94A63D072E000C880B990B0E9480
:101180008B3A08C060E070E0CB0104C060E070E022
:101190008CE392E40E94C63A0E945A3A6D837E83A1
:1011A0008F8398872D813E813E872D870C3F3FEFAF
:1011B00013077CF0003F110584F4C80165E070E07E
:1011C0000E94A63D072E000C880B990B0E948B3ABB
:1011D00008C060E070E0CB0104C060E070E08CE328
:1011E00092E40E94C63A6F87788B898B9A8B8CEF3A
:1011F000A8168FEFB80684F090EFA916B10484F416
:10120000C50165E070E00E94A63D072E000C880B2A
:10121000990B0E948B3A08C060E070E0CB0104C0DB
:1012200060E070E08CE392E40E94C63A0E945A3A71
:101230004B015C012D853E858B859C8528173907E0
:1012400009F487C0A981BA81A150B54F2D813E8193
:101250002150354FE985FA8580E32E163F0609F4C3
:101260004FC08C9DB0018D9D700D1124AD01460FB6
:10127000571FFA01B080849DA001859D500D112457
:10128000C901840F951FFC018080A40FB51FAC908D
:1012900085E0982E9C9C80019D9C100D11248D81D1
:1012A0009E81989E7001999EF00C1124FB01E20F23
:1012B000F31F25E030E0A801B70180810E94AE074E
:1012C000A981BA819A9E60019B9ED00C112425E0D1
:1012D00030E0A801B6018B2D0E94AE07949C8001DE
:1012E000959C100D112425E030E0A801B701882D50
:1012F0000E94AE0725E030E0A801B6018A2D7EC02D
:10130000889DA001899D500D1124F901E40FF51F5E
:10131000008115E0189D7001199DF00C1124E981E0
:10132000FA811E9FB0011F9F700D1124A40FB51FDD
:1013300025E030E0A7018C910E94AE072D813E810F
:10134000129FB001139F700D112425E030E0A7011A
:1013500039C06F85788989899A890E945A3A298586
:101360003A852216330681F1A0E3A49DF001A59DE4
:10137000F00D1124E60FF71FE150F54F008115E045
:10138000169F5001179FB00C11241C9DA0011D9D9C
:10139000500D1124AC9D9001AD9D300D1124620FB4
:1013A000731FFB01E150F54F25E030E0B50180816E
:1013B0000E94AE07149DA001159D500D112425E03B
:1013C00030E0B501802F1AC025E0289DA001299D9D
:1013D000500D1124269FD001279FB00D112420E32A
:1013E000289DF001299DF00D11246E0F7F1FFB0138
:1013F000E150F54F25E030E0BD0180810E94AE074D
:1014000040911102509112026091130270911402E6
:1014100000E018EF22E030E082E394E10E94532DD7
:1014200062960FB6F894DEBF0FBECDBFDF91CF91AD
:101430001F910F91FF90EF90DF90CF90BF90AF90F2
:101440009F908F907F906F905F904F903F902F90E4
:101450000895CF92EF92FF920F931F93EE24EA9498
:10146000FE2C07E710E020E530E041E050E060EFBF
:1014700070E082E394E10E947431E12C98EFF92E40
:1014800020E530E041E050E060EF70E082E394E17D
:101490000E94E92B63E082E394E10E948C304FEFDD
:1014A0005FEF60E070E082E394E10E9492304DE2F1
:1014B00050E062E271E082E394E10E948630EE2423
:1014C000EA94FE2C03E710E020E530E04BE750E023
:1014D00060EF70E082E394E10E94743130EEE32E1D
:1014E00037E0F32E07E710E020E530E049E750E071
:1014F00060EF70E082E394E10E94E92B62E082E316
:1015000094E10E948C3042E0C42EEE24EA94FE2C3A
:1015100000E010E02EE448E250E063E171E082E395
:1015200094E10E949A2D25E44CE350E063E171E0E0
:1015300082E394E10E949A2D27E540E550E063E1C3
:1015400071E082E394E10E949A2D23E544E850E0A3
:1015500063E171E082E394E10E949A2D2FE448E96F
:1015600050E063E171E082E394E10E949A2D2CE463
:101570004CEA50E063E171E082E394E10E949A2D2D
:1015800026E540EC50E063E171E082E394E10E94E3
:101590009A2D25E444ED50E063E171E082E394E1AB
:1015A0000E949A2D1F910F91FF90EF90CF90089578
:1015B000CF93DF93CDB7DEB76B970FB6F894DEBF4E
:1015C0000FBECDBF0E94E50F40E855E260E070E03D
:1015D00084ED94E10E940F1684ED94E10E94E013E3
:1015E00040E050E0BA0182E394E10E948C3263E073
:1015F00082E394E10E9482346FEF7FEF82E394E113
:101600000E94552B66E086E197E10E94F817811150
:1016100007C065E272E084ED94E10E94B112FFCF51
:1016200021E046E452E066E177E1CE0101960E94B6
:101630000B198B819C8190930614809305148D81E6
:101640009E81AF81B8858093071490930814A0936E
:101650000914B0930A1489859A85AB85BC8580935B
:101660000B1490930C14A0930D14B0930E148DE0F2
:10167000FE013D96AFE0B4E101900D928A95E1F74D
:101680008A8D9B8D90931D1480931C14CE0101961E
:101690000E94711A83E094E10E94CA1A811106C067
:1016A00063E572E084ED94E10E94B112109202149D
:1016B00010920114E091FF13F091001410820E9427
:1016C000290A6B960FB6F894DEBF0FBECDBFDF912F
:1016D000CF910895CF93DF9300D000D0CDB7DEB780
:1016E0006FEF7FEF82E394E10E94552B48E750E0D3
:1016F00060E070E082E394E10E94863063E082E380
:1017000094E10E948C3062E672E082E394E10E94F0
:10171000B11282E394E10E949D126AE772E082E3D3
:1017200094E10E94B1128EE194E10E94B0366D8383
:101730007E838D819E810A978F3D9340A0F70E9402
:10174000EB0726960FB6F894DEBF0FBECDBFDF9134
:10175000CF910C94290ACF92DF92EF92FF92E09101
:1017600010028E2F90E0FC013197E931F10508F06D
:10177000AEC08827EE58FF4F8F4F0C94FB3DC12C15
:10178000D12CB0E9EB2EB6E4FB2EABC0C12CD12C92
:10179000A0E1EA2EA7E4FA2EA4C0C12CD12CF8E5D2
:1017A000EF2EF7E4FF2E9DC0C12CD12CE0E9EE2EE8
:1017B000E7E4FE2E96C0C12CD12C74EBE72E77E423
:1017C000F72E8FC0C12CD12C68EDE62E67E4F62EE3
:1017D00088C0C12CD12C5CEFE52E57E4F52E81C0DA
:1017E000C12CD12C40E1E42E48E4F42E7AC0C12C67
:1017F000D12C32E2E32E38E4F32E73C0C12CD12C6D
:1018000024E3E22E28E4F22E6CC0C12CD12C96E405
:10181000E92E98E4F92E65C0C12CD12C88E5E82E7C
:1018200088E4F82E5EC0C12CD12CBAE6EB2EB8E4C9
:10183000FB2E57C0C12CD12CACE7EA2EA8E4FA2E1F
:1018400050C0C12CD12CF7E8EF2EF8E4FF2E49C090
:10185000C12CD12CE0E9EE2EE8E4FE2E42C0C12CD2
:10186000D12C79E9E72E78E4F72E3BC0C12CD12C9E
:1018700062EAE62E68E4F62E34C0C12CD12C5BEA75
:10188000E52E58E4F52E2DC0C12CD12C44EBE42ECE
:1018900048E4F42E26C0C12CD12C3DEBE32E38E4D5
:1018A000F32E1FC0C12CD12C26ECE22E28E4F22E00
:1018B00018C0C12CD12C9FECE92E98E4F92E11C050
:1018C000C12CD12C88EDE82E88E4F82E0AC067E9F7
:1018D00072E084ED94E10E94B11203C0C12CD12CBE
:1018E0007601C701B6010E945A3AAB01BC0183E000
:1018F00094E10E94721A811106C06DE972E084EDD4
:1019000094E10E94B112E12CF12C83E094E10E9459
:101910009B1A892B09F446C0E11489E0F8060CF003
:1019200041C083E094E10E94F5198A3011F08D30B6
:10193000B9F48091FF13909100140E941239AB0109
:10194000BC01C7010E94C9058FEFE81AF80A10927E
:10195000021410920114E091FF13F091001420C0C2
:1019600020910114309102142F3F310570F64091FF
:10197000FF1350910014FA01E20FF31F80832091AE
:101980000114309102142F5F3F4F309302142093C3
:1019900001148091FF1390910014FC01E20FF31FDA
:1019A0001082B3CFFF90EF90DF90CF900C94EB07B5
:1019B0005F926F927F928F929F92AF92BF92CF92DF
:1019C000DF92EF92FF920F931F93CF93DF93CFE2BB
:1019D000D3E067E1C62E67E0D62EA12CB12C75E0CE
:1019E000872E912CE0E15E2E80912D0390912E03A5
:1019F0000197A816B90608F060C0F601E190F190D1
:101A00006F0120911002822F90E00197B4010E9493
:101A1000A63D8C01FC01EE0FFF1FEC5FFD4F8081A6
:101A200091818E159F0520F5F801EE0FFF1FEA5FEB
:101A3000FD4F80819181E816F906D0F468807980A5
:101A4000822F0E94AA0490E0FC01EE0FFF1FEC5FC2
:101A5000FD4F208131812615370550F4FC01EE0F32
:101A6000FF1FEA5FFD4F208131816216730628F067
:101A7000FFEFAF1ABF0A2296B7CF509EB001519E1A
:101A8000700D701B1124589EA001599E500D581BBB
:101A900011240A811B81040F151FF6012081318159
:101AA000260F371F460D571D6E0D7F1DE12CF12CA3
:101AB00082E394E10E94732BDBCFDF91CF911F91E2
:101AC0000F91FF90EF90DF90CF90BF90AF909F90DD
:101AD0008F907F906F905F9008951F93CF93DF93C7
:101AE00000D0CDB7DEB71A82198281E08B8384EDF6
:101AF00094E10E949413892BD1F384ED94E10E9428
:101B0000C013182F8A3011F08D30A9F4AE014F5F49
:101B10005F4FBE016D5F7F4F8091FF139091001466
:101B20000E942B071092021410920114E091FF13EF
:101B3000F091001420C080910114909102148F3F05
:101B40009105D0F42091FF1330910014F901E80FB2
:101B5000F91F108320910114309102142F5F3F4F21
:101B600030930214209301148091FF13909100147C
:101B7000FC01E20FF31F1082153409F0B8CF80E0AA
:101B80000F900F900F90DF91CF911F910895CF93F9
:101B9000DF9300D01F921F92CDB7DEB7AE014B5F2F
:101BA0005F4FBE016F5F7F4FCE0103960E943B06E1
:101BB000C12C42E0D42E5BEEA52EB12C65E0862E22
:101BC000912C75E0772E87E30E9447108C0186E305
:101BD0000E944710013022E012072CF0013432E05D
:101BE00013073CF42CC09601201B310B2134310526
:101BF00034F1125017FF02C0015C1F4F36E01595FB
:101C000007953A95E1F72091110230911202020FE7
:101C1000131F013F110514F000EF10E017FF02C081
:101C200000E010E01093120200931102FF24F394DD
:101C30002091290330912A030217130709F4F12C8C
:101C4000813022E092072CF0813432E093073CF49B
:101C50002EC09601281B390B2134310544F1960121
:101C6000281B390BC90137FDCF9626E0959587953E
:101C70002A95E1F72091130230911402820F931FED
:101C80008E3E910514F08DEE90E097FF02C080E04B
:101C900090E0909314028093130221E040912B0373
:101CA00050912C038417950709F420E0F22A8091C3
:101CB0001302909114028D3E910594F02091100230
:101CC000822F672D0E949A3D9923F1F02F5F209378
:101CD00010020E94AB0B909214028092130238C043
:101CE000049794F420911002822F672D0E949A3D50
:101CF000913051F02150209310020E94AB0BB09212
:101D00001402A092130224C0809111029091120239
:101D10008D3E910574F0809110028531C8F48B5F7F
:101D2000809310020E94AB0B9092120280921102DB
:101D30000FC004976CF480911002863048F08550F3
:101D4000809310020E94AB0BB0921202A09211027B
:101D5000FF2069F10E947306811111C080912B034D
:101D600090912C0390931402809313028091290385
:101D700090912A03909312028093110218C00E943E
:101D8000190864E670E080E090E00E94BF0F809147
:101D900013029091140290932C0380932B03809153
:101DA00011029091120290932A038093290390913B
:101DB00010028D81981323C049815A816B817C81E7
:101DC000E12C88EFF82E04E010E024E030E082E31C
:101DD00094E10E94743169817A818B819C810E9497
:101DE000D306882361F00E946A0BAE014B5F5F4F00
:101DF000BE016F5F7F4FCE0103960E943B0680912C
:101E0000280381110E94D80C0E944B05019789F488
:101E1000AE014B5F5F4FBE016F5F7F4FCE010396F8
:101E20000E943B0664E670E080E090E00E94BF0FF5
:101E3000CACE0E944B05029709F0C5CE69817A810E
:101E40004D818B819C810E94BC040E946D0D0E947B
:101E5000D80CB9CE0E94D80A84ED94E10E94E01318
:101E60000E94AB0B4091110250911202609113023B
:101E70007091140200E018EF22E030E082E394E178
:101E80000E94532D0E94C70D1F920F920FB60F9202
:101E900011242F933F938F939F93AF93BF93809180
:101EA000661490916714A0916814B09169143091F0
:101EB000651423E0230F2D3720F40196A11DB11DD9
:101EC00005C026E8230F0296A11DB11D20936514BD
:101ED0008093661490936714A0936814B093691468
:101EE00080916A1490916B14A0916C14B0916D1450
:101EF0000196A11DB11D80936A1490936B14A09359
:101F00006C14B0936D14BF91AF919F918F913F91DD
:101F10002F910F900FBE0F901F9018952FB7F89428
:101F2000609166147091671480916814909169149F
:101F30002FBF08953FB7F89480916A1490916B1465
:101F4000A0916C14B0916D1426B5A89B05C02F3FCD
:101F500019F00196A11DB11D3FBFBA2FA92F982FCF
:101F60008827820F911DA11DB11DBC01CD0142E04A
:101F7000660F771F881F991F4A95D1F70895CF9252
:101F8000DF92EF92FF92CF93DF936B017C010E946F
:101F90009A0FEB01C114D104E104F10479F00E941D
:101FA0009A0F6C1B7D0B683E7340A0F381E0C81A4A
:101FB000D108E108F108C851DC4FECCFDF91CF9197
:101FC000FF90EF90DF90CF900895789484B5826071
:101FD00084BD84B5816084BD85B5826085BD85B5CD
:101FE000816085BDEEE6F0E0808181608083E1E87C
:101FF000F0E01082808182608083808181608083B4
:10200000E0E8F0E0808181608083E1EBF0E08081B6
:1020100084608083E0EBF0E0808181608083E1E98F
:10202000F0E0808182608083808181608083E0E94C
:10203000F0E0808181608083E1EAF0E0808182606D
:102040008083808181608083E0EAF0E0808181602C
:102050008083E1E2F1E08081826080838081816021
:102060008083E0E2F1E0808181608083EAE7F0E054
:1020700080818460808380818260808380818160B0
:1020800080838081806880831092C10008958633A8
:1020900008F0865390917B00282F2870977F922B11
:1020A00090937B0087702091150290E4299F900106
:1020B0001124822B80937C0080917A00806480932D
:1020C0007A0080917A0086FDFCCF80917800209183
:1020D000790090E0922B089590E0FC013197E13176
:1020E000F10508F04AC08827E557FF4F8F4F0C9441
:1020F000FB3D809180008F7703C0809180008F7DB1
:1021000080938000089584B58F7702C084B58F7D59
:1021100084BD08958091B0008F7703C08091B00096
:102120008F7D8093B0000895809190008F7707C0D5
:10213000809190008F7D03C080919000877F809375
:10214000900008958091A0008F7707C08091A00033
:102150008F7D03C08091A000877F8093A0000895A9
:10216000809120018F7707C0809120018F7D03C06F
:1021700080912001877F809320010895CF93DF9382
:1021800090E0FC01E652FD4F2491FC01E05EFC4F23
:102190008491882361F190E0880F991FFC01E05839
:1021A000FC4FC591D491FC01EA59FC4FA591B49123
:1021B000611109C09FB7F894888120958223888394
:1021C000EC912E230BC0623061F49FB7F8943881F4
:1021D000822F809583238883EC912E2B2C939FBF95
:1021E00006C08FB7F894E8812E2B28838FBFDF912C
:1021F000CF9108951F93CF93DF93282F30E0F901FB
:10220000EC56FD4F8491F901E652FD4FD491F9014E
:10221000E05EFC4FC491CC23C9F0162F81110E94BF
:102220006C10EC2FF0E0EE0FFF1FEA59FC4FA59168
:10223000B4918FB7F894111105C09C91ED2FE095E2
:10224000E92302C0EC91ED2BEC938FBFDF91CF918E
:102250001F910895CF93DF938230910510F482E0AF
:1022600090E0E0916A19F0916B1920E030E0C0E055
:10227000D0E0309711F14081518148175907C0F0E3
:102280004817590761F482819381209719F09B8345
:102290008A832BC090936B1980936A1926C02115ED
:1022A000310519F04217530718F49A01BE01DF01F6
:1022B000EF010280F381E02DDCCF2115310509F11A
:1022C000281B390B2430310590F412968D919C9186
:1022D00013976115710521F0FB019383828304C07C
:1022E00090936B1980936A19FD01329644C0FD01E9
:1022F000E20FF31F81939193225031092D933C9368
:102300003AC02091681930916919232B41F420912A
:10231000180230911902309369192093681920919D
:102320001602309117022115310541F42DB73EB741
:1023300040911A0250911B02241B350BE091681941
:10234000F0916919E217F307A0F42E1B3F0B281731
:10235000390778F0AC014E5F5F4F2417350748F01E
:102360004E0F5F1F509369194093681981939193A1
:1023700002C0E0E0F0E0CF01DF91CF9108950F932C
:102380001F93CF93DF93009709F48CC0FC01329721
:102390001382128200916A1910916B1901151105AF
:1023A00081F420813181820F931F2091681930912F
:1023B00069192817390779F5F0936919E0936819B5
:1023C00071C0D80140E050E0AE17BF0750F412963C
:1023D0002D913C911397AD012115310509F1D901DA
:1023E000F3CF9D01DA013383228360817181860FEF
:1023F000971F8217930769F4EC0128813981260F12
:10240000371F2E5F3F4F318320838A819B819383C7
:102410008283452B29F4F0936B19E0936A1942C02B
:102420001396FC93EE931297ED01499159919E01F9
:10243000240F351FE217F30771F480819181840F17
:10244000951F029611969C938E9382819381139689
:102450009C938E931297E0E0F0E0D80112968D9154
:102460009C911397009719F0F8018C01F6CF8D918C
:102470009C9198012E5F3F4F820F931F2091681906
:10248000309169192817390769F4309729F41092A7
:102490006B1910926A1902C0138212821093691983
:1024A00000936819DF91CF911F910F910895CF92FA
:1024B000DF92EF92FF920F931F93CF93DF936C0104
:1024C000EB017B01E40EF51E00E010E0CE15DF0508
:1024D00061F06991D601ED91FC910190F081E02DC0
:1024E000C6011995080F191FF1CFC801DF91CF91CF
:1024F0001F910F91FF90EF90DF90CF90089561159D
:10250000710579F0FB0101900020E9F73197AF01E7
:10251000461B570BDC01ED91FC910280F381E02D0D
:10252000199480E090E008950C947F12DC01ED9105
:10253000FC910190F081E02D19940F931F93CF939C
:10254000DF93EC016DE00E9496128C016AE0CE01EF
:102550000E949612800F911FDF91CF911F910F91D2
:1025600008950F931F93CF93DF93EC010E947F1286
:102570008C01CE010E949D12800F911FDF91CF919F
:102580001F910F9108958F929F92AF92BF92CF9219
:10259000DF92EF92FF920F931F93CF93DF93CDB70C
:1025A000DEB7A1970FB6F894DEBF0FBECDBF6C01AA
:1025B000142FE52FCB01022F19A2223008F40AE0D4
:1025C0007E0121E2E20EF11C802E912CA12CB12C77
:1025D000612F7E2FA50194010E94BA3D029F101920
:1025E000112481E0E81AF1081A3014F4105D01C0DA
:1025F000195CF7011083122FE32FCA01232B242B20
:10260000252B31F7B701C6010E947F12A1960FB6A4
:10261000F894DEBF0FBECDBFDF91CF911F910F9118
:10262000FF90EF90DF90CF90BF90AF909F908F90F2
:102630000895CF92DF92EF92FF920F931F93CF9363
:10264000DF93EC016A017B012115310579F4E88102
:10265000F9810190F081E02D642FDF91CF911F91DE
:102660000F91FF90EF90DF90CF9019942A303105B1
:10267000E9F477FF1AC06DE20E9496128C0144279C
:102680005527BA014C195D096E097F092AE0CE0170
:102690000E94C312800F911FDF91CF911F910F9164
:1026A000FF90EF90DF90CF9008952AE0B701A60148
:1026B000CE01DF91CF911F910F91FF90EF90DF90AE
:1026C000CF900C94C3129A01AB01770F660B770B76
:1026D0000C9419132115310541F4DC01ED91FC91A5
:1026E0000190F081E02D642F19940C94C3129A018B
:1026F000AB0160E070E00C946A130F931F93CF93CB
:10270000DF93EC019A01AB0160E070E00E946A1374
:102710008C01CE010E949D12800F911FDF91CF91FD
:102720001F910F9108950895FC0124853585F901C5
:10273000E05CFF4F80819181329620813181821B44
:10274000930B8F7399270895DC011C96ED91FC91F2
:102750001D97DF01A05CBF4F2D913C911197129600
:102760008D919C9111972817390739F08D919C9183
:10277000E80FF91F808190E008958FEF9FEF089593
:10278000FC01A485B585FD01E05CFF4F208131810E
:102790003296808191812817390779F08081918163
:1027A000A80FB91F8C91208131812F5F3F4F2F736C
:1027B00033273183208390E008958FEF9FEF0895B2
:1027C000FC0181A1882329F0A489B5898C9186FF19
:1027D000FBCF11A208950F931F93CF93DF93FC01BA
:1027E000A685B7858D01005C1F4FE801888199811E
:1027F00001968F739927AD014E5B5F4FEA012881E7
:10280000398182179307D1F3E80128813981A20F1A
:10281000B31F6C93A685B785A05CBF4F11969C93A0
:102820008E93A689B7892C9181E090E0078C02C035
:10283000880F991F0A94E2F7822B8C9381E081A381
:102840000488F589E02D80818064808381E090E0B8
:10285000DF91CF911F910F910895FB01E05CFF4F35
:10286000208131812F5F3F4F2F733327DB01AE5B18
:10287000BF4F4D915C912417350741F04081518144
:10288000DB01A40FB51F8C933183208308951F9221
:102890000F920FB60F9211240BB60F922F933F9306
:1028A0004F935F936F937F938F939F93AF93BF9358
:1028B000EF93FF938091C00082FD07C08091C60016
:1028C00062ED76E10E942D1402C08091C600FF9156
:1028D000EF91BF91AF919F918F917F916F915F9198
:1028E0004F913F912F910F900BBE0F900FBE0F9005
:1028F0001F9018951F920F920FB60F9211240BB6CE
:102900000F922F933F934F935F936F937F938F9388
:102910009F93AF93BF93EF93FF938091C80082FD85
:1029200007C08091CE006AE476E10E942D1402C0B7
:102930008091CE00FF91EF91BF91AF919F918F91C8
:102940007F916F915F914F913F912F910F900BBEAF
:102950000F900FBE0F901F9018951F920F920FB6F9
:102960000F9211240BB60F922F933F934F935F93C7
:102970006F937F938F939F93AF93BF93EF93FF9347
:102980008091D00082FD07C08091D60062EC75E195
:102990000E942D1402C08091D600FF91EF91BF914B
:1029A000AF919F918F917F916F915F914F913F91E7
:1029B0002F910F900BBE0F900FBE0F901F90189588
:1029C0001F920F920FB60F9211240BB60F922F93F6
:1029D0003F934F935F936F937F938F939F93AF93A7
:1029E000BF93EF93FF938091300182FD07C08091E8
:1029F00036016AE375E10E942D1402C08091360110
:102A0000FF91EF91BF91AF919F918F917F916F91C6
:102A10005F914F913F912F910F900BBE0F900FBE82
:102A20000F901F9018951F920F920FB60F921124BE
:102A30000BB60F922F933F938F939F93EF93FF9338
:102A40002091CE163091CF168091D0169091D1164C
:102A50002817390731F48091C1008F7D8093C10020
:102A600014C0E091D016F091D116E257F94E2081B2
:102A70008091D0169091D11601968F7399279093DB
:102A8000D1168093D0162093C600FF91EF919F91AD
:102A90008F913F912F910F900BBE0F900FBE0F9013
:102AA0001F9018951F920F920FB60F9211240BB61C
:102AB0000F922F933F938F939F93EF93FF932091C8
:102AC000461630914716809148169091491628175E
:102AD000390731F48091C9008F7D8093C90014C0FB
:102AE000E0914816F0914916EA5FF94E20818091F5
:102AF00048169091491601968F739927909349161D
:102B0000809348162093CE00FF91EF919F918F9173
:102B10003F912F910F900BBE0F900FBE0F901F9003
:102B200018951F920F920FB60F9211240BB60F92A9
:102B30002F933F938F939F93EF93FF932091BE1515
:102B40003091BF158091C0159091C1152817390794
:102B500031F48091D1008F7D8093D10014C0E09139
:102B6000C015F091C115E258FA4E20818091C01530
:102B70009091C11501968F7399279093C1158093F9
:102B8000C0152093D600FF91EF919F918F913F91B7
:102B90002F910F900BBE0F900FBE0F901F901895A6
:102BA0001F920F920FB60F9211240BB60F922F9314
:102BB0003F938F939F93EF93FF932091361530911E
:102BC000371580913815909139152817390731F448
:102BD000809131018F7D8093310114C0E0913815CF
:102BE000F0913915EA50FB4E208180913815909173
:102BF000391501968F73992790933915809338155D
:102C000020933601FF91EF919F918F913F912F91EA
:102C10000F900BBE0F900FBE0F901F901895CF9284
:102C2000DF92EF92FF920F931F93CF93DF93EC010C
:102C30006A017B014115514E6105710509F1EC896D
:102C4000FD8981E090E008A002C0880F991F0A94D6
:102C5000E2F7808360E079E08DE390E0A7019601E0
:102C60000E94BA3D89019A010150110921093109D7
:102C70003695279517950795980101151041A8F0ED
:102C8000EC89FD89108260E874E88EE190E0A7018C
:102C900096010E94BA3DDA01C9010197A109B10963
:102CA000B695A795979587959C01E889F989308312
:102CB000EA89FB89208319A2EE89FF89408181E09E
:102CC00090E09C010C8C02C0220F331F0A94E2F7A3
:102CD000242B2083EE89FF8940819C010D8C02C04A
:102CE000220F331F0A94E2F7242B2083EE89FF89F9
:102CF00040819C010E8C02C0220F331F0A94E2F720
:102D0000242B2083EE89FF8920810F8C02C0880F3D
:102D1000991F0A94E2F7809582238083DF91CF91F7
:102D20001F910F91FF90EF90DF90CF900895CF9279
:102D3000DF92EF92FF92E4EDF4E11382128288EECB
:102D4000C82E83E0D82EE12CF12CC482D582E682F5
:102D5000F78261EB72E07183608382ED96E1958783
:102D600084878EE896E19787868785EC90E0918B43
:102D7000808B84EC90E0938B828B80EC90E0958B41
:102D8000848B81EC90E0978B868B82EC90E0918F26
:102D9000808F86EC90E0938F828F44E0448F33E005
:102DA000358F27E0268F95E0978F81E080A3E2EBB7
:102DB000F4E113821282C482D582E682F7827183A3
:102DC0006083AAE4B6E1B587A487A6E0B6E1B78739
:102DD000A687ADECB0E0B18BA08BACECB0E0B38BD0
:102DE000A28BA8ECB0E0B58BA48BA9ECB0E0B78BBC
:102DF000A68BAAECB0E0B18FA08FAEECB0E0B38FA1
:102E0000A28F448F358F268F978F80A3E0E9F4E15E
:102E100013821282C482D582E682F7827183608334
:102E2000A2ECB5E1B587A487AEE7B5E1B787A68781
:102E3000A5EDB0E0B18BA08BA4EDB0E0B38BA28B7D
:102E4000A0EDB0E0B58BA48BA1EDB0E0B78BA68B65
:102E5000A2EDB0E0B18FA08FA6EDB0E0B38FA28F4E
:102E6000448F358F268F978F80A3EEE6F4E113828F
:102E70001282C482D582E682F782718360836AE31C
:102E800075E17587648766EF74E17787668765E328
:102E900071E0718B608B64E371E0738B628B60E334
:102EA00071E0758B648B61E371E0778B668B62E315
:102EB00071E0718F608F66E371E0738F628F448F72
:102EC000358F268F978F80A3FF90EF90DF90CF9064
:102ED0000895009729F0BC0180E090E00C94093936
:102EE0000895CF93DF9300D01F92CDB7DEB7611561
:102EF00071058105910579F09B01AC0169833A83E5
:102F00004B835C830E94053929813A814B815C8126
:102F10000E94DC3D03C060E070E0CB010F900F9099
:102F20000F900F90DF91CF910895CF92DF92EF92A3
:102F3000FF920F931F93621773078407950784F41A
:102F400089019A016B017C01C901B8016C197D09E5
:102F50008E099F090E9471176C0D7D1D8E1D9F1D8E
:102F60001F910F91FF90EF90DF90CF9008954F92B7
:102F70005F926F927F92AF92BF92CF92DF92EF9269
:102F8000FF920F931F93CF93DF93CDB7DEB7290145
:102F90003A019B01AC0124193509460957098A8970
:102FA0009B89AC89BD89BC01CD016A197B098C095B
:102FB0009D090E948A3DA8019701241935094609F7
:102FC00057090E94DC3DCA01B9016A0D7B1D8C1DA9
:102FD0009D1DDF91CF911F910F91FF90EF90DF909A
:102FE000CF90BF90AF907F906F905F904F9008957B
:102FF0000F931F93CF93DF93EC01462F61E00E9464
:10300000D422882391F08E01045F1F4F41E0BE015E
:10301000C8010E948A28882351F0B801CE018A96FF
:103020000E94B01B91E081110AC090E008C040E00E
:10303000BE01C8010E948A288823B9F3EECF892FE8
:10304000DF91CF911F910F910895FC01DB01129642
:103050008D919C9113979383828383ED92E091836A
:10306000808314968C911497848315968C91159770
:10307000858316964D915D916D917C91199746834C
:103080005783608771871A964D915D916D917C9100
:103090001D9742875387648775871E964D915D9172
:1030A0006D917C91519746875787608B718B5296B3
:1030B0008C915297828B53964D915D916D917C913D
:1030C0005697438B548B658B768B57964D915D91BC
:1030D0006D917C915A97478B508F618F728F5B9661
:1030E0008D919C915C97948F838F08954F925F92FE
:1030F0006F927F928F929F92AF92BF92CF92DF9208
:10310000EF92FF920F931F93CF93DF93CDB7DEB76C
:10311000C754D1090FB6F894DEBF0FBECDBF6C0106
:103120005A014901665D7F4F7E018EE1E80EF11C78
:10313000C7010E9425181C821B8283ED92E09A83AE
:1031400089831E828501FE0131963F0127016FE2CE
:1031500070E0C8010E944D390097D9F1F801208133
:103160002F3219F40F5F1F4FF2CF801B8D3008F004
:103170008CE0E82EF12CA701B801CE01CB960E947D
:103180005839EBE3F0E0EC0FFD1FEE0DFF1D108250
:10319000C3010E942C1E21E0AE01455C5F4FB201CD
:1031A000C3010E94601F811109C0F60113821282BF
:1031B00083ED92E091838083158214C00E0D1F1D54
:1031C000C2010E942C1E942D852D2301692E782E7C
:1031D000BECF0A191B09F40111830083B201C60195
:1031E0000E942518C601C95BDF4F0FB6F894DEBFF9
:1031F0000FBECDBFDF91CF911F910F91FF90EF9048
:10320000DF90CF90BF90AF909F908F907F906F9006
:103210005F904F900895CF92DF92FF920F931F938C
:10322000CF93DF93CDB7DEB7C955D1090FB6F89468
:10323000DEBF0FBECDBF6C018A01F22E9E01285A5F
:103240003F4FCE01CB960E9476186A968EAD9FAD09
:103250006A97080F191FF801808181110AC0BE0109
:10326000655C7F4FCE0101960E9425184DEB52E020
:103270003EC019A218A283ED92E09F8F8E8F1BA2F1
:1032800021968FAD2197811104C0C6010E945E1A5C
:1032900034C082502F2DA801823048F460E477E1D9
:1032A000CE014E960E94601F81110EC0EECFBE016E
:1032B000655C7F4FCE014E960E94601F882329F3E4
:1032C000CE01CB960E942C1E9F2D967041F049A9ED
:1032D0005AA96BA97CA9CE014E960E944F1DBE0132
:1032E000625E7F4FCE0101960E942518A801BE01A3
:1032F0006F5F7F4FC6010E94291AC601C75ADF4F70
:103300000FB6F894DEBF0FBECDBFDF91CF911F91F6
:103310000F91FF90DF90CF900895E6E1F7E11582DD
:1033200016821186138682E090E0A0E0B0E08487E8
:103330009587A687B78713A215A614A683ED92E0FA
:1033400093A782A717A60895CF93DF931F92CDB7B7
:10335000DEB76983DC01ED91FC910280F381E02D01
:1033600041E050E0BE016F5F7F4F19950F90DF91F4
:10337000CF910895CF93DF93EC01898D9A8D0097BB
:1033800039F481E090E09B838A8380E090E00BC079
:10339000FC01138212820E944E20E98DFA8D228157
:1033A0003381232B71F7DF91CF910895FC01818D3B
:1033B000928D009711F00C94E51D0895CF93DF9343
:1033C0001F92CDB7DEB741E050E0BE016F5F7F4F87
:1033D0000E94011C019719F4898190E002C08FEFCF
:1033E0009FEF0F90DF91CF910895FC01818D928D19
:1033F000009711F00C94DE198FEF9FEF08950F9353
:103400001F93CF93DF93FC01818D928D0097B9F0CC
:10341000EF010E94DE198C010F3F8FEF180791F02A
:10342000898D9A8DFC01428553856485758541504F
:103430005109610971090E944F1DC80105C080E052
:1034400090E002C08FEF9FEFDF91CF911F910F911E
:103450000895EF92FF920F931F93CF93DF93EC01A8
:103460007B018A011B821A8288EE93E0A0E0B0E023
:103470008C839D83AE83BF8383EC92E099838883A2
:103480008DE190E00E942A119A8F898F009779F040
:103490002DE1F701DC0101900D922A95E1F74CE056
:1034A00050E0B801CE010C960E945839188EDF9179
:1034B000CF911F910F91FF90EF900895FC0113821F
:1034C000128288EE93E0A0E0B0E084839583A68327
:1034D000B78383EC92E091838083128E118E1486E1
:1034E00008950895FC01818D928D009711F00C9440
:1034F0004F1D80E00895DC015996ED91FC915A979B
:10350000309729F0628573858485958508956FEFDE
:103510007FEFCB010895DC015996ED91FC915A970C
:10352000309729F06389748985899689089560E0C8
:1035300070E0CB010895CF92DF92EF92FF92CF938C
:10354000DF93FC01218D328D232BD9F0EC010E94F9
:103550008B1A6B017C01CE010E947B1AA701960198
:10356000261B370B480B590BDA01C901811530E8CE
:103570009307A105B10538F08FEF9FE7A0E0B0E019
:1035800002C080E090E0DF91CF91FF90EF90DF905C
:10359000CF900895DC015996ED91FC915A973097A0
:1035A00021F081E09581911101C080E00895CF93D1
:1035B000DF93EC019C012A5F3F4F41E050E060E067
:1035C00070E08B8D9C8D0E941F278823A1F08F892E
:1035D000988DA98DBA8D892B8A2B8B2B59F48E81CE
:1035E0009F81A885B9858F8B988FA98FBA8F8C8181
:1035F00080688C8381E0DF91CF910895CF92DF9234
:10360000EF92FF921F93CF93DF93EC010E94D71AA2
:10361000811102C080E04AC0EB8DFC8DCE80DF803E
:10362000E884F98482E0C81AD108E108F108058429
:1036300004C0CC0CDD1CEE1CFF1C0A94D2F786855E
:103640009785A089B189C80ED91EEA1EFB1E148178
:1036500081E0C81AD108E108F108112361F0C7011F
:10366000B601610F711D811D911D0E946E25882379
:1036700089F21150F2CFEB8DFC8D80E092E0A0E05A
:10368000B0E0058404C0880F991FAA1FBB1F0A94CD
:10369000D2F74B895C896D897E89840F951FA61F9F
:1036A000B71F8B8B9C8BAD8BBE8B81E0DF91CF9155
:1036B0001F91FF90EF90DF90CF900895CF93DF930D
:1036C000EC01462F6E857F85888999890E94332574
:1036D000882341F08A8920E2829FC0011124885901
:1036E000984E02C080E090E0DF91CF910895FB01F9
:1036F0009B01255F3F4F40E24193E217F307E1F75B
:10370000DC0190E027E08D91882319F18E3219F0C9
:10371000EAE9F3E008C02A3009F198E02AE0F3CFA3
:1037200031963817D9F034913111FACF2917B0F00A
:103730003FED380F3E3590F431E0390FFB01E90FD2
:10374000F11D9FE9980F9A3108F480528083932FDE
:10375000DACF81E0FB019081903209F480E0089596
:103760000F931F93CF93DF93FC012581222311F048
:1037700080E042C08B01EC01FB0187898031B1F40C
:1037800082E08D831F8A188E198E1A8E808D918DFE
:10379000A0E0B0E025E0880F991FAA1FBB1F2A9563
:1037A000D1F78B8B9C8BAD8BBE8B15C0803201F714
:1037B00083E08D83FB01428D538D648D758D4F8B1E
:1037C000588F698F7A8F9E012D5E3F4FC8010E94EE
:1037D0001626882369F21C8F0B8F81E08C831E8252
:1037E0001F82188619861A861B861C861D861E86D1
:1037F0001F86188A198A1A8ADF91CF911F910F911B
:1038000008952F923F924F925F926F927F928F9284
:103810009F92AF92BF92CF92DF92EF92FF920F935F
:103820001F93CF93DF93EC015B014A018D818111DE
:1038300003C08FEF9FEFD7C08C8180FFFACF4B88FA
:103840005C886D887E884A855B856C857D85C40132
:10385000A0E0B0E093018201041B150B260B370B8F
:10386000081719072A073B0718F44201841A950A1A
:1038700024011E0126E0220E311C4114510409F4DA
:103880007EC04A855B856C857D856A0181E0D82292
:10389000ED818A019B0189E036952795179507955B
:1038A0008A95D1F78B8D9C8DE23061F4FC01828D7D
:1038B000938DA48DB58DBC01CD01600F711F821F4A
:1038C000931F3FC0FC0174807A947022C114D1040C
:1038D000C9F4711017C0452B462B472B49F48F892B
:1038E000988DA98DBA8D8E839F83A887B9870AC0CA
:1038F0004E815F816885798591010E949225882398
:1039000009F497CFEB8DFC8D8E819F81A885B985B9
:103910000297A109B109058404C0880F991FAA1F45
:10392000BB1F0A94D2F74685578560897189840F39
:10393000951FA61FB71FBC01CD01670D711D811D0D
:10394000911D20E032E02C193D0932012415350586
:1039500008F439012C8126FD04C06114F2E07F06D1
:1039600079F500911C0210911D0220911E023091E8
:103970001F02601771078207930719F421C0C40161
:1039800032C0750183019601AB01BC0180916617BD
:10399000909167170E945624882309F44ACFA60CF9
:1039A000B71C8A859B85AC85BD85860D971DA11D9D
:1039B000B11D8A879B87AC87BD87461857085DCFA6
:1039C00040E00E943325882309F433CFF601E859FB
:1039D000F84ED501CF01860D971DE817F907F9F2CA
:1039E00021912D93FACFDF91CF911F910F91FF90ED
:1039F000EF90DF90CF90BF90AF909F908F907F908F
:103A00006F905F904F903F902F900895FF920F938B
:103A10001F93CF93DF931F92CDB7DEB7FC012581B3
:103A2000223018F480E090E033C08C01FC01428524
:103A300053856485758585E0769567955795479597
:103A40008A95D1F7F42FFF70FF2E41E050E0BE01C0
:103A50006F5F7F4FC8010E94011C019719F4898193
:103A600090E002C08FEF9FEF0196E1F2F8018285AE
:103A70009385A485B5854F96A11DB11D8287938737
:103A8000A487B587F0E2FF9EC00111248859984EA3
:103A90000F90DF91CF911F910F91FF9008958F921A
:103AA0009F92AF92BF92CF92DF92EF92FF920F93CD
:103AB0001F93CF93DF93EC018D81811102C080E0D1
:103AC00077C00B891C892D893E89041715072607A5
:103AD0003707A8F36A017B01823029F4CA86DB86A6
:103AE000EC86FD860DC0C114D104E104F10451F44B
:103AF0001E821F82188619861A861B861C861D86C2
:103B000081E056C08A849B84AC84BD84EB8DFC8D9F
:103B1000258530E0275F3F4FB501A4014150510991
:103B200061097109022E04C07695679557954795EE
:103B30000A94D2F7D701C6010197A109B10904C0BF
:103B4000B695A795979587952A95D2F784179507E7
:103B5000A607B70720F089288A288B2849F44F89BF
:103B6000588D698D7A8D4E835F836887798704C00D
:103B7000841B950BA60BB70B4C015D018E010A5FF0
:103B80001F4F81149104A104B10409F4A7CF4E8101
:103B90005F816885798598018B8D9C8D0E94922527
:103BA00091E0891A9108A108B1088111EACF87CF65
:103BB000DF91CF911F910F91FF90EF90DF90CF9009
:103BC000BF90AF909F908F9008950F931F93CF93C6
:103BD000DF93EC018D818823C9F18C8187FF30C090
:103BE00061E0CE010E945E1B8C01892B79F18D81F1
:103BF000823048F48B899C89AD89BE89F801848F15
:103C0000958FA68FB78F8F89988DA98DBA8DF80162
:103C1000938F828FB58BA48BE0915F17F091601723
:103C2000309759F0B8016A5E7F4FC80148961995E0
:103C3000F801808D918D938B828B8C818F778C8313
:103C4000DF91CF911F910F910C94F82480E0DF91C8
:103C5000CF911F910F910895CF93DF93EC010E94B4
:103C6000E51D882311F01D8281E0DF91CF91089539
:103C70004F925F926F927F928F929F92AF92BF927C
:103C8000EF92FF920F931F93CF93DF9300D01F9279
:103C9000CDB7DEB7FC0185818130E9F4848181FFF5
:103CA0001AC083899489A589B68984179507A607C0
:103CB000B70788F0892B8A2B8B2B09F479C04A012E
:103CC0005B017F014284538464847584CF010E9428
:103CD0004F1D811102C080E06CC0F701838D948D6F
:103CE00081149104A104B10471F44789508D618D50
:103CF000728D0E943428882371F3F701178A108E81
:103D0000118E128E3AC0F701468157816085718508
:103D10009E012F5F3F4F0E9492258823E1F2498147
:103D20005A816B817C81F701838D948DFC012789F9
:103D3000203129F008EF1FEF2FEF3FE004C008EF1C
:103D40001FEF20E030E04017510762077307A8F427
:103D50000E943428882309F4BECFF7014681578199
:103D6000608571850FEF1FEF2FEF3FE0838D948DFE
:103D70000E947F26882309F4AECFF701838A948AB4
:103D8000A58AB68A848180688483C7010E94E51D64
:103D9000882309F4A0CFB501A401481459046A048A
:103DA0007B0410F4B301A201C7010E944F1D01C0A2
:103DB00081E00F900F900F900F90DF91CF911F91A6
:103DC0000F91FF90EF90BF90AF909F908F907F905A
:103DD0006F905F904F9008951F93CF93DF93EC0106
:103DE00080E2689FF00111249F012859384ED901C3
:103DF0001B969C91917129F0842F827411F080E0C0
:103E00005BC0142F6A8B80911C0290911D02A091BF
:103E10001E02B0911F028E879F87A88BB98BE8592D
:103E2000F84E4489558960E070E0BA01552744276F
:103E30004F8B588F698F7A8F828D938DA0E0B0E081
:103E4000482B592B6A2B7B2B4F8B588F698F7A8F7E
:103E5000D9011B968C91887151F4848D958DA68D16
:103E6000B78D8B8B9C8BAD8BBE8B81E00DC0803171
:103E700031F69E012D5E3F4F8B8D9C8D0E94162644
:103E8000882309F4BCCF84E08D83812F8F708C83CD
:103E90001E821F82188619861A861B861C861D861E
:103EA00016FF09C040E050E0BA01CE01DF91CF918A
:103EB0001F910C94381E81E0DF91CF911F910895DE
:103EC000CF92DF92EF92FF920F931F93CF93DF93E6
:103ED000CDB7DEB72C970FB6F894DEBF0FBECDBFBF
:103EE000FC0135813111C2C0D22E8B017C01BE0193
:103EF0006F5F7F4FCA010E94771B882309F4B6C009
:103F0000F801838D948DF701948F838FF8011682C9
:103F1000178210861186128613861486158630E065
:103F2000F80182859385A485B5854389548965897F
:103F3000768984179507A607B70708F041C025E0E2
:103F4000B695A795979587952A95D1F7F82FFF7085
:103F5000CF2EC8013C870E94061D3C85009709F4BE
:103F600085C0FC012081222309F484C0253E99F0FC
:103F70004BE050E0BC01CE0101963C870E944039E5
:103F80003C85892B69F68D2D8073803309F46EC0D2
:103F90004D2D6C2D67C031116BC0F701C28A409165
:103FA0001C0250911D0260911E0270911F024687F3
:103FB0005787608B718BFC01808131E08111B0CF1C
:103FC0008D2D8271823109F051C0332341F061E0BF
:103FD000C7010E945E1B8C01892B79F447C0F80150
:103FE0008581823009F442C0C8010E94FE1A8823EC
:103FF000E9F1F701128A08E617E180E2F80111926F
:104000008A95E9F78BE0FE013196D80101900D9277
:104010008A95E1F7E0915F17F0916017309739F0DA
:10402000B801625F7F4FC8014096199509C081E2CF
:1040300098E2F801918B808B80E098E097878687E3
:10404000F80180899189938B828B918F808F8685EF
:104050009785978B868B0E94F824882339F04D2D05
:10406000F7016289C7010E94EC1E09C080E007C009
:1040700031E056CF332309F490CF31E0A1CF2C9615
:104080000FB6F894DEBF0FBECDBFDF91CF911F9169
:104090000F91FF90EF90DF90CF9008952F923F9275
:1040A0004F925F926F927F928F929F92AF92BF9248
:1040B000CF92DF92EF92FF920F931F93CF93DF93F4
:1040C00000D01F92CDB7DEB78C016B013A01DC0145
:1040D00015968C9115978130C9F414968C9181FFB7
:1040E00015C082FF1DC0F80143895489658976890E
:1040F00082859385A485B58584179507A607B7079C
:1041000079F0C8010E944F1D81110AC081E090E042
:10411000D80113969C938E93129780E090E048C14B
:10412000430184C0D8015B968D919C915C97FC0102
:1041300054802FEF250D1A012B0139E05694479436
:10414000379427943A95D1F7522E52207A01F1E014
:10415000FF22552009F476C080E092E08E199F0975
:1041600054018815990508F45C01D8015B962D91DE
:104170003C915C9716968D919D910D90BC91A02DD0
:104180000297A109B109F901058404C0880F991F9C
:10419000AA1FBB1F0A94D2F746855785608971898B
:1041A000840F951FA61FB71F9C01AD01250D311D62
:1041B000411D511D19012A01A11432E0B30609F075
:1041C00088C080911C0290911D02A0911E02B091A6
:1041D0001F0282159305A405B50559F48FEF9FEFD3
:1041E000DC0180931C0290931D02A0931E02B093E9
:1041F0001F029601B201A101809166179091671785
:104200000E94AA24882309F481CF9EEFD91A8A1824
:104210009B08F80182859385A485B5858A0D9B1D31
:10422000A11DB11D82879387A487B587D8011A96EF
:104230004D915D916D917C911D978114910409F0D0
:1042400071CF87C0E114F10409F086CF16964D9125
:104250005D916D917C91199741155105610571052D
:1042600059F457968D919D910D90BC91A02D00977A
:10427000A105B10541F521C09E012F5F3F4F0E946E
:104280009225882309F44ACF89819A81AB81BC8128
:10429000F801238D348DF9012789203129F048EF69
:1042A0005FEF6FEF7FE004C048EF5FEF60E070E02A
:1042B00084179507A607B70730F0C8010E94D71AE0
:1042C00081114ACF23CFF80186839783A087B187D6
:1042D00043CFE114F10429F5D8011A964D915D916F
:1042E0006D917C911D9753968D919D910D90BC91F0
:1042F000A02D481759076A077B0798F00E94F824F9
:10430000882309F403CF20921C0230921D024092B0
:104310001E0250921F02809165178160809365177D
:1043200008C041E0C201B1010E943325882309F48D
:10433000EDCED601F701E859F84ECF018A0D9B1D4D
:10434000E817F90719F02D912193FACFCA0CDB1C5D
:104350005ECF5396CD90DD90ED90FC9056971496DD
:104360008C91C416D506E606F70640F4F801438B97
:10437000548B658B768B806884830DC020915F178A
:1043800030916017232B39F06114710421F080689B
:10439000D80114968C93F801848183FD02C0C30177
:1043A00007C0C8010E94E51D882309F4AFCEF7CFEE
:1043B0000F900F900F900F90DF91CF911F910F9161
:1043C000FF90EF90DF90CF90BF90AF909F908F9035
:1043D0007F906F905F904F903F902F900895CF9374
:1043E000DF931F92CDB7DEB7698341E050E0BE0195
:1043F0006F5F7F4F0E944E200F90DF91CF91089505
:104400008EBD0DB407FEFDCF08958FEF0E940022F0
:104410008EB5089561E0FC0184810C94FA1060E08F
:10442000FC0184810C94FA10CF93DF93FC01868108
:104430008823D1F08FEF8EBD4FEF878190859C014F
:104440002F5F3F4F308727838130924028F40DB48F
:1044500007FEFDCF4EBDF1CF0DB407FEFDCFEF013E
:10446000CF010E940A221E82DF91CF91089567300A
:1044700028F026E1FC01258380E008958DB560FDDC
:1044800002C0663011F48E7F01C081608DBD8CB595
:104490008C7F8CBD9CB562FD02C080E001C082E0D3
:1044A00066956170692B862B8CBD81E008950F9312
:1044B0001F93CF93DF93EB010E948E0F8B010E941D
:1044C00005228F3F49F00E948E0F601B710B6C1705
:1044D0007D07A8F380E001C081E0DF91CF911F91BB
:1044E0000F910895CF92DF92FF920F931F93CF9376
:1044F000DF9300D01F92CDB7DEB76C01F62E298373
:104500003A834B835C830E941422C6010E940F22CF
:104510006CE271E0C6010E9457228F2D80640E94D8
:10452000002208E110E05C814B813A812981DA01A7
:10453000C901002E04C0B695A795979587950A9452
:10454000D2F729833A834B835C830E940022085070
:10455000110929813A814B815C81083F8FEF18074F
:1045600031F7FF2029F0E8E0FE1204C087E803C01D
:1045700085E901C08FEF0E94002210E00E94052211
:10458000F601828787FF04C01F3F11F01F5FF6CF3F
:104590000F900F900F900F90DF91CF911F910F917F
:1045A000FF90DF90CF9008958F929F92AF92BF922D
:1045B000EF92FF920F931F93CF93DF93EC01E62EC0
:1045C0001B8619861E821D824C830E948E0F8B01D2
:1045D00061E08C810E94BE10CE010E940A2260E040
:1045E00082E30E94BE1061E083E30E94BE1061E09E
:1045F00084E30E94BE1061E085E30E94BE1061E08A
:1046000085E30E94FA1083E58CBD8DB58E7F8DBD4C
:104610002AE0F22E8FEF0E940022FA94F110FACFD6
:10462000CE010E940F2220E030E0A90160E0CE011F
:104630000E947222F82E8A8781E0F81649F00E94C3
:104640008E0F601B710B613D774068F381E04CC0B9
:104650002AEA31E040E050E068E0CE010E94722298
:1046600082FF02C0FB860EC094E0F92E0E94052254
:104670008A87FA94F110FACF8A3A11F082E034C0B6
:1046800082E08B878B85823021F0812C912C540124
:1046900005C0812C912CA12C80E4B82E20E030E0C4
:1046A000A90167E3CE010E947222A501940169E28B
:1046B000CE010E9472228A87882349F00E948E0FC1
:1046C000601B710B613D774048F388E00DC08B851E
:1046D000823039F520E030E0A9016AE3CE010E9482
:1046E0007222882389F086E08D83CE010E940A22FF
:1046F00080E0DF91CF911F910F91FF90EF90BF90DD
:10470000AF909F908F9008950E940522807C803CFE
:1047100011F483E08B870E9405220E9405220E94EB
:104720000522CE010E940A226E2DCE01DF91CF918B
:104730001F910F91FF90EF90BF90AF909F908F903F
:104740000C9437220F931F93CF93DF93EC010E94B9
:104750008E0F8B010E9405228A878F3F49F40E94A9
:104760008E0F601B710B6D327140A0F38FE003C0A0
:104770008E3F39F08DE08D83CE010E940A2280E0C9
:1047800001C081E0DF91CF911F910F910895CF92E9
:10479000DF92EF92FF920F931F93CF93DF93EC0181
:1047A0006901C801820F931F8130924008F06FC0E9
:1047B0008E81882371F088819981AA81BB814817F5
:1047C00059076A077B0729F48F819885C816D9068F
:1047D00018F5488359836A837B838B85833039F04E
:1047E00089E0440F551F661F771F8A95D1F79A01FC
:1047F000AB0161E1CE010E947222882319F083E0AF
:104800008D8345C0CE010E94A223882309F43FC0B6
:1048100018861F8281E08E838FEF8EBD2FEF8F81F0
:1048200098858C159D0550F40DB407FEFDCF2EBD67
:104830008F819885019698878F83F1CFC801019762
:10484000F7014FEF9F012E193F092817390738F458
:104850000DB407FEFDCF2EB521934EBDF3CF0DB4A1
:1048600007FEFDCF2EB5F701E80FF91F20838F81DA
:104870009885080F191F18870F838985882319F0D9
:104880000115124048F0CE010E94142205C0CE014D
:104890000E940A2280E001C081E0DF91CF911F9148
:1048A0000F91FF90EF90DF90CF900895EF92FF92DD
:1048B0000F931F930115110519F00E94C72301C022
:1048C00081E01F910F91FF90EF900895EF92FF927A
:1048D0000F931F93790100E012E020E030E00E9486
:1048E000C7231F910F91FF90EF900895CF93DF930F
:1048F000EC016EBD20E030E00DB407FEFDCFFA0103
:10490000E20FF31F80818EBD0DB407FEFDCF8181C4
:104910008EBD2E5F3F4F211582E0380769F70DB439
:1049200007FEFDCF8FEF0E9400228FEF0E94002232
:104930000E9405228A87982F9F71953039F081E176
:104940008D83CE010E940A2280E001C081E0DF91C8
:10495000CF9108950F931F93CF93DF93EC018901BB
:10496000411551056105710511F482E132C08B8555
:10497000833039F089E0440F551F661F771F8A95F1
:10498000D1F79A01AB0168E1CE010E94722288231F
:1049900011F084E01EC0A8016EEFCE010E947624C3
:1049A0008823C1F068E572E0CE010E945722811190
:1049B00002C085E10EC020E030E0A9016DE0CE012B
:1049C0000E947222811104C00E940522882339F0BE
:1049D00084E18D83CE010E940A2280E004C0CE01D2
:1049E0000E940A2281E0DF91CF911F910F910895DB
:1049F000809165178823A9F140911C0250911D02F6
:104A000060911E0270911F0228E637E180916617BF
:104A1000909167170E94AA24811102C080E0089536
:104A200040916117509162176091631770916417FC
:104A3000411551056105710591F028E637E1809136
:104A40006617909167170E94AA24882339F3109261
:104A500061171092621710926317109264171092E8
:104A6000651781E00895CF92DF92EF92FF92CF9386
:104A70006B017C01C42F80911C0290911D02A091BA
:104A80001E02B0911F028C159D05AE05BF05D1F029
:104A90000E94F824811102C080E01AC028E637E1A4
:104AA000B701A60180916617909167170E9466244E
:104AB000882391F3C0921C02D0921D02E0921E0244
:104AC000F0921F0280916517C82BC093651781E093
:104AD000CF91FF90EF90DF90CF900895CF92DF922B
:104AE000EF92FF926B017C010E94F8248823A9F0C9
:104AF000E8E6F7E1119289E1E836F807D9F7C092C4
:104B00001C02D0921D02E0921E02F0921F028091C0
:104B1000651781608093651781E0FF90EF90DF90CB
:104B2000CF9008958F929F92AF92BF92CF92DF92D3
:104B3000EF92FF920F931F93CF93DF93FC01818538
:104B40009285A385B4850196A11DB11D8417950793
:104B5000A607B70710F480E05CC083899489A58913
:104B6000B689C789C03129F4852E962EA72EBB247D
:104B700009C04A015B01C7E0B694A7949794879453
:104B8000CA95D1F7E9016A017B018F01BC01CD0112
:104B9000680D791D8A1D9B1D80901C0290901D023E
:104BA000A0901E02B0901F02681579058A059B052A
:104BB00099F4F80187898031A9F4B701A601552736
:104BC00066277727440F551FFA01E859F84E808170
:104BD0009181A0E0B0E018C040E00E94332581112F
:104BE000E8CFB9CFB701A6014F77552766277727BA
:104BF000440F551F440F551FFA01E859F84E8081A4
:104C00009181A281B381BF7088839983AA83BB837A
:104C100081E0DF91CF911F910F91FF90EF90DF9096
:104C2000CF90BF90AF909F908F9008954F925F92DA
:104C30006F927F92AF92BF92CF92DF92EF92FF92EC
:104C40000F931F93CF93DF9300D01F92CDB7DEB7A2
:104C50008C0149835A836B837C835901C12CD12CED
:104C60007601412C82E0582E612C712C49815A81A9
:104C70006B817C819E012F5F3F4FC8010E9492256E
:104C8000882351F1D301C201F801058404C0880FC3
:104C9000991FAA1FBB1F0A94D2F7C80ED91EEA1E7D
:104CA000FB1E49815A816B817C818789803129F083
:104CB00088EF9FEFAFEFBFE004C088EF9FEFA0E069
:104CC000B0E0481759076A077B0780F2F501C082F8
:104CD000D182E282F38281E00F900F900F900F90CB
:104CE000DF91CF911F910F91FF90EF90DF90CF90C8
:104CF000BF90AF907F906F905F904F9008954F92CC
:104D00005F926F927F928F929F92AF92BF92CF925B
:104D1000DF92EF92FF920F931F93CF93DF93EC01FB
:104D20006A017B0128013901423051056105710595
:104D300010F480E073C089859A85AB85BC850196A7
:104D4000A11DB11D84179507A607B70790F38B889F
:104D50009C88AD88BE888F89803129F4BB27AF2D10
:104D60009E2D8D2D09C0DB01CA0147E0B695A795A0
:104D7000979587954A95D1F7880E991EAA1EBB1E56
:104D800080911C0290911D02A0911E02B0911F0201
:104D900088169906AA06BB0679F48F898031A1F49A
:104DA000DD24EE24FF24C601880F991FFC01E85979
:104DB000F84E5182408219C040E0C501B4010E9402
:104DC00033258111EACFB5CFE894C7F8DD24EE246E
:104DD000FF24C601880F991F880F991FFC01E8590D
:104DE000F84E4082518262827382809165178160A1
:104DF000809365178A89823080F08D819E81AF8192
:104E0000B885880E991EAA1EBB1E809261179092CB
:104E10006217A0926317B092641781E0DF91CF917F
:104E20001F910F91FF90EF90DF90CF90BF90AF90C8
:104E30009F908F907F906F905F904F9008952F92EA
:104E40003F924F925F926F927F929F92AF92BF92EA
:104E5000CF92DF92EF92FF920F931F93CF93DF9346
:104E6000CDB7DEB760970FB6F894DEBF0FBECDBFEB
:104E70005C0149875A876B877C871901D901CD90DE
:104E8000DD90ED90FC90C114D104E104F10431F007
:104E9000BFEFCB1ADB0AEB0AFB0A10C0FC01C08093
:104EA000D180E280F3809924939409851A852B851B
:104EB0003C85013011052105310509F0912CF501E2
:104EC00081859285A385B4858C019D010F5F1F4F5D
:104ED0002F4F3F4F0D871E872F87388B26013701B5
:104EE0001D821E821F821886F50181859285A38509
:104EF000B4850D811E812F813885081719072A076F
:104F00003B0708F056C02D853E854F8558892415EE
:104F100035054605570550F482E0482E512C612C8A
:104F2000712C92E0C92ED12CE12CF12C9E012F5F27
:104F30003F4FB301A201C5010E9492258823C9F108
:104F400049815A816B817C81D301C2010196A11DE7
:104F5000B11D452B462B472B19F06C017D010FC06D
:104F6000AC01BD014C195D096E097F0909851A85DF
:104F70002B853C85401751076207730779F02D8117
:104F80003E814F8158852F5F3F4F4F4F5F4F2D839D
:104F90003E834F8358872C013D01A6CF0FEF1FEFB3
:104FA0002FEF3FE0B301A201C5010E947F268111CE
:104FB00018C080E041C0D301C2010197A109B10925
:104FC0008D839E83AF83B88793018201AC01BD01BD
:104FD000C5010E947F26882361F34D805E806F802B
:104FE0007884C414D504E604F70428F3D1014D9164
:104FF0005D916D917C91411551056105710599F4A3
:10500000F101C082D182E282F3829920A1F0FFEF08
:10501000CF1ADF0AEF0AFF0AD501CD92DD92ED9299
:10502000FC92139708C097018601C5010E947F2654
:105030008111E6CFBECF81E060960FB6F894DEBF57
:105040000FBECDBFDF91CF911F910F91FF90EF90D9
:10505000DF90CF90BF90AF909F907F906F905F90C8
:105060004F903F902F900895AF92BF92CF92DF92D2
:10507000EF92FF920F931F93CF93DF9300D01F9275
:10508000CDB7DEB75C016A017B0182E090E0A0E071
:10509000B0E0F50180839183A283B3839E012F5FEB
:1050A0003F4FB701A601C5010E949225882311F147
:1050B00000E010E09801B701A601C5010E947F261B
:1050C0008823C1F0C980DA80EB80FC80F5018789F4
:1050D000803129F088EF9FEFAFEFBFE004C088EF89
:1050E0009FEFA0E0B0E0C816D906EA06FB06B0F2D2
:1050F00081E001C080E00F900F900F900F90DF9142
:10510000CF911F910F91FF90EF90DF90CF90BF90C4
:10511000AF9008958F929F92AF92BF92CF92DF92FD
:10512000EF92FF920F931F93CF93DF93EC01142F15
:105130007093671760936617442369F1453010F048
:1051400080E0F2C040E060E070E0CB010E943325D7
:105150008823B1F320E1129FA0011124485A584E30
:10516000FA01E254FE4F80818F7751F73C9680819F
:105170009181A281B38184369105A105B10500F327
:105180003497C080D180E280F380C114D104E1045F
:10519000F10421F4D5CFC12CD12C760140E0C70118
:1051A000B6010E943325882359F28091731790919C
:1051B00074178115924021F690917817992309F47C
:1051C000BFCF2091761730917717232B09F4B8CFF2
:1051D00080917517882309F4B3CF9A8B8C831D8631
:1051E00090E061E070E02D85E22FAB01022E02C05D
:1051F000440F551F0A94E2F78417950731F031E008
:10520000320F3D87283078F39BCF20917E17309165
:105210007F172115310519F040E050E008C02091BA
:105220008C1730918D1740918E1750918F172D83C9
:105230003E834F8358878091761790917717460168
:105240005701880E991EA11CB11C8B8A9C8AAD8ABD
:10525000BE8A0091791710917A17198F088FA09143
:105260007817B0E00E94213E860E971EA81EB91E38
:105270008A8E9B8EAC8EBD8E85E0000F111F8A95A5
:10528000E1F701501E4F012F11270695800E911E48
:10529000A11CB11C8E869F86A88AB98A20917B1793
:1052A00030917C172115310521F0A90160E070E0F3
:1052B00008C0409188175091891760918A177091A2
:1052C0008B17D701C60188199909AA09BB09840F50
:1052D000951FA61FB71F04C0B695A79597958795EC
:1052E000EA95D2F789879A87AB87BC87853F2FE0FD
:1052F0009207A105B10510F48CE014C0853F9F4FC3
:10530000A105B10510F480E10DC080919417909132
:105310009517A0919617B09197178A8F9B8FAC8F96
:10532000BD8F80E28F8B81E0DF91CF911F910F9134
:10533000FF90EF90DF90CF90BF90AF909F908F90B5
:1053400008952F923F924F925F926F927F928F9229
:105350009F92AF92BF92CF92DF92EF92FF920F9304
:105360001F93CF93DF9300D0CDB7DEB74C017B8383
:105370006A836A01590117019801241B350B37FF15
:1053800003C0319521953109C5014A815B81841B98
:10539000950B97FF03C091958195910951E0598331
:1053A0008217930714F019820BC09A2D8B2D580188
:1053B000092F182F9A818B81DB82CA82C92ED82EA1
:1053C0008A819B81A816B9065CF49C2D8D2D6801FD
:1053D000092F182F9A818B81BB82AA82A92EB82E01
:1053E0002501AA81BB814A1A5B0A38016C187D0825
:1053F00077FE03C0719461947108720157FE03C077
:10540000BFEFEB1AFB0AF594E794C016D1061CF027
:105410000FEF1FEF1FC001E010E01CC0D401ED91A1
:10542000FC91B9810084F185E02D9101BB23C1F08D
:105430004A815B81B601C4011995E618F708F7FEA9
:1054400004C0C00ED11EE40CF51CEA81FB8131962C
:10545000FB83EA834A815B81A416B506FCF604C08F
:10546000A6016A817B81E7CF0F900F900F90DF91AB
:10547000CF911F910F91FF90EF90DF90CF90BF9051
:10548000AF909F908F907F906F905F904F903F90E4
:105490002F9008950895DC01ED91FC910480F58131
:1054A000E02D19940F931F93DC01ED91FC91008C7A
:1054B000F18DE02D19951F910F9108950F931F9372
:1054C000DC01ED91FC91028CF38DE02D19951F917B
:1054D0000F910895EF92FF920F931F93DC01ED91CE
:1054E000FC91048CF58DE02D19951F910F91FF9083
:1054F000EF9008950895AF92BF92CF92DF92EF920E
:10550000FF920F931F93CF93DF9300D01F92CDB7DD
:10551000DEB75C016901DC01ED91FC910680F78149
:10552000E02D4B835C8369837A831995D501ED91D6
:10553000FC914B815C81C40ED51EB1E0CB1AD10821
:105540000088F189E02D7801860169817A819B01CB
:10555000C5011995D501ED91FC910288F389E02DE3
:10556000C5010F900F900F900F90DF91CF911F9179
:105570000F91FF90EF90DF90CF90BF90AF90199474
:10558000AF92BF92CF92DF92EF92FF920F931F9351
:10559000CF93DF9300D01F92CDB7DEB75C016901D6
:1055A000DC01ED91FC910680F781E02D4B835C835B
:1055B00069837A831995D501ED91FC9169817A818E
:1055C0009B012C0D3D1D215031090088F189E02DF2
:1055D00078014B815C818A01C5011995D501ED9156
:1055E000FC910288F389E02DC5010F900F900F9078
:1055F0000F90DF91CF911F910F91FF90EF90DF906F
:10560000CF90BF90AF9019944F925F926F927F921C
:105610008F929F92AF92BF92CF92DF92EF92FF92C2
:105620000F931F93CF93DF931F921F92CDB7DEB7D7
:105630006C015A0139014801DC01ED91FC910680B1
:10564000F781E02D69837A8319956981462E7A81E5
:10565000572E640C751CD601ED91FC91461457042D
:105660006CF40484F585E02D87019401A501B20155
:10567000C6011995BFEF4B1A5B0AEDCF0288F3897B
:10568000E02DC6010F900F90DF91CF911F910F91E8
:10569000FF90EF90DF90CF90BF90AF909F908F9052
:1056A0007F906F905F904F901994EF92FF920F93BD
:1056B0001F93DC01ED91FC9111971A960D911C91AD
:1056C0001B9718962D913C911997048CF58DE02D20
:1056D0007B0140E050E060E070E019951F910F9170
:1056E000FF90EF900895CF92DF92EF92FF920F9389
:1056F0001F93CF93DF9300D000D0CDB7DEB76C01FE
:10570000DC01ED91FC916217730789F4041715070A
:105710002CF4942F852FA801092F182F041B150B8B
:1057200098012F5F3F4F008CF18DE02D12C0401784
:10573000510709F5261737072CF4962F872FB90143
:10574000292F382F261B370B2F5F3F4F028CF38DED
:10575000E02D8701C601199526960FB6F894DEBF95
:105760000FBECDBFDF91CF911F910F91FF90EF90B2
:10577000DF90CF9008950680F781E02D2D833E8342
:105780004B835C8369837A831995D601ED91FC91F3
:105790000088F189E02D2D813E814B815C816981FA
:1057A0007A81C6011995D601ED91FC910288F389A1
:1057B000E02DC60126960FB6F894DEBF0FBECDBF12
:1057C000DF91CF911F910F91FF90EF90DF90CF90DD
:1057D00019946F927F928F929F92AF92BF92CF92C5
:1057E000DF92EF92FF920F931F93CF93DF93EC0121
:1057F0004B015A0169013801E881F9810680F7817E
:10580000E02D1995E881F9810684F785E02D87015F
:105810009601A501B401CE011995E881F981A50190
:10582000460D571D415051090684F785E02D96011C
:10583000B401CE011995E881F9810484F585E02D44
:105840009301A501B401CE011995E881F981C80C35
:10585000D91CB601615071090484F585E02D9301CE
:10586000A501CE011995E881F9810288F389E02D1F
:10587000CE01DF91CF911F910F91FF90EF90DF90BC
:10588000CF90BF90AF909F908F907F906F90199422
:105890000895FC016370658B848195812681378131
:1058A000613039F0633029F0918780873387228710
:1058B000089531872087938782870895FC0113829A
:1058C00012828BED92E0918380837583648357838A
:1058D00046837187608753874287158A15861486A9
:1058E0001786168681E0848B2FEF3FEF338B228B58
:1058F000318B208B868B178A118E108E08952F92F4
:105900003F924F925F926F927F928F929F92AF924F
:10591000BF92CF92DF92EF92FF920F931F93CF939C
:10592000DF93CDB7DEB728970FB6F894DEBF0FBE72
:10593000CDBF5C013B014A0138872F83FC82EB829B
:1059400081E090E02C01421A530AC901919581959A
:1059500091099C01220F331F3A832983170133E0F9
:10596000230E311CEE24E394F12C802F81708D8363
:1059700002700E83C7010197EF81F8858E179F078C
:105980000CF078C057FC0CC0AF81B8851197B88770
:10599000AF83E981FA813296FA83E9834E0E5F1E66
:1059A000C701880F991F0196480E591EFD81FF23DC
:1059B00059F1D501ED91FC912F813885220F331FCC
:1059C0002F5F3F4F8B819C81280F391F0484F58501
:1059D000E02D8601A401AF81B8854A1B5B0BB7019E
:1059E000660D771DC5011995D501ED91FC910484D3
:1059F000F585E02D9101A4014E195F096F8178852D
:105A0000660D771DC5011995BE81BB2361F1D501D6
:105A1000ED91FC912F813885220F331F2F5F3F4F6F
:105A20008B819C81280F391F0484F585E02D860128
:105A3000A401AF81B8854A1B5B0BB3016E197F09C6
:105A4000C5011995D501ED91FC910484F585E02DF2
:105A50009101A4014E195F09B3018F819885681BDC
:105A6000790BC50119959FEFE91AF90AA2E02A0EF0
:105A7000311C80CF28960FB6F894DEBF0FBECDBF85
:105A8000DF91CF911F910F91FF90EF90DF90CF901A
:105A9000BF90AF909F908F907F906F905F904F904E
:105AA0003F902F9008956F927F928F929F92AF9226
:105AB000BF92CF92DF92EF92FF920F931F93CF93FB
:105AC000DF93EC014B013A0159016801E881F9814A
:105AD0000680F781E02D1995E881F9819501220F63
